:1000000000000420750300005D0300005F03000092
:1000100061030000630300006503000000000000AE
:100020000000000000000000000000006703000066
:1000300069030000000000006B0300006D03000076
:100040006F0300006F030000A516000011170000E9
:100050006F0300006F0300006F0300006F030000D8
:100060006F0300006F0300006F0300006F030000C8
:100070006F0300006F0300006F0300006F030000B8
:100080006F0300006F0300006F0300006F030000A8
:100090006F0300006F0300006F0300006F03000098
:1000A0006F0300006F0300006F0300006F03000088
:1000B0006F0300006F03000000000000000000005C
:1000C0006F0300006F0300006F0300006F03000068
:1000D0006F0300006F0300006F0300006F03000058
:1000E0006F0300006F0300006F03000000000000BA
:1000F000000000006F030000000000006F0300001C
:1001000000000000000000000000000000000000EF
:1001100000000000000000000000000000000000DF
:1001200000000000000000000000000000000000CF
:1001300000000000000000000000000000000000BF
:1001400000000000000000000000000000000000AF
:10015000000000000000000000000000000000009F
:10016000000000000000000000000000000000008F
:10017000000000000000000000000000000000007F
:10018000000000000000000000000000000000006F
:10019000000000000000000000000000000000005F
:1001A000000000000000000000000000000000004F
:1001B000000000000000000000000000000000003F
:1001C000000000000000000000000000000000002F
:1001D000000000000000000000000000000000001F
:1001E000000000000000000000000000000000000F
:1001F00000000000000000000000000000000000FF
:10020000354936480A1A02D0072291438D463449AF
:1002100034480A1A06D00722914381F30988022242
:1002200082F3148830483149314A00F044F83148AB
:100230003149324A00F03FF831483249324A00F041
:100240003AF832483249334A00F035F832483349F7
:10025000334A00F030F833483349344A00F02BF881
:1002600033483449344A00F026F8344834490022EF
:1002700000F02CF833483449002200F027F83348C6
:100280003349091A082902DB002202604160314A21
:1002900090471F481F49884205D00268043003B4C4
:1002A000904703BCF7E700208646EC46002000217B
:1002B000294A9047FEE7884207D0521A05D00378B2
:1002C00001300B700131013AF9D17047884202D0F8
:1002D00002700130FAE770470000042000E00320BC
:1002E0000000042000000420B82E000000000020C0
:1002F00034000020D4030000D40300005E2A000074
:10030000B82E00000000002000000020AC2A0000F1
:10031000AC2A0000AC2A0000AC2A0000AC2A000085
:10032000AC2A0000AC2A0000AC2A0000B62E000067
:10033000EC2E0000340000203400002034000020A7
:10034000BA060020BC060020BC060020BC06002027
:10035000BC2600209D03000021260000FEE7FEE7EA
:10036000FEE7FEE7FEE7FEE7FEE7FEE7FEE7FEE765
:10037000704700BF1048804710484FF0070188437E
:1003800085460F4880470F48016841F470010160BD
:10039000BFF34F8FBFF36F8FFFF732BF0A480B4990
:1003A0000B4A884207D0521A05D0037801300B70EF
:1003B0000131013AF9D170477103000000000420B7
:1003C000D526000088ED00E0AC2A000000000020E7
:0403D0000000002009
:1003D400F0B595B01D46164608460C4601F006F8E1
:1003E4001A9B0D93CDE9086500252B46082205A923
:1003F40020460A958DF82C500C9501F014F8079BB3
:100404000293069B03939DF814308DF8115003F06A
:100414000302012A1DD1BDF81420059DC3F3C203B4
:10042400C2F383168DF81030B20008230EA92046BB
:1004340000F0F9FFC5F3952508AB0093324602ABF3
:100444000EA9284600F0C6FB204600F0D3FF15B0E5
:10045400F0BD022AF8D1BDF81650C3F3C203C5F3A8
:1004640089158DF810300827082D2E4628BF082638
:100474003B4632460EA9204600F0D5FFAD1B08AB23
:1004840002AA31460EA8374400F008FC002DEBD137
:10049400DAE70000014B01221A7070477500002052
:1004A4007047000070B5124D06460FCD88B06C46FB
:1004B4000FC495E80F00002E84E80F004FF0FF33BF
:1004C4004FF00602CDE90023CDE90233094A0A4878
:1004D4004FF0EB7308BF00226946069301F0A2F8BF
:1004E40008B100F037FC054B1E7008B070BD00BFAA
:1004F400AC2A000099040000000000203400002011
:1005040007B5044B0093044A4023FFF761FF03B08F
:100514005DF804FB210500003500002038B50D4BC3
:100524000D4D002018700D4804782D5DD2B21C4684
:1005340065B1043001F0C0FF08B100F00BFC084BBA
:100544001A7812B12378002BFBD038BD0C3001F09F
:10055400A1FDF1E77500002028060020000000201E
:100564003400002008B50848084A0378D35C3BB13E
:10057400043001F04DFFBDE808400020FFF792BFB2
:100584000C3001F033FDF6E70000002028060020BF
:100594000120FFF787BF000008B5FFF7F9FF044803
:1005A400042100F07FFA034B01225A7108BD00BFF9
:1005B400882A000014000020037813F0040216D0E7
:1005C40003F00303012B03D0022B09D00120704751
:1005D4000A6800880232C0F3831002440A60F5E717
:1005E4000B684288023303EB92130B60EEE710466C
:1005F400704700002DE9F04F044685B0861C0020AA
:100604000F46154600F0FEFB454801683960D0E905
:100614000132134401335B1A824600F21C4700F591
:10062400836900F21448B3421BD30020002D72D01A
:1006340004F00F039B0143F0050363F30F00DAF8A2
:100644000020DAF808301340033316444AF8230034
:100654000020CAF8006000F0D7FB012005B0BDE817
:10066400F08F0121384600F0F4FB484600F009FC05
:10067400404600F006FCDAF80400DAF808B000900E
:1006840000EA0B0003300AEB80006946FFF794FF91
:10069400009B50BB0BEA03020AEB820203F1020C3B
:1006A400D2680192013303EA0B0B0AEB8B0B02F0C5
:1006B4000302012ADBF80C10CDF800C023D0022A73
:1006C40016D08346404600F0DFFB10B1009BCAF809
:1006D40004305946384600F0BCFBDAE901231344E0
:1006E400DAF8002001339B1A9DE70BEA0300C9E7FF
:1006F400BDF80630C3F3891303334FEA114B0CEBF7
:1007040093030093DEE7BDF80430C3F383134FEA89
:10071400114B6344F5E7A40544F006008FE700BFDE
:10072400480100200B4B0C48FF2210B59A600022B0
:10073400C3F81824C3E90022C3F8142483F820243E
:1007440000F00DFE044610B9044800F076FE204681
:1007540010BD00BF48010020982A0000002B0000B3
:1007640030B50A4C71B10A4A0A49121BD208002357
:100774009A4201D1002030BD31F82350854202D085
:100784000133F5E7034654F83300F4E7602A000028
:10079400882A000000000020094B013903EBC00047
:1007A400032909D8DFE801F00A020406042070478F
:1007B40000797047407970470020704702207047E5
:1007C400602A0000034BD3E90030C31A5842584151
:1007D400704700BF480100202DE9F04385B0FFF7C2
:1007E400F1FF0646002840F0F5807B4DC5F818045B
:1007F400BFF34F8F6B68AC6800932340033305EB62
:1008040083006946FFF7D8FE009B18B1D5F8182479
:10081400002A5FD004EA0302991C013305EB82022B
:10082400234005EB8303D268DB68029302F00303E1
:10083400022B0192009160D1BDF806306748C3F3E2
:100844008917502FB84628BF4FF0500868F38F130C
:1008540008F10801ADF8063000F099FD06460028BD
:1008640000F0A38000F0C2FD0023082201A9304655
:1008740000F0CFFD009924EA01020132B8EB820FA7
:100884004FEA820332D95FFA88F85BB32140DCB2C5
:10089400A8EB040803315FFA88F9A046504C05EB35
:1008A400810108234246304600F0B3FD34B108F11B
:1008B40008034A462146304600F0ABFD009B03374F
:1008C40003EB97070097D5F81834002B49D1D5F8D6
:1008D400104459E02A689A428FD86A60304605B0BD
:1008E400BDE8F0833E491C469946DAE70C40E11C1A
:1008F4000823424605EB8101DDE7012B55D1BDF804
:1009040004303648C3F38311062928BF062161F356
:10091400891302318900ADF8043000F038FD064631
:10092400002842D000F062FD0023082201A93046CD
:1009340000F06FFD0027BDF80420C2F38312BB0052
:10094400974203F10803BED200994A1C21400331A7
:10095400009205EB81010422304600F05AFD013774
:10096400E9E7304600F046FDFFF72CFF80F0010078
:10097400C6B2B3E7E3685B7923B1236831461B68E9
:1009840020469847E3681C68002CF3D1304600F0F9
:1009940031FD204600F036FAD5F818340BB9009B27
:1009A4006B60002000F030FADEE7D5F8104454B94B
:1009B4000C4B0D480D49C01AC008000440F0020059
:1009C40000F062F8D0E7236820469B689847E36804
:1009D4001C68ECE7002681E748010020982A000003
:1009E40054010020602A0000802A0000E92A000047
:1009F4002DE9F74F224D04460F46924601A90122E4
:100A04001846D5F808909B46FFF7F4FD20B3019EE5
:100A14004FF00008B21CD84508EB020126D1194852
:100A2400002100F0F3F980F31000000440EA1440C0
:100A3400E400731C04F0380403EA090306EA090617
:100A440044F0010405EB8303033644EA881444EAC2
:100A54008724D86045F8264095F820341BB1FFF769
:100A6400BBFE0028FBD103B0BDE8F08F09EA010109
:100A740005EB81015AF82830CB6008F10108CAE778
:100A8400480100206405002000231A46FFF7B0BF88
:100A940007B50123019201AAFFF7AAFF03B05DF88D
:100AA40004FB000030B50F49D1F8102403460020A0
:100AB400144634B9DC6820714AB9C1F81034226094
:100AC40030BDE4682579854206D02468F1E7D26810
:100AD400116821601360F3E701300A28E8D14FF070
:100AE400FF30EDE748010020094A38B50123D2F868
:100AF400104482F820341D4604B938BDE3685D71A2
:100B0400236820465B689847E3681C68F4E700BFE5
:100B14004801002007B503460846197A052911D073
:100B24005B7A2BB1094A0A49019000F007FA01984F
:100B34000849019000F002FA019803B05DF804EB53
:100B440000F0F1B9002AF8D0F2E700BF0C2B000046
:100B5400112B0000312B000030B5C38885B004464A
:100B64000D4633B1144A00921449154A284600F040
:100B7400E5F9217A05291DD0637A4BB1A088FFF7E6
:100B84000BFE104B104953F82020284600F0D6F9EC
:100B9400227A0E4BA08853F8222003920021FFF7FB
:100BA400DFFD039A0A490346284605B0BDE83040F4
:100BB40000F0C4B905B030BD0C2B00001C2B0000A4
:100BC400142B0000982B0000112B0000BC2B0000FC
:100BD400342B00002DE9F04385B01F460C9D002303
:100BE40095F80C902B7306460C46904629463846D9
:100BF400FFF7B2FFB8F1060F09D8DFE808F00412D6
:100C0400181F283340003146284600F097F9002287
:100C140029463846FFF77EFF85F80C9005B0BDE8FD
:100C2400F08322683146284600F088F9EFE7D4E9DA
:100C340000233146284600F081F9E8E7A3680093D1
:100C44003146D4E90023284600F078F9DFE7E36869
:100C54000193A36800933146D4E90023284600F0A9
:100C64006DF9D4E723690293E3680193A3680093C1
:100C74003146D4E90023284600F060F9C7E76369E8
:100C8400039323690293E3680193A36800933146B5
:100C9400D4E90023284600F051F9B8E708292DE9E2
:100CA400F74F80460E4617461C463CD8002593F85D
:100CB4000C901D7319461046FFF74EFFDFF888A00D
:100CC400DFF888B0AE4231D918F8052059462046DD
:100CD40000F034F90135082DF4D11949194DDFF824
:100CE40070A0204600F02AF94FF0000B5E4522D98F
:100CF40018F80B207E2A05D81046019201F01CFE3C
:100D0400019A00B92E225146204600F017F90BF142
:100D1400010BBBF1080FE9D1012221463846FFF748
:100D2400F9FE84F80C9003B0BDE8F08F51462046DC
:100D340000F004F9CEE72946204600F0FFF8E6E784
:100D4400482B0000462B0000442B00003E2B0000E3
:100D54004A2B00001FB50021039001AA44F20100B0
:100D6400CDE9011100F004F805B05DF804FB0000C2
:100D740010B572B6FFF7B8FEFFF72EFD0028FBD1C1
:100D8400104B114C1149E41AE408240444F0010006
:100D9400FFF77AFE0E4B1B68DB0700D500BE0D493A
:100DA40044F00200FFF770FEBFF34F8F0A490B4B6C
:100DB400CA6802F4E0621343CB60BFF34F8F00BFF5
:100DC400FDE700BF602A0000802A0000D02B00004D
:100DD400F0ED00E0DC2B000000ED00E00400FA057B
:100DE40072B6024A13680133136070470406002088
:100DF400034A1368013B136003B962B6704700BF2E
:100E040004060020FFF7ECBFFFF7F2BF10B503465E
:100E140053E8000F0A4643E8002494F0000FF7D18A
:100E240010BD10B5034653E8002F42EA010043E821
:100E3400000494F0000FF6D110BD10B5034653E83A
:100E4400000F00EA010243E8002494F0000FF6D1F9
:100E540010BD10B5034653E8002F02EB010043E830
:100E6400000494F0000FF6D110BD10B5034653E80A
:100E7400002FA2EB010043E8000494F0000FF6D128
:100E840010BD0121FFF7CDBF0021FFF7D6BF10B57C
:100E940090B1D0E9012301689B1ADBB20A60013BDF
:100EA400DBB2FF2B026802D10020107110BD116863
:100EB4004C1C14600B70F2E70E20F7E738B50446BB
:100EC4000020FFF79FFF226863681168994213D9D5
:100ED400481E106011F8015CE368218A01FB0535A6
:100EE400A36811791B1ADBB2994200D21371002056
:100EF400FFF78AFF284638BD0025F8E738B50546D0
:100F040000200C46FFF77EFF2A681368591C116005
:100F1400E968641A298AB4FBF1F41C70BDE838400E
:100F24000020FFF771BF826810B504462AB14369F7
:100F34000168006998470023A36010BD0EB403B58F
:100F4400039921B104AB01AA019300F077F802B030
:100F54005DF804EB03B070470A2938B504460D4622
:100F640002D10D21FFF7F8FFA3682268591CA16084
:100F7400D554D4E901329A4204D32046BDE838401E
:100F8400FFF7D1BF38BD00002DE9F84F9846DDE9E1
:100F94000A43154682460F460A464FF00109AA4203
:100FA4000FD2C14538BFC14613F0010B01D16CB952
:100FB40000240126B8F1010F1BD908F1FF386E4354
:100FC400F8E709F10109B2FBF5F2E8E79B070ED552
:100FD400B8F1000F0CBF30262026A145E9D2013C10
:100FE40031465046FFF7B8FF002CF6D1E0E7202643
:100FF400F3E7B7FBF6F39D42E1D9DFF83C80B7FB9A
:10100400F6F3504618F8031006FB1377FFF7A4FF16
:101014003346AB42B6FBF5F6F1D2BBF1000F02D07A
:101024000CB1A14501D3BDE8F88F20215046013C05
:10103400FFF792FFF4E700BFE92B00002DE9F74F1B
:10104400054617468846002900F0428118F8011B1E
:1010540049B92B7B002B00F03B81284603B0BDE847
:10106400F04FFFF760BF252940F0B780002698F8BD
:1010740000302D2B424608F1010823D0302B24D018
:101084002B2B25D000242A2B02F1010123D13B680C
:101094001A1D1B683A601C440A4613782E2B26D16D
:1010A40001324FF0000A104610F8011BA1F1300C78
:1010B400BCF1090F1DD80A2303FB0A13A3F1300A5C
:1010C4000246F0E746F00106D1E746F00206CEE715
:1010D40046F00406CBE711F8013CA3F130000928DF
:1010E400DBD80A2202FB0434303C0A46CBE74FF03B
:1010F400000A12F8011B01F0FB0068289046F8D0A2
:10110400782909D86F290CD8632962D022D82529D7
:1011140063D0582900F0888098F80030002B95D1CE
:1011240097E770390829F7D801A353F821F000BFD5
:10113400AF1200001D1100001D1100003D1200003F
:101144001D1100001B1200001D1100001D110000E4
:101154002D120000642901D06929DDD13A68D2F842
:101164000090111D89EAE9723960A2EBE9724FF02F
:10117400010B092A35DCD34538BFD3462CB1B9F16C
:10118400000F01DB720700D5013CB30702D5BAF1A9
:10119400000F03D0F00701D44CBB0024B9F1000FB9
:1011A4002DDAC9F100092D212846FFF7D5FE06F0F6
:1011B4000302022A04D1BAF1000F01D11CBB00249E
:1011C400CDE9004653460A2249462846FFF7DCFE8D
:1011D400A2E73B681A1D19783A602846FFF7BCFE5F
:1011E4009AE70A230BF1010BB2FBF3F2C1E7A34523
:1011F400D4D220212846013CFFF7AEFECCE771078C
:10120400D5D52B21D0E7A345DAD230212846013C9D
:10121400FFF7A2FED2E73968CDE900460A1D3A601D
:1012240053460A220968D0E739680A1D3A60CDE9B5
:10123400004653461022F5E73B681A1D3A6016F043
:101244000106D3F8009028D1B9F1000F03D0484625
:1012540001F0D3FB0646B44200D904BB09F1FF39BF
:1012640019F8011F00293FF457AF2846FFF774FE11
:10127400F6E728460136FFF76FFE19F80610002935
:10128400F7D1A642BFF448AF002C3FF445AF20216C
:101294002846013CFFF760FEF3E70026EDE7202136
:1012A4002846013CFFF758FED5E73B681A1D3A6013
:1012B400302128461C68FFF74FFE78212846FFF7A7
:1012C4004BFE00220823CDE90032214610227CE7A0
:1012D40003B0BDE8F08F00BF2DE9F84FB0F806A0C9
:1012E4004579D2F800B09DF828900AFB05F5043D35
:1012F40088460BEB0301A94203F1040488BFA5EB64
:10130400030BB4FBFAF607460AFB1644C2F800B016
:101314004EB9AAEB04055D4528BF5D46BBF1000F3D
:1013240004D1BDE8F88F3F68013EF1E7043408EBCF
:1013340006003C442A46B9F1000F0DD02146ABEB20
:10134400050B01F0FEFADA452E443F6855464FF08E
:10135400000428BF5D46E1E701462046EFE7FFF7BA
:1013640096BDF8B546790146721E054600239342A0
:101374002D6803D30024A64202D8F8BD0133F6E752
:101384000F682846FFF7BAFD01343946F3E72DE923
:10139400F843068ACD1C0746FFF790FD043E35440A
:1013A4000446B5FBF6F5F0B14FF48073EDB28380DB
:1013B400C680013D076081464FF00008A84512D25F
:1013C4003846FFF77BFD064648B163790133637104
:1013D40008F10108C9F8000007608146EEE72046DD
:1013E400FFF7BFFF34462046BDE8F88301210430EF
:1013F400FFF72FBD10B5012104460430FFF735FD7A
:1014040010F0FF0F04D12046BDE81040FFF7A9BF3C
:1014140010BD1FB503920022009203AAFFF75CFFE0
:1014240005B05DF804FB1FB503920122009203AAE4
:10143400FFF752FF05B05DF804FB836800225A6091
:10144400C3E904229A60DA601A6070471FB5037812
:101454008DF800308388ADF8043083688DF8063049
:10146400C3688DF80730036902934369054A0393FF
:10147400054B684653F8213052F82110984705B0BF
:101484005DF804FB0806002010060020024B4FF410
:10149400807043F001031847002C00001F2886BF0A
:1014A400054A00F01F004FF0A042012303FA00F0A8
:1014B400C2F80805704700BF000300502DE9F0474B
:1014C400154690F80080394A42F82850384A42F8C4
:1014D40028304B7B06460C46A3B30868DFF8D89047
:1014E4004FF0A04100F5E07340F20C6241F8232074
:1014F400636803F5E073002741F82320FFF7CEFF6C
:101504006068FFF7CBFF236803F5E07340F20D62D8
:1015140041F82320636803F5E0734FF0010A41F8B2
:101524002320FFF7B3FF63681F2B8ABF4A464FF09F
:10153400A04203F01F03D2F8102522FA03F3DB07BD
:101544000BD507BB002D1B4A434608BF2A4621463C
:10155400301DBDE8F04700F07BB923681F2B86BF20
:1015640003F01F034A464FF0A0420AFA03F3C2F8FD
:101574000C35FFF78BFF01372068FFF78FFFFFF76C
:1015840085FF092FCFD163681F2B86BF0A4903F05B
:101594001F034FF0A041012202FA03F3C1F80C35F6
:1015A400FFF774FF6068FFF779FFCBE710060020B0
:1015B4000806002051140000000300501FB50378F2
:1015C4008DF800304368019383688DF80830C36850
:1015D400054A0393054B684653F8213052F821100D
:1015E400984705B05DF804FB18060020200600208B
:1015F4001FB503788DF800304368019383688DF834
:101604000830C368054A0393054B684653F82130F4
:1016140052F82110984705B05DF804FB1806002025
:1016240020060020F0B5194B90F800C0DFF86CE0FC
:1016340043F82C20164B16460A6943F82C204B7F9E
:101644000EF80C300C4607460FCC89B06D460FC51A
:1016540094E80F0085E80F001EF80C30CDF810C098
:101664004BB1002E0B4A694608BF3246381D00F0C4
:10167400F1FD09B0F0BD002E074A694608BF3246A5
:1016840007F10C0000F0DCFBF3E700BF20060020AC
:1016940018060020C1150000F515000028060020DA
:1016A400014B1B68184700BF2C06002038B50B4BB4
:1016B40098420C4601D0002038BD0020FFF7A2FB61
:1016C400074B1D7915B901221C601A710020FFF720
:1016D4009BFB002DEFD01120EEE700BF002000405F
:1016E4002C060020034B984201BF034B00221A60D2
:1016F4001A717047002000402C060020002343503C
:1017040082B043580193019B02B07047F0B54C4836
:101714004C4CD0F8243187B005469BB14FF49271FC
:10172400FFF7ECFFD0F8043163B9A368C0F80833BD
:101734000223A360A368C0F8043301230362436156
:1017440007B0F0BDD5F80431002B49D03E4F3C48DA
:101754004FF48271FFF7D2FF0FCF01AE0FC63B6883
:10176400336094F82E307BB1237B012B0CBFD5F86A
:101774003C25D5F84C250292022B314B0CBFD3F8F3
:101784003C35D3F84C3503932D484FF4B071FFF733
:10179400B5FF2B484FF4AE71FFF7B0FF94F830302B
:1017A40013B194F82E303BB1254B0022C3F800222C
:1017B400A260264AC3F80823214AD2F8C434C2F8E6
:1017C400C4349A0736D501238DF8003094F83030AC
:1017D4000BB984F82F30D4E9003168469847AFE755
:1017E40017484FF4A471FFF789FF237B83B9164F81
:1017F4000FCF01AE0FC63B68336094F83030002B36
:10180400DAD1C5F80032A360104BC5F80833D3E72A
:101814004FF40073C5F8003240F20223A36003F1D1
:10182400CE73C5F80833A368C5F804330123AB604D
:101834002B6285E713F0040318BF0223C4E700BF3B
:1018440000300040340600204006002002029C01C3
:101854002DE9F84F06793D4D4FF0340A0AFB06FA9C
:1018640005EB0A079B4697F82D3080460C469146B7
:10187400002B66D136490068FFF718FF002862D1B3
:101884002168637B87F832301F298CBF01F01F0366
:101894000B46B860C7F804B087F82F0087F830000B
:1018A40003F5E07288BF2B4F45F80A9098BF4FF0BC
:1018B400A04740F20C6347F8223062681F2A1F4693
:1018C4008CBF02F01F03134603F5E0738CBFDFF8EF
:1018D40084C04FF0A04C4CF82370D8F80030C3F803
:1018E4000815C3F80C25A268C3F82425B9F1000F24
:1018F4001FD043F307310029227BB4BF164C01F1FA
:101904006044C3F30733B8BF03F00F074FEA421232
:10191400A8BF04F56144D2B2B4BFE25584F80023F1
:1019240003F01F03012202FA03F349090B4A42F8A8
:101934002130342303FB0655012385F82D30BDE8FF
:10194400F88F0820FBE71120F9E700BF34060020D8
:10195400111700000003005014ED00E000E100E066
:10196400026803790621C2F80015044A342101FBF8
:101974000323022283F82D20704700BF3406002081
:101984002DE9F843CB6803F06043B3F1005F0D46E3
:10199400914603D010263046BDE8F88390F80480C1
:1019A400954F0468954BC4F80833342606FB087633
:1019B40096F82F3023B1B368C4F804331126EAE74C
:1019C40012F0140F0CBF0123002386F82F308E462B
:1019D400BEE80F0006F10C0CACE80F00DEF8003096
:1019E400CCF80030C9F3001386F830306B78C4F8B3
:1019F40088354FF482712046FFF780FE4FF49271D0
:101A0400FFF77CFE19F0010318BF0123C4F8503519
:101A140019F0020318BF0123C4F840352B78032BB7
:101A240000F2C880DFE803F088B069022B6903F094
:101A34006043B3F1005FADD14FF48073EA68C4F83A
:101A440000326B68C4F844254FF4A871C4F84835D3
:101A5400FFF754FE4FF4B071FFF750FE4FF4A4713A
:101A6400FFF74CFE01232362A360D4F85031002B0E
:101A7400FBD04FF4A8712046FFF740FEAB682A69FB
:101A8400C4F84425C4F84835342303FB08735C4A7E
:101A94009A604FF482730822002619F0080F04D1CB
:101AA400297803291CBF0121A150342202FB08F22A
:101AB400B918BA58002A40F08280012223441968D8
:101AC400002900F089803422D4F8C434C4F8C43422
:101AD40002FB0877002287F82F20002B3FF45BAF2E
:101AE40013F0020F48F2012608BF032613F0040F77
:101AF40048F2022318BF1E464DE76B68EA68C4F833
:101B04004425C4F848352B6903F06042B2F1005F04
:101B14007FF440AFAA68C4F834354FF48453C4F852
:101B24003825C4F80032342303FB087340F2022240
:101B34009A6001232362ACE76B68EA68C4F8442521
:101B440019F0200FC4F848354FF0340310D003FBCC
:101B540008734FF48072C4F80022294A9A604FF443
:101B6400A471FFF7CBFD4FF4A4730122226292E724
:101B74004FF4007203FB0873C4F8002240F20222FF
:101B84009A604FF48273F0E76B68EA68C4F834250E
:101B9400C4F838354FF48053C4F80032342303FBBF
:101BA400087340F202229A600123236200224FF458
:101BB400827371E74FF48273082207266DE719F0E8
:101BC400040F1CBF4FF400738B60342303FB0877AE
:101BD400BB68C4F80433DEE6D4F8241100293FF4CA
:101BE4006EAF4FF492712046FFF788FD4FF4827375
:101BF4002262626162E700BF3406002002029C0197
:101C040000020400F0B587B004460F4615460021D3
:101C1400142201A81E4600F0BDFE9DF830308DF858
:101C24000570002B14BF2022002201A92046029631
:101C34000495FFF7A5FE07B0F0BDF0B587B00446E4
:101C44000F4615460021142201A81E4600F0A2FEEC
:101C54000123002201A920468DF804308DF8057077
:101C640002960495FFF78CFE07B0F0BD00234350A5
:101C740082B043580193019B02B070470A4610B5E5
:101C84004FF48E71FFF7F2FF136A9168C95C136A0F
:101C940001331362C0F81C1510BD8B690A4610B5D8
:101CA4004FF4847123B9FFF7E1FFD0F8183510BD64
:101CB400FFF7DCFF536AD168D0F81805C854536A9B
:101CC40001335362F3E700001FB501238DF80030A0
:101CD400044BCDE90110D3E900126846904705B0E2
:101CE4005DF804FB6806002030B54B48D0F8043397
:101CF40013F4007F85B005464DD0D0F82431002B75
:101D040049D04FF49271FFF7B1FF4FF40173C0F85B
:101D14000833424B93F829200AB9012242603E4914
:101D240002228DF80020D1F88024C1F88024039287
:101D34009A690292DA6801920022C3E9062268468F
:101D4400D3E9001290473448D0F81C315BB13349D1
:101D54000A6A4B699A420A464AD291F82830002B03
:101D640046D1FFF78BFF2C48D0F844318BB14FF4A8
:101D7400A271FFF77BFF294B93F829200AB10122B6
:101D840002609A692AB10022586AD9689A61FFF7F9
:101D94009BFF05B030BDD5F804335B07D3D5D5F828
:101DA4000831002BCFD01D4C1B482146FFF775FF8F
:101DB400636AA2699A422346C5D1E269E1684AB1DD
:101DC4002369E3600023606AA261E3616362FFF751
:101DD4007BFFB8E794F829200AB901226A600E4A09
:101DE4004FF40170C2F808030022586A9A61EEE7C2
:101DF4004FF48E710848FFF739FF51690029B2D0BA
:101E04000023029191688DF8003001915361684676
:101E1400D2E900139847A6E7002000406806002096
:101E24001F2886BF00F01F00044B4FF0A04300F5AD
:101E3400E070022243F82020704700BF00030050E6
:101E44002DE9F843634B057991462C2202FB0532B8
:101E5400064692F82A200C469846002A40F0B6809E
:101E64005D490068FFF722FC0746002840F0B08077
:101E740021684A1C10D01F2987BF584A01F01F034C
:101E84000B464FF0A0420120984003F5E073C2F8DE
:101E94000805032042F823006068431C0DD01F2866
:101EA4008BBF00F01F0303464C4A4FF0A04203F5DA
:101EB400E0734FF0000C42F823C03368A269C3F802
:101EC400242594F814C0627DBCF1010F4CEA02028F
:101ED400C3F86C25C3F81405C3F80C152BD1A168FD
:101EE400481C0DD01F298BBF01F01F020A463B4836
:101EF4004FF0A04002F5E0724FF0000C40F822C011
:101F0400E068421C13D01F2887BF344A00F01F0C1E
:101F140084464FF0A0424FF0010E0EFA0CFE0CF571
:101F2400E07CC2F808E54FF0030E42F82CE0C3F859
:101F34000805C3F810152C236B4308EB0302C2F801
:101F44000490226948F80320B9F1000F2BD03068BF
:101F5400247F4FF48E71FFF789FE30684FF4A2712D
:101F6400FFF784FE32681E4BC2F80433110B42F3B0
:101F74000732002AA8BF02F160404FEA4413BABFF7
:101F8400184801F00F0400F56140DBB2B4BF0355FB
:101F940080F8003301F01F01012303FA01F1520913
:101FA400114B43F8221033680422C3F800252C2374
:101FB40003FB05830022C3E9062283F829205A6122
:101FC400012283F82A203846BDE8F8830827FAE777
:101FD4001127F8E768060020ED1C000000030050FC
:101FE4008000020014ED00E000E100E02DE9F04182
:101FF40003680479244D0022C3F800252C2202FB37
:102004000452014652686AB1204AC3F8082343F3D4
:102014000732C3F3043652090120B04020321C4E6B
:1020240046F82200D3F80C05D3F81485D3F80865D4
:10203400D3F810754FF0FF329042C3F81425C3F85B
:102044000C25C3F80825C3F8102501D0FFF7E8FED6
:10205400B8F1FF3F02D04046FFF7E2FE7A1C02D0FF
:102064003846FFF7DDFE731C02D03046FFF7D8FE7A
:102074000868FFF737FB2C2303FB0454002384F880
:102084002A306360BDE8F081680600208402020003
:1020940000E100E02DE9F843204B07794FF02C09CB
:1020A40009FB0734054666699846002E33D100685B
:1020B4006261A16026624FF48E7184F82860FFF794
:1020C400D5FD2868012383602146FFF7D7FD6368A7
:1020D400A14683B92868226A63699A4211D32B689E
:1020E400D3F81C21002AFBD00122DA602C2303FB45
:1020F400078300225A613046BDE8F88394F82830FB
:102104003BB9D0F81C31002BF8D04946FFF7B6FD97
:10211400E1E70F26EAE71126EDE700BF6806002095
:102124000023435082B043580193019B02B070478F
:102134001FB501238DF80030044BCDE90110D3E91C
:1021440000126846904705B05DF804FB9406002031
:102154007FB5364AD2F82461002E46D010464FF49B
:102164009271FFF7DDFF02238DF80030D2F880343E
:10217400C2F880340393D2F83C3502932C4BDA68CE
:1021840001920022C3E906226846D3E9001290476F
:102194002648D0F8443173B14FF4A271FFF7C0FF61
:1021A400234B9A693AB10022C3E90622D968D0F8D0
:1021B4003C05FFF7BDFF1D48D0F820319BB14FF41B
:1021C4009071FFF7ADFF1A4B5A6962B1D0F84C1504
:1021D4000291002299688DF8002001915A616846A5
:1021E400D3E90012904704B070BDD2F81031002B2F
:1021F400CED04FF488711046FFF792FF0C4BD2F803
:102204003C0599698842C3D1DC69D96864B1D2F8C4
:10221400005225F02005C2F800521A699C61DA6068
:10222400DE61FFF785FFB3E79C61FAE70020004019
:10223400940600201F2886BF00F01F00044B4FF0B7
:10224400A04300F5E070022243F82020704700BF4D
:10225400000300502DE9F843674B06799146242288
:1022640002FB0632044692F820200D469846002AC6
:1022740040F0BE8061490068FFF718FA074600285D
:1022840040F0B8802868421C10D01F2887BF5C4AE1
:1022940000F01F0303464FF0A0420121994003F5CB
:1022A400E073C2F80815032142F8231069684B1C37
:1022B4000DD01F298BBF01F01F030B46504A4FF06E
:1022C400A04203F5E0734FF0000C42F823C02368EA
:1022D400AA69C3F8242595F814C06A7DBCF1010FDE
:1022E4004CEA0202C3F86C25C3F80C05C3F81415B4
:1022F4002BD1A968481C0DD01F298BBF01F01F02E8
:102304000A463F484FF0A04002F5E0724FF0000C3F
:1023140040F822C0E868421C13D01F2887BF384AFF
:1023240000F01F0C84464FF0A0424FF0010E0EFA4D
:102334000CFE0CF5E07CC2F808E54FF0030E42F801
:102344002CE0C3F80805C3F810152423734308EBE5
:102354000302C2F804902A6948F80320B9F1000F77
:1023640035D020682A7F4FF48871FFF7D9FE2068A2
:102374004FF49071FFF7D4FE20684FF49271FFF789
:10238400CFFE20684FF4A271FFF7CAFE23681D49EF
:10239400C3F80413190B43F30733002BAEBF03F147
:1023A400604001F00F0518484FEA4212A8BF00F53B
:1023B4006140D2B2B4BF425580F8002301F01F013E
:1023C400012202FA01F15B09104A42F82310236842
:1023D4000822C3F80025242303FB06830022C3E953
:1023E40006225A61012283F820203846BDE8F8838A
:1023F4000827FAE71127F8E7940600205521000082
:10240400000300501003020014ED00E000E100E0BE
:102414002DE9F04103680479244D0022C3F8002516
:10242400242202FB0452014652686AB1204AC3F8CE
:10243400082343F30732C3F3043652090120B040A2
:1024440020321C4E46F82200D3F80C05D3F814852C
:10245400D3F80865D3F810754FF0FF329042C3F8F3
:102464000C25C3F81425C3F80825C3F8102501D09A
:10247400FFF7E0FEB8F1FF3F02D04046FFF7DAFE77
:102484007A1C02D03846FFF7D5FE731C02D03046C2
:10249400FFF7D0FE0868FFF725F9242303FB045453
:1024A400002384F820306360BDE8F08194060020A6
:1024B4001003020000E100E001F06043B3F1005FAB
:1024C4002DE9F041064632D11B4B0779242505FB43
:1024D400073598466C6964BB6A610068A9604FF46B
:1024E4009071FFF71DFE4FF4AC713068FFF718FED2
:1024F40033686A69A968C3F84415C3F848250122FA
:102504009A606A6862B9D3F82021D3F8584152B965
:10251400002CF8D00F24242303FB078700237B61BE
:102524002046BDE8F081002C18BF0F24F3E71024E7
:10253400F6E71124F4E700BF9406002008B50378F9
:102544008BB90379012B0BD1074B08480849C01AF2
:10255400C008084B00041A7840F00300FEF798FA0C
:10256400054B01221A7008BD602A0000802A000071
:102574001A2C0000B8060020B90600201FB501235C
:10258400ADF80C30002300931048022303AA48211D
:10259400FFF738FB08B1FEF7DDFB0D4A144613784C
:1025A400002BFCD0002313708DF80C3000930748E7
:1025B400012303AA4821FFF725FB08B1FEF7CAFB54
:1025C4002378002BFCD004B010BD00BF6C2C00009D
:1025D400B90600201FB51B211A22CDE900124FF0C5
:1025E400CC720292022200238DF80C200848094A7A
:1025F400ADF80D3069468DF80F30FEF75FFF08B176
:10260400FEF7A8FB0448FFF7ABF905B05DF804FB3F
:10261400682C0000412500006C2C00000021F8B556
:102624000846FEF77FF808B1FEF794FBFDF7B4FF08
:102634001848194B1949C01AC008000440F0030097
:10264400FEF722FAFEF7C8F80028FBD1FFF7C2FF15
:10265400134C144E144FFFF791FF44F001044FF450
:10266400FA754FF47A40A047013DFAD120BF337880
:10267400002BFBD0002333700C4801233A46482139
:10268400FFF7DBFA08B1FEF765FBFEF7A5F80028B3
:10269400FBD1E4E7802A0000602A00003B2C000004
:1026A400602C0000B9060020B80600206C2C000045
:1026B400054B1B68082B01BF044B1868B0FA80F067
:1026C400400918BF00207047300100103401001089
:1026D40008B54FF080430022C3F80C21C3F8102141
:1026E400C3F838254FF0805203F54043D2F8041460
:1026F400C3F82015D2F80814C3F82415D2F80C1422
:10270400C3F82815D2F81014C3F82C15D2F81414F1
:10271400C3F83015D2F81814C3F83415D2F81C14C1
:10272400C3F84015D2F82014C3F84415D2F8241481
:10273400C3F84815D2F82814C3F84C15D2F82C1451
:10274400C3F85015D2F83014C3F85415D2F8341421
:10275400C3F86015D2F83814C3F86415D2F83C14E1
:10276400C3F86815D2F84014C3F86C15D2F84424A1
:10277400C3F87025FFF79CFF10B1384B384A1A6034
:10278400FFF796FF18B1374BFB22C3F81825FFF764
:102794008FFF48B13449354B0A681B6822F00F0299
:1027A40003F00F0313430B60FFF782FF18B1304BA4
:1027B4004FF400721A604FF08043D3F80024D2071C
:1027C40044BF6FF00102C3F800242A4AD2F88830CB
:1027D40043F47003C2F88830BFF34F8FBFF36F8F99
:1027E4004FF01023D3F80022002A03DBD3F804327D
:1027F400002B2FDA204B0122C3F80425D3F8002440
:10280400002AFBD04FF010221221C2F80012D3F894
:102814000024002AFBD04FF010231222C3F8042214
:10282400154B1A46D3F800140029FBD00021C3F835
:102834000415D2F80034002BFBD0BFF34F8F0D49A1
:102844000E4BCA6802F4E0621343CB60BFF34F8FB0
:1028540000BFFDE70A4B0B4A1A6008BD8C560040C6
:102864004881030000F00040E40E004058020010CC
:102874004096024000ED00E000E001400400FA054B
:102884001C0000200090D0037F2805D8034B185C5F
:10289400034B5B5C1840704700207047842C000099
:1028A400042D0000A0F16103192B98BF2038704754
:1028B400A0F14103192B98BF203070477F2805D819
:1028C400034B185C034B5B5C184070470020704757
:1028D400842C0000042D0000A0F16103192B98BF83
:1028E40020387047A0F14103192B98BF203070475E
:1028F4007F299ABF017001206FF02E0070475AB1F2
:102904000A787F2A0AD800B1026000211960596050
:10291400501A18BF01207047002070476FF02E0036
:102924007047000008B5034B5B689B681B689847B9
:1029340008BD00BF2000002008B50921FFF7F2FF01
:1029440008BD844640EA010313F0030F18D18446FE
:10295400202A0BD32DE9F007B1E8F807A0E8F8071F
:10296400A2F12002202AF7D2BDE8F007042A07D3F7
:1029740051F8043B40F8043BA2F10402042AF7D2C4
:10298400002A05D011F8013B00F8013B013AF9D1C6
:10299400604670478446002A2DD010F0030F04D0FF
:1029A40000F8011B013A26D0F7E7C9B241EA012138
:1029B40041EA0141202A12D3A2F120022DE9F003B9
:1029C4000B460C460D460E460F4688468946A0E83F
:1029D400FA03203AFBD2BDE8F00320320BD0042ADC
:1029E40005D340F8041B043A05D0042AF9D200F8B0
:1029F400011B013AFBD16046704700F1010110F060
:102A0400030F11D010F8012B002A23D010F0030F6C
:102A14000AD010F8012B002A1CD010F0030F03D0A9
:102A240010F8012B002A15D02DE970004FF0013267
:102A34004FF0803350F8044BA4EB020525EA04055B
:102A44001D4000D1F6E7A0F1040070BC10F8012B82
:0A2A5400002AFBD1A0EB010070473F
:102A6000062C0000000000000A2C000000000000FE
:102A70000F2C000000000000142C000000000000DB
:082A8000FA2A00000000030324
:102A8800CC2A000000000000D82A00001400002012
:102A9800780000204001002048010020800000202C
:042AA8001800000012
:102AAC00FFFFFFFFFFFFFFFFFFFFFFFFFFFFFFFF2A
:102ABC0000000000000000000000D601060100002C
:102ACC000505000069050000A5040000756172741D
:102ADC005F6C6F675F6261636B656E64004261631C
:102AEC006B656E647320666C7573686564006170E9
:102AFC00700000006C0500207F000000EC05002039
:102B0C001B5B306D002573001B5B313B33316D005B
:102B1C0025734C6F67732064726F70706564202826
:102B2C0025642925730D0A003C25733E2025733A34
:102B3C002000202530327800202020007C002563E6
:102B4C00001B5B313B33306D001B5B313B33326D13
:102B5C00001B5B313B33336D001B5B313B33346DFE
:102B6C00001B5B313B33356D001B5B313B33366DEA
:102B7C00001B5B313B33376D007761726E696E679A
:102B8C0000696E666F006465627567000C2B00004F
:102B9C004D2B0000142B0000552B00005D2B00006A
:102BAC00652B00006D2B0000752B00007D2B0000A9
:102BBC0000000000D62B0000852B00008D2B0000A0
:102BCC00922B0000466174616C206572726F72000A
:102BDC0053797374656D207265736574003031328E
:102BEC0033343536373839414243444546000000CA
:102BFC00000000000338FDD8704750525300545762
:102C0C00494D0055415254005541525445005465AC
:102C1C006D70657261747572653A20256420436528
:102C2C006C7369757320646567726565732E000D2E
:102C3C000A5457492073656E736F72206578616D05
:102C4C00706C6520737461727465642E00000000F2
:102C5C00000000000338FDD87047000000000000A1
:102C6C0000300040000000000100000043000000A4
:102C7C00504F5349580000002020202020202020B5
:102C8C0020682828282820202020202020202020D0
:102C9C002020202020202020481010101010101070
:102CAC001010101010101010848484848484848478
:102CBC008484101010101010108181818181810189
:102CCC0001010101010101010101010101010101E8
:102CDC000101011010101010108282828282820277
:102CEC0002020202020202020202020202020202B8
:102CFC00020202101010102000070320041702011A
:102D0C000857104080000000782C00007C2D00003B
:102D1C00902E000053756E004D6F6E00547565005B
:102D2C0057656400546875004672690053617400FD
:102D3C00000000004A616E00466562004D61720041
:102D4C00417072004D6179004A756E004A756C00D5
:102D5C0041756700536570004F6374004E6F7600C9
:102D6C004465630000000000414D00504D00000020
:102D7C00B42E0000B02E0000B02E0000B02E0000CB
:102D8C00B02E0000B02E0000B02E0000B02E0000BF
:102D9C00B02E0000B02E0000FFFFFFFFFFFFFFFF73
:102DAC00FFFFFFFFFFFF0000F02D0000202D0000B3
:102DBC002C2E0000402D0000742D0000D42D00009E
:102DCC00842E0000E02D0000256D2F25642F257921
:102DDC000000000025612025622025652025542057
:102DEC002559000053756E646179004D6F6E6461F6
:102DFC00790054756573646179005765646E657309
:102E0C006461790054687572736461790046726903
:102E1C00646179005361747572646179000000001B
:102E2C004A616E756172790046656272756172797C
:102E3C00004D6172636800417072696C004D61797C
:102E4C00004A756E65004A756C790041756775733B
:102E5C00740053657074656D626572004F63746FB6
:102E6C00626572004E6F76656D62657200446563D3
:102E7C00656D62657200000025483A254D3A255370
:102E8C00000000008D280000A9280000B5280000D3
:102E9C00C1280000DD280000E9280000F52800000A
:0A2EAC0003290000000000002E00C2
:102EB800000000000020004000000000002000404A
:102EC8000000000000000000FF0000000090D00398
:102ED800142D0000142D0000142D0000142D0000E6
:042EE800142D0000A5
:040000030000037581
:00000001FF
