:020000022000DC
:1060000000000420756302005D6302005F6302000C
:106010006163020063630200656302000000000028
:1060200000000000000000000000000067630200A4
:1060300069630200000000006B6302006D630200F0
:10604000ED8202006F630200A58702006F63020009
:106050006F6302006F630200F98502006F63020044
:106060006F6302006F6302006F6302006F630200E0
:106070006F6302006F6302006F6302006F630200D0
:106080006F6302002D7102006F6302006F630200F4
:10609000C97102006F630200819B02006F630200FE
:1060A0006F6302006F6302006F6302006F630200A0
:1060B0006F6302006F630200000000000000000038
:1060C0006F6302006F6302006F6302006F63020080
:1060D0006F6302006F6302006F6302006F63020070
:1060E0006F6302006F6302006F6302000000000034
:1060F000000000006F630200000000006F630200F8
:10610000000000000000000000000000000000008F
:10611000000000000000000000000000000000007F
:10612000000000000000000000000000000000006F
:10613000000000000000000000000000000000005F
:10614000000000000000000000000000000000004F
:10615000000000000000000000000000000000003F
:10616000000000000000000000000000000000002F
:10617000000000000000000000000000000000001F
:10618000000000000000000000000000000000000F
:1061900000000000000000000000000000000000FF
:1061A00000000000000000000000000000000000EF
:1061B00000000000000000000000000000000000DF
:1061C00000000000000000000000000000000000CF
:1061D00000000000000000000000000000000000BF
:1061E00000000000000000000000000000000000AF
:1061F000000000000000000000000000000000009F
:10620000354936480A1A02D0072291438D4634494F
:1062100034480A1A06D00722914381F309880222E2
:1062200082F3148830483149314A00F044F831484B
:106230003149324A00F03FF831483249324A00F0E1
:106240003AF832483249334A00F035F83248334997
:10625000334A00F030F833483349344A00F02BF821
:1062600033483449344A00F026F83448344900228F
:1062700000F02CF833483449002200F027F8334866
:106280003349091A082902DB002202604160314AC1
:1062900090471F481F49884205D00268043003B464
:1062A000904703BCF7E700208646EC46002000211B
:1062B000294A9047FEE7884207D0521A05D0037852
:1062C00001300B700131013AF9D17047884202D098
:1062D00002700130FAE770470000042000E003205C
:1062E0000000042000000420FCAC0200582D002017
:1062F000B42D0020D4630200D4630200BAA00200CF
:10630000FCAC0200582D0020582D002058A102009E
:1063100058A1020058A1020058A1020058A1020091
:1063200058A1020058A1020058A10200FAAC0200D4
:1063300058AD0200B42D0020B42D0020B42D002053
:10634000B7360020B8360020B8360020B836002016
:10635000B85600209D63020091940200FEE7FEE71C
:10636000FEE7FEE7FEE7FEE7FEE7FEE7FEE7FEE705
:10637000704700BF1048804710484FF0070188431E
:1063800085460F4880470F48016841F4700101605D
:10639000BFF34F8FBFF36F8FFFF732BF0A480B4930
:1063A0000B4A884207D0521A05D0037801300B708F
:1063B0000131013AF9D170477163020000000420F5
:1063C000997D020088ED00E058A10200582D0020C0
:0463D000582D002024
:1063D400F0B595B01D46164608460C4601F01CFC67
:1063E4001A9B0D93CDE9086500252B46082205A9C3
:1063F40020460A958DF82C500C9501F02AFC079B39
:106404000293069B03939DF814308DF8115003F00A
:106414000302012A1DD1BDF81420059DC3F3C20354
:10642400C2F383168DF81030B20008230EA920465B
:1064340001F00FFCC5F3952508AB0093324602AB7F
:106444000EA9284600F0D8FB204601F0E9FB15B060
:10645400F0BD022AF8D1BDF81650C3F3C203C5F348
:1064640089158DF810300827082D2E4628BF0826D8
:106474003B4632460EA9204601F0EBFBAD1B08ABB0
:1064840002AA31460EA8374400F01AFC002DEBD1C5
:10649400DAE70000014B01221A707047F52D002045
:1064A4007047000070B5124D06460FCD88B06C469B
:1064B4000FC495E80F00002E84E80F004FF0FF335F
:1064C4004FF00602CDE90023CDE90233094A0A4818
:1064D4004FF0EB7308BF00226946069301F09CFE5F
:1064E40008B100F073FD054B1E7008B070BD00BF0D
:1064F40058A1020099640200582D0020B42D0020F8
:1065040007B5044B0093044A4023FFF761FF03B02F
:106514005DF804FB21650200B52D002038B50D4B54
:106524000D4D002018700D4804782D5DD2B21C4624
:1065340065B1043002F08EFD08B100F047FD084B50
:106544001A7812B12378002BFBD038BD0C3002F03E
:106554006FFBF1E7F52D002028350020582D002091
:10656400B42D002008B50848084A0378D35C3BB131
:10657400043002F01BFDBDE808400020FFF792BF85
:106584000C3002F001FBF6E7582D002028350020DE
:106594000120FFF787BF000008B5FFF7F9FF0448A3
:1065A400042100F091FA034B01225A7108BD00BF87
:1065B40048A102006C2D0020037813F0040216D0C9
:1065C40003F00303012B03D0022B09D001207047F1
:1065D4000A6800880232C0F3831002440A60F5E7B7
:1065E4000B684288023303EB92130B60EEE710460C
:1065F400704700002DE9F04F87B000230446861C45
:106604000DF107000F4615468DF8073000F0D2FF54
:10661400454801683960D0E90132134401335B1AFB
:10662400824600F21C4700F5836900F21448B34225
:106634001CD30020002D73D004F00F039B0143F002
:10664400050363F30F00DAF80020DAF8083013408A
:10665400033316444AF823009DF80700CAF8006083
:1066640000F0CCFF012007B0BDE8F08F01213846CF
:1066740000F0FDFF484601F012F8404601F00FF823
:10668400DAF80400DAF808B0029000EA0B000330EC
:106694000AEB800002A9FFF78FFF029B50BB0BEAB5
:1066A40003020AEB820203F1020CD2680392013363
:1066B40003EA0B0B0AEB8B0B02F00302012ADBF853
:1066C4000C10CDF808C023D0022A16D083464046C9
:1066D40000F0E8FF10B1029BCAF80430594638466E
:1066E40000F0C5FFDAE901231344DAF8002001338E
:1066F4009B1A9CE70BEA0300C9E7BDF80E30C3F30D
:10670400891303334FEA114B0CEB93030293DEE737
:10671400BDF80C30C3F383134FEA114B6344F5E720
:10672400A40544F006008EE7C82E00200B4B0C484D
:10673400FF2210B59A600022C3F81824C3E900228E
:10674400C3F8142483F8202401F01FFA044610B976
:10675400044801F0C7FA204610BD00BFC82E00202F
:10676400DCA00200ACA1020030B50A4C71B10A4AA7
:106774000A49121BD20800239A4201D1002030BDDD
:1067840031F82350854202D00133F5E7034654F82B
:106794003300F4E7F0A0020048A10200582D0020C5
:1067A400094B013903EBC000032909D8DFE801F0E4
:1067B4000A02040604207047007970474079704744
:1067C4000020704702207047F0A00200034BD3E979
:1067D4000030C31A58425841704700BFC82E0020E9
:1067E4002DE9F04387B0FFF7F1FF0646002840F09B
:1067F400F9807D4DC5F81804BFF34F8F6B68AC6802
:1068040002932340033305EB830002A9FFF7D4FE70
:10681400029B18B1D5F81824002A5FD004EA0302B9
:10682400991C013305EB8202234005EB8303D268F4
:10683400DB68049302F00303022B0392029160D1FC
:10684400BDF80E306948C3F38917502FB84628BFE6
:106854004FF0500868F38F1308F10801ADF80E30BB
:1068640001F0ABF90646002800F0A78001F0D4F946
:106874000023082203A9304601F0E1F9029924EA31
:1068840001020132B8EB820F4FEA820332D95FFA78
:1068940088F85BB32140DCB2A8EB040803315FFA4B
:1068A40088F9A046524C05EB810108234246304644
:1068B40001F0C5F934B108F108034A4621463046CF
:1068C40001F0BDF9029B033703EB97070297D5F854
:1068D4001834002B49D1D5F8104459E02A689A425B
:1068E4008FD86A60304607B0BDE8F08340491C4643
:1068F4009946DAE70C40E11C0823424605EB810186
:10690400DDE7012B59D1BDF80C303848C3F38311AE
:10691400062928BF062161F3891302318900ADF8E5
:106924000C3001F04AF90646002846D001F074F90B
:106934000023082203A9304601F081F90027BDF89D
:106944000C20C2F38312BB00974203F10803BED2AA
:1069540002994A1C21400331029205EB8101042271
:10696400304601F06CF90137E9E7304601F058F997
:10697400FFF72CFF80F00100C6B2B3E7E3685B7950
:1069840023B1236831461B6820469847E3681C6896
:10699400002CF3D1304601F043F90DF107008DF8D6
:1069A400074000F007FED5F818340BB9029B6B6062
:1069B4009DF8070000F022FEDAE7D5F8104454B938
:1069C4000C4B0D480D49C01AC008000440F00200E9
:1069D40000F062F8CCE7236820469B689847E36898
:1069E4001C68ECE700267DE7C82E0020DCA002002E
:1069F400D42E0020F0A0020018A1020095A10200EC
:106A04002DE9F74F224D04460F46924601A9012273
:106A14001846D5F808909B46FFF7ECFD20B3019E7D
:106A24004FF00008B21CD84508EB020126D11948E2
:106A3400002100F0F9FD80F31000000440EA144046
:106A4400E400731C04F0380403EA090306EA0906A7
:106A540044F0010405EB8303033644EA881444EA52
:106A64008724D86045F8264095F820341BB1FFF7F9
:106A7400B7FE0028FBD103B0BDE8F08F09EA01019D
:106A840005EB81015AF82830CB6008F10108CAE708
:106A9400C82E0020E432002000231A46FFF7B0BFBE
:106AA40007B50123019201AAFFF7AAFF03B05DF81D
:106AB40004FB07B5CDE9002302236A46FFF7A0FFD4
:106AC40003B05DF804FB000030B50F49D1F8102481
:106AD40003460020144634B9DC6820714AB9C1F871
:106AE4001034226030BDE4682579854206D02468DC
:106AF400F1E7D268116821601360F3E701300A28D6
:106B0400E8D14FF0FF30EDE7C82E0020094A38B530
:106B14000123D2F8104482F820341D4604B938BD4C
:106B2400E3685D71236820465B689847E3681C68E6
:106B3400F4E700BFC82E002007B503460846197ABB
:106B4400052911D05B7A2BB1094A0A49019000F05A
:106B54000CFE01980849019000F007FE019803B06B
:106B64005DF804EB00F0F6BD002AF8D0F2E700BFB0
:106B7400B8A10200BDA10200DDA1020030B5C388A6
:106B840085B004460D4633B1144A00921449154A9F
:106B9400284600F0EAFD217A05291DD0637A4BB11D
:106BA400A088FFF7FDFD104B104953F8202028461C
:106BB40000F0DBFD227A0E4BA08853F822200392CA
:106BC4000021FFF7D1FD039A0A490346284605B080
:106BD400BDE8304000F0C9BD05B030BDB8A1020029
:106BE400C8A10200C0A1020044A20200BDA102008B
:106BF40068A20200E0A102002DE9F04385B01F461F
:106C04000C9D002395F80C902B7306460C46904679
:106C140029463846FFF7B2FFB8F1060F09D8DFE876
:106C240008F00412181F283340003146284600F0AB
:106C34009CFD002229463846FFF77EFF85F80C901C
:106C440005B0BDE8F08322683146284600F08DFD8A
:106C5400EFE7D4E900233146284600F086FDE8E753
:106C6400A36800933146D4E90023284600F07DFD53
:106C7400DFE7E3680193A36800933146D4E9002376
:106C8400284600F072FDD4E723690293E368019378
:106C9400A36800933146D4E90023284600F065FD3B
:106CA400C7E76369039323690293E3680193A368C5
:106CB40000933146D4E90023284600F056FDB8E796
:106CC40008292DE9F74F80460E4617461C463CD846
:106CD400002593F80C901D7319461046FFF74EFFDC
:106CE400DFF888A0DFF888B0AE4231D918F8052063
:106CF4005946204600F039FD0135082DF4D11949D3
:106D0400194DDFF870A0204600F02FFD4FF0000B66
:106D14005E4522D918F80B207E2A05D81046019228
:106D240003F038F9019A00B92E225146204600F0AA
:106D34001CFD0BF1010BBBF1080FE9D10122214627
:106D44003846FFF7F9FE84F80C9003B0BDE8F08FE5
:106D54005146204600F009FDCEE72946204600F0C2
:106D640004FDE6E7F4A10200F2A10200F0A1020092
:106D7400EAA10200F6A102002DE9F04F364E87B0D9
:106D84004FF00009354B1B785FFA89F5AB4202D806
:106D940007B0BDE8F08F324BD3F800A01AF83500E5
:106DA4000124D6E9001EA0F12002C0F1200304FA58
:106DB40002F224FA03F3134304FA00FC059301EAF4
:106DC4000C030093059B0EEA03030193DDE9002302
:106DD40013430AEBC50B3BD0059B21EA0C012EEAB9
:106DE4000303C6E9001301F0F7FB01461AF8350066
:106DF4001C4DA0F12002C0F1200304FA02F224FA8F
:106E040003F31343D5E900C28440134004EA0C049D
:106E14000393A0F12002C0F1200321FA03F30294AA
:106E240001FA02F848EA0308DDE9023401FA00F73E
:106E3400444508BFBB420BD1DBF8043043B19BF897
:106E44000120541E62426241551A694269419847C1
:106E540009F1010996E700BFB8330020843300200C
:106E6400C0330020B0330020F8B506461E4800F0B9
:106E740091FBC0BB0125A6F12004C6F1200325FA2D
:106E840003F305FA04F41C43184BD3E900C2B540DC
:106E94000CEA050002EA040101431F461DD13046F5
:106EA40001F09AFB124BD3E9001288B12943224323
:106EB400C3E90012D7E900231C430E4B0A481968A2
:106EC4001543C7E900540022BDE8F84000F01ABB9E
:106ED40021EA050122EA0402EAE72CEA050522EA8E
:106EE4000404C3E90054F8BD8C330020B8330020F7
:106EF400B033002088330020042A2DE9F3410546ED
:106F04000C46164639D901F097FAD8B11C4B1D49E5
:106F14001D601D4BDFF884801C701C4B00221E601A
:106F24000023C1E900231A49C1E90023013CE4B26A
:106F340000260327FF2C0CD1164A1748002100F025
:106F4400CFFA03E001F040FA0028DFD002B0BDE838
:106F5400F08105EBC40315F834009B788DF80660C6
:106F6400424601A98DF804708DF8053001F06EFADF
:106F7400013CE4B20028DDD0E8E70720E6E700BFE3
:106F8400C0330020B0330020843300208833002035
:106F9400B83300207D6D02007CA202006D6E0200F9
:106FA40070B5084D084E00242B789C4201D3002074
:106FB40070BD3368012113F8340001F0C3FA0134C1
:106FC400F2E700BF84330020C03300201FB5002146
:106FD400039001AA44F20100CDE9011100F004F884
:106FE40005B05DF804FB000010B572B6FFF78EFD26
:106FF400FFF7F6FB0028FBD1104B114C1149E41AA2
:10700400E408240444F00100FFF746FD0E4B1B681E
:10701400DB0700D500BE0D4944F00200FFF73CFD3C
:10702400BFF34F8F0A490B4BCA6802F4E062134363
:10703400CB60BFF34F8F00BFFDE700BFF0A002009D
:1070440018A1020080A20200F0ED00E08CA2020070
:1070540000ED00E00400FA05094A53789178013301
:10706400DBB2994208BF0023117899421FBF037015
:107074005078182303FB002014BF0430002070470D
:10708400C433002073B5054600240DF107000E46F5
:107094008DF8074000F08EFA0DF10600FFF7DCFFD3
:1070A40090B10670094B9DF8062045605A709DF812
:1070B400070000F0A3FA24B9054B4FF48012C3F87B
:1070C4000021204602B070BD0424F0E7C433002040
:1070D40000E100E0024B4FF43C6043F00103184729
:1070E400A0A2020038B50C4B0C4C4FF40032C3F88C
:1070F400802001254FF48033C4F84833C4F80833A2
:107104006560FFF7E7FF064BA56000241C60FFF7EE
:10711400E1FF044B1C7038BD00E100E000100140A9
:10712400E0340020D1340020F8B51F4B1F491B6800
:107134000025C1F84051C1F84451C1F84851C1F883
:107144004C51C1F80051C1F804514BB3D1F8044576
:1071540017490968641A24F07F442F461A68A2422A
:1071640009D8A41A15441A7CDE691AB1D3E905209A
:107174001F749047AEB90F4A0F4B11781B788B429E
:1071840005D10133DBB2022B08BF00231370127840
:107194000A4B43F822500A4B4FF48012C3F80021E3
:1071A400F8BD3346DAE700BFE434002000100140A4
:1071B400E0340020DD340020DC340020D43400200E
:1071C40000E100E02DE9F04FA24AA34913780978C1
:1071D400A24D994285B03CD00133DBB2022B08BFEB
:1071E400002313709E4912789E4B0F6853F82200B7
:1071F4003B1823F07F4300220B602B68164614468D
:10720400944613B942B12B6006E0196881420ED945
:1072140002B12B60091A196001272B68DFF84CA210
:1072240001934FF00008BEB9DFF848B262E0401A9B
:107234000C44D968D3F81CE0C3F800C031B13A1942
:1072440022F07F42C3E90121DE611E46734601221A
:10725400D7E700263746E0E73446F669804A636894
:107264001268DFF814C2A068991A21F07F416145C1
:1072740000F2A88001442160012222742A680023BC
:10728400C4E90133E361002A40F0A5802C60CAE719
:107294009BF802105A1CD2B291428BF8002004BF12
:1072A40000228BF80020182202FB03B32A68197904
:1072B4009C68022977D0032900F08180012919D123
:1072C400207CB8B9D3E90312A2605A69E2609A69D2
:1072D400654BA2611B78002B0CBF0B460346636011
:1072E400BCE78C4200F094808946C9690029F8D132
:1072F400002323749BF800309BF801209A42C7D1E5
:107304002B68B8F1000F04D1019A9A4201D1002FE1
:1073140043D0002B79D0D3F800A0544D504BD5F86E
:1073240004751C68DFF854813E1B98F8003026F081
:107334007F4603369BB94FF48033C5F84433C5F810
:1073440004334B4B4FF400324FF00109C3F8802152
:107354001A60C5F80090FFF7BDFE88F80090B245AA
:107364002CBF5444A41924F07F44C5F84045D5F8F3
:107374000435DB1B23F07F43E41B033324F07F44F9
:10738400A3420AD9D5F80435C5F84035FFF7A2FE63
:10739400374B4FF40032C3F80021334B00221A70EC
:1073A40005B0BDE8F08F114691469FE71174D2698C
:1073B4000123002AFAD1002B9CD02A609AE70023EB
:1073C4001946F6E7D31A23F07F43834234BFC31A26
:1073D4000023236050E721681368994213D8591A8F
:1073E4001160E26152E7091AD8691A4638B10346B6
:1073F40018688842F7D3401A18601846134621606B
:10740400E061DC610FE71346F2E7FFF76BFEC4E7C8
:107414004C4511D1D3692B6073B9DFF844E00120E6
:10742400CDE90212CAF80800CEF800300E4B1870ED
:10743400FFF750FEDDE902120B68C969C9F81C1098
:1074440011B1086803440B602B68934218BF4FF0D6
:1074540001084DE7DC340020DD340020E434002052
:10746400E0340020D4340020D03400200010014047
:1074740000E100E0C4330020FEFF7F00D13400208F
:1074840008B5FFF72FFE104B00200B2218809A70CE
:107494000E4B18600E4B18700E4B18700E4B4FF4B9
:1074A4008012C021C3F8802183F814131A6002F1FA
:1074B4008042A2F56F22C2F8080583F81113074B26
:1074C400D2F804251A6008BDC4330020E434002037
:1074D400DC340020DD34002000E100E0E034002052
:1074E400074B9B784BB132B128B10368187C20B9A3
:1074F40059745A617047072070470820704700BFCD
:10750400C43300202DE9F743DFF8848098F8023073
:1075140005460E461746ABB3A0B3042930D94369D8
:1075240083B3437C0024012B0DF107000CBF894673
:10753400A1468DF8074000F03DF80DF10600FFF775
:107544008BFDD8B1012303700F4B4560D3F804358C
:10755400C0E90497C0E902369DF8063088F8013086
:107564009DF8070000F04AF824B9084B4FF4801244
:10757400C3F80021204603B0BDE8F0830424EFE7FC
:107584000724F7E70824F5E70010014000E100E0D4
:10759400C4330020064A92783AB130B1426922B12C
:1075A400002202740221FFF76DBD0820704700BF5E
:1075B400C433002070B5EFF3108672B60C4A946899
:1075C40001239CB993600B4B0B4DD3F880102940D9
:1075D4001160C3F88050D3F8841051604FF0FF322B
:1075E400C3F88420047006B962B670BD0370FAE76C
:1075F400E834002000E100E0FC06FFBD084B9A6877
:1076040010B55AB150B9EFF3108172B6054A1C682F
:1076140014605C685460986001B962B610BD00BF24
:10762400E834002000E100E010B5034653E8000F01
:107634000A4643E8002494F0000FF7D110BD10B5BA
:10764400034653E8002F42EA010043E8000494F0A3
:10765400000FF6D110BD10B5034653E8000F00EA41
:10766400010243E8002494F0000FF6D110BD10B5D8
:10767400034653E8002F02EB010043E8000494F0B2
:10768400000FF6D110BD10B5034653E8002FA2EB4E
:10769400010043E8000494F0000FF6D110BD01216D
:1076A400FFF7CDBF0021FFF7D6BF10B590B1D0E9E9
:1076B400012301689B1ADBB20A60013BDBB2FF2B9A
:1076C400026802D10020107110BD11684C1C1460B6
:1076D4000B70F2E70E20F7E737B5054600240DF1ED
:1076E40007008DF80740FFF765FF2A686B6811688B
:1076F40099420ED9481E106011F8014CEB68298A92
:1077040001FB0434AB6811791B1ADBB2994238BF10
:1077140013719DF80700FFF771FF204603B030BDD9
:1077240037B5054600230DF107000C468DF80730E8
:10773400FFF740FF2A681368591C1160E968641A4E
:10774400298AB4FBF1F41C709DF80700FFF756FF7B
:1077540003B030BD826810B504462AB1436901689C
:10776400006998470023A36010BD0EB403B50399C4
:1077740021B104AB01AA019300F076F802B05DF8E0
:1077840004EB03B070470A2938B504460D4602D10C
:107794000D21FFF7F8FFA3682268591CA160D55496
:1077A400D4E901329A4204D32046BDE83840FFF7B9
:1077B400D1BF38BD2DE9F84F9846DDE90A43154697
:1077C40082460F460A464FF00109AA420FD2C1452C
:1077D40038BFC14613F0010B01D16CB90024012656
:1077E400B8F1010F1BD908F1FF386E43F8E709F12E
:1077F4000109B2FBF5F2E8E79B070ED5B8F1000FDB
:107804000CBF30262026A145E9D2013C3146504622
:10781400FFF7B9FF002CF6D1E0E72026F3E7B7FB2A
:10782400F6F39D42E1D9DFF83C80B7FBF6F350460E
:1078340018F8031006FB1377FFF7A5FF3346AB4296
:10784400B6FBF5F6F1D2BBF1000F02D00CB1A145A5
:1078540001D3BDE8F88F20215046013CFFF793FF88
:10786400F4E700BFA6A202002DE9F74F054617462C
:107874008846002900F0428118F8011B49B92B7B86
:10788400002B00F03B81284603B0BDE8F04FFFF722
:1078940061BF252940F0B780002698F800302D2BD1
:1078A400424608F1010823D0302B24D02B2B25D0BD
:1078B40000242A2B02F1010123D13B681A1D1B6805
:1078C4003A601C440A4613782E2B26D101324FF01D
:1078D400000A104610F8011BA1F1300CBCF1090F8D
:1078E4001DD80A2303FB0A13A3F1300A0246F0E76A
:1078F40046F00106D1E746F00206CEE746F004065C
:10790400CBE711F8013CA3F130000928DBD80A22A7
:1079140002FB0434303C0A46CBE74FF0000A12F86D
:10792400011B01F0FB0068289046F8D0782909D89B
:107934006F290CD8632962D022D8252963D058290D
:1079440000F0888098F80030002B95D197E77039C3
:107954000829F7D801A353F821F000BFDB7A02000D
:107964004979020049790200697A020049790200E2
:10797400477A02004979020049790200597A0200E3
:10798400642901D06929DDD13A68D2F80090111D2B
:1079940089EAE9723960A2EBE9724FF0010B092A16
:1079A40035DCD34538BFD3462CB1B9F1000F01DB28
:1079B400720700D5013CB30702D5BAF1000F03D01A
:1079C400F00701D44CBB0024B9F1000F2DDAC9F142
:1079D40000092D212846FFF7D6FE06F00302022AED
:1079E40004D1BAF1000F01D11CBB0024CDE900463B
:1079F40053460A2249462846FFF7DCFEA2E73B68C5
:107A04001A1D19783A602846FFF7BDFE9AE70A2343
:107A14000BF1010BB2FBF3F2C1E7A345D4D2202151
:107A24002846013CFFF7AFFECCE77107D5D52B21E3
:107A3400D0E7A345DAD230212846013CFFF7A3FE64
:107A4400D2E73968CDE900460A1D3A6053460A2256
:107A54000968D0E739680A1D3A60CDE90046534603
:107A64001022F5E73B681A1D3A6016F00106D3F8B8
:107A7400009028D1B9F1000F03D0484602F0EBFA88
:107A84000646B44200D904BB09F1FF3919F8011FB5
:107A940000293FF457AF2846FFF775FEF6E728465E
:107AA4000136FFF770FE19F806100029F7D1A64237
:107AB400BFF448AF002C3FF445AF20212846013CD9
:107AC400FFF761FEF3E70026EDE720212846013C9D
:107AD400FFF759FED5E73B681A1D3A603021284666
:107AE4001C68FFF750FE78212846FFF74CFE002261
:107AF4000823CDE90032214610227CE703B0BDE81B
:107B0400F08F00BF2DE9F84FB0F806A04579D2F800
:107B140000B09DF828900AFB05F5043D88460BEB60
:107B24000301A94203F1040488BFA5EB030BB4FBD2
:107B3400FAF607460AFB1644C2F800B04EB9AAEB9F
:107B440004055D4528BF5D46BBF1000F04D1BDE8C7
:107B5400F88F3F68013EF1E7043408EB06003C442B
:107B64002A46B9F1000F0DD02146ABEB050B02F00C
:107B740016FADA452E443F6855464FF0000428BFF4
:107B84005D46E1E701462046EFE7FFF78EBDF8B515
:107B940046790146721E0546002393422D6803D39D
:107BA4000024A64202D8F8BD0133F6E70F68284640
:107BB400FFF7B6FD01343946F3E72DE9F843068AA9
:107BC400CD1C0746FFF788FD043E35440446B5FB4B
:107BD400F6F5F0B14FF48073EDB28380C680013DB9
:107BE400076081464FF00008A84512D23846FFF7D7
:107BF40073FD064648B163790133637108F10108E6
:107C0400C9F8000007608146EEE72046FFF7BFFF92
:107C140034462046BDE8F88301210430FFF727BD30
:107C240010B5012104460430FFF72DFD10F0FF0FBD
:107C340004D12046BDE81040FFF7A9BF10BD1FB511
:107C440003920022009203AAFFF75CFF05B05DF8DF
:107C540004FB1FB503920122009203AAFFF752FF0F
:107C640005B05DF804FB41DF70470000064B10B51A
:107C740000241C70054B1C60BFF35F8F044905484A
:107C840000F039F8204610BDFC34002000350020F7
:107C9400C0A20200F434002007B500230DF1070050
:107CA4008DF80730FFF786FCF1EE103A23F09F03BE
:107CB400E1EE103ABFF35F8F094B4022C3F88421F1
:107CC4009DF80700FFF79AFC01F03EFF20B1FFF793
:107CD400CAFF03B05DF804FB20BF40BF20BFF8E734
:107CE40000E100E0836800225A60C3E904229A603C
:107CF400DA601A6070470B684A684360934208BFB1
:107D04000023016008BF43607047436843B10268C1
:107D1400916852680B449342436004BF002343605C
:107D24007047000010B50D49A1F59472914201D835
:107D340000200FE08C1AE30F03EBE4035B1002EB6B
:107D4400C30452F83330834205D802D204F1080246
:107D5400ECE7606810BD2146E8E700BFC4A7020055
:107D640008B5FFF7DFFF024B002808BF184608BD1F
:107D740086A60200054B1B68082B01BF044B18683C
:107D8400B0FA80F0400918BF00207047300100109D
:107D94003401001008B54FF080430022C3F80C21D1
:107DA400C3F81021C3F838254FF0805203F540433F
:107DB400D2F80414C3F82015D2F80814C3F8241513
:107DC400D2F80C14C3F82815D2F81014C3F82C15E3
:107DD400D2F81414C3F83015D2F81814C3F83415B3
:107DE400D2F81C14C3F84015D2F82014C3F8441573
:107DF400D2F82414C3F84815D2F82814C3F84C1543
:107E0400D2F82C14C3F85015D2F83014C3F8541512
:107E1400D2F83414C3F86015D2F83814C3F86415D2
:107E2400D2F83C14C3F86815D2F84014C3F86C15A2
:107E3400D2F84424C3F87025FFF79CFF10B1384BE7
:107E4400384A1A60FFF796FF18B1374BFB22C3F884
:107E54001825FFF78FFF48B13449354B0A681B6872
:107E640022F00F0203F00F0313430B60FFF782FFAE
:107E740018B1304B4FF400721A604FF08043D3F8BE
:107E84000024D20744BF6FF00102C3F800242A4A39
:107E9400D2F8883043F47003C2F88830BFF34F8FB0
:107EA400BFF36F8F4FF01023D3F80022002A03DBB7
:107EB400D3F80432002B2FDA204B0122C3F8042517
:107EC400D3F80024002AFBD04FF010221221C2F86C
:107ED4000012D3F80024002AFBD04FF01023122202
:107EE400C3F80422154B1A46D3F800140029FBD01A
:107EF4000021C3F80415D2F80034002BFBD0BFF3E3
:107F04004F8F0D490E4BCA6802F4E0621343CB60F5
:107F1400BFF34F8F00BFFDE70A4B0B4A1A6008BD41
:107F24008C5600404881030000F00040E40E0040FD
:107F3400580200104096024000ED00E000E00140CD
:107F44000400FA05742D00200090D003074B1B5C3D
:107F54001F2B8ABF064A4FF0A04203F01F03D2F83A
:107F64000405D840C04300F001007047C4A70200D4
:107F740000030050074B1B5C1F2B86BF064903F010
:107F84001F034FF0A041012202FA03F3C1F80C359C
:107F9400704700BFC4A7020000030050074B1B5CDE
:107FA4001F2B86BF064903F01F034FF0A041012297
:107FB40002FA03F3C1F80835704700BFC4A70200F2
:107FC4000003005008B50020FFF7E8FF0120FFF789
:107FD400E5FF0220FFF7E2FFBDE808400320FFF7BA
:107FE400DDBF08B50020FFF7C5FF0120FFF7C2FF82
:107FF4000220FFF7BFFFBDE808400320FFF7BABF28
:108004000A4B185C1F288ABF094B4FF0A04300F0AD
:108014001F00D3F804250121814021EA02000A400F
:10802400C3F80805C3F80C25704700BFC4A70200B5
:10803400000300500B2809D00C2809D0182809D0B7
:1080440019280CBF03204FF0FF3070470020704701
:108054000120704702207047C20710B504460CD5B2
:108064004FF0A0430322C3F83427C3F83827C3F8DA
:108074003C27C3F84027FFF7A5FFA3070AD54FF015
:10808400A0430C22C3F82C27C3F83027C3F8602779
:10809400C3F8642710BD000038B5074C051E04F171
:1080A400080318BF1C4623682BB11A6822605B685A
:1080B40028469847F7E738BD0C35002020B9054B12
:1080C40001225A70FFF7E8BF012802D1014A9070DB
:1080D400F8E770470435002020B9034B01225A7099
:1080E400FFF7DABF704700BF0435002038B50B4CEA
:1080F400237883B90A486360A3602361E36000F0D6
:10810400C9F8054601F020FD08B900F0CFF80123B5
:108114002370284638BD8525FBE700BF04350020C1
:10812400C180020037B50B4C00230DF107008DF818
:108134000730FFF73FFAE368013BE360E56815B9F0
:1081440000F0C6F8A5709DF80700FFF757FA03B0D2
:1081540030BD00BF04350020012813B508D0032822
:108164001CD018B9104B0122C3F8802002B010BDF6
:108174000E4C00230DF107008DF80730FFF71AFAB3
:1081840023780BB9FFF7B2FFE3689DF807000133CA
:10819400E3600123A370FFF731FAE7E700F086F804
:1081A400FFF7C0FFE2E700BF00E100E00435002074
:1081B4001FB503788DF800304368019383688DF808
:1081C4000830C368054A0393054B684653F82130C9
:1081D40052F82110984705B05DF804FB18350020CB
:1081E400203500201FB503788DF8003043680193D3
:1081F40083688DF80830C368054A0393054B6846C5
:1082040053F8213052F82110984705B05DF804FB6B
:108214001835002020350020F0B5194B90F800C027
:10822400DFF86CE043F82C20164B16460A6943F835
:108234002C204B7F0EF80C300C4607460FCC89B02F
:108244006D460FC594E80F0085E80F001EF80C304A
:10825400CDF810C04BB1002E0B4A694608BF324618
:10826400381D00F0C5FD09B0F0BD002E074A69466F
:1082740008BF324607F10C0000F0B0FBF3E700BF83
:108284002035002018350020B5810200E981020064
:1082940028350020044A137923B901211060918004
:1082A40018467047852070472C350020074B1A6804
:1082B400D2075FBFC02283F8002301221A604FF067
:1082C40080430122C3F81825704700BF00E100E095
:1082D400044B01221A604FF08042D2F81834DB03B9
:1082E400FBD470470C000040154B07B51A687AB1EF
:1082F40000221A601B680093009B4FF08043012208
:10830400C3F808230F4B587910B95A711B68984762
:108314000D4B1A6882B100221A601B680193019BFD
:108324004FF080430222C3F80823064B1B68012048
:1083340003B05DF804EB184703B05DF804FB00BF1D
:10834400000100402C3500200401004000F1804071
:1083540000F5C040002382B0036003680193019BD1
:1083640002B0704703681F2B83BF03F01F03036031
:1083740001484FF0A04070470003005007B501903A
:1083840001A8FFF7EFFF019B00EB8300D0F8003753
:1083940023F44033C0F80037D0F8003743EA0141F2
:1083A400C0F8001703B05DF804FB0000054B4FF064
:1083B400FF32072843F8202084BFC01880F85820D3
:1083C400704700BF3435002010B5174C94F86A305C
:1083D40043BB04F130033021FF22013911F0FF01C6
:1083E40003F8012BF9D1C8B2FFF7E0FF01310C29E2
:1083F400F9D1062200210D4801F0FAFD0C4BC022F0
:1084040083F8062340221A604FF4BE70FFF79EFFE4
:10841400084B4FF00042C3F80423012384F86A3068
:10842400002010BD0820FCE73435002098350020DA
:1084340000E100E000600040034B93F86A0000385C
:1084440018BF0120704700BF34350020F7B53B4EFC
:108454003318054693F93030002B6CDA8B78C3F36C
:108464004003002B0BBF082400240C200820844266
:1084740002D1042003B0F0BD56F82470013743D173
:10848400701946F8242080F8304013B9331983F862
:1084940058508B785A0717D4D80737D501A80195B7
:1084A400FFF760FF019B00EB8300D0F8003723F057
:1084B4000203C0F800372248EA0805F00707012341
:1084C400BB40875C3B4383548B780A7813F00203E8
:1084D40028D0A40004F1804404F5C0442D02D4F84B
:1084E400103523F44F3323F44073C4F810351204C9
:1084F400D4F8103505F47C5502F4403215431D437D
:10850400C4F810550020B5E70134B0E701A84A7853
:108514000195FFF727FF019B03F5E073920040F8F4
:108524002320C8E7083C344494F8605045EA82129A
:1085340084F86020E6E708209CE700BF343500207B
:108544009835002073B5224C2618054696F930203C
:10855400072A1ADD224492F858309B09032B0FD1C5
:10856400019001A8FFF7FEFE019BD0F81015D94039
:1085740001F0010102312846FFF700FF02B070BD8F
:10858400012B0CBF02210321F5E7D3B2072BF5D849
:10859400930003F1804303F5C043D3F8100540F082
:1085A4000100C3F8100502F14000800080B2FFF71B
:1085B400CDFE0029E2D096F9303054F82330002B58
:1085C400DCD0012303FA02F2024BC3F80423D5E7FB
:1085D400343500200060004007B5019001A8FFF782
:1085E400C1FE019BD0F81005D84000F0010003B093
:1085F4005DF804FB2DE9F04F002489B0CDE9024475
:10860400624D4FF48072012102F1804303F5C043AF
:1086140090B21B68012B06D1D5F804330B4202D06B
:10862400FFF794FE0C430432B2F5907F4FEA410108
:10863400EAD1574B1B68012B0ED14FF4BE70FFF7E4
:1086440085FE4FF0A04344F00044D3F81035029364
:10865400504BD3F81035039314F0FF0F1AD04E4F3C
:1086640000250126344210D0AB0003F1804303F50A
:10867400C043D3F81005D3F8101557F8253023B1AB
:10868400C1F30141C0F3052098470135082D4FEA95
:108694004606E7D1002C75DA04AF002304937B600F
:1086A4004FF0FF33CDE90633DFF8EC90DFF8EC80D0
:1086B4000026354618F9012B531C4AD0C2F3C200D8
:1086C4000123D4B202F03F0B02F0070203FA02F2D4
:1086D40008AB191811F8083C13423AD009EB0B0304
:1086E400A40993F9303059F823A0BAF1000F08D146
:1086F400032C2ED117F800C04CEA020C07F800C076
:1087040001E0032CF6D001A8CDF804B0FFF72AFE4F
:10871400019B11F8181C03F5E07C114250F82C0061
:10872400C0F3014005D0022813D1032C0BD12146FC
:1087340004E003280DD1032C05D102215846FFF78C
:108744001DFE0135EDB2BAF1000F02D021465846A4
:10875400D0470136042EADD1A5B14FF0A043029904
:10876400D3F8102503F540739142D3F8103502D1A4
:108774000399994206D002920393049A059B0692A8
:10878400079393E709B0BDE8F08F00BF0060004095
:108794007C610040000300503435002094350020F3
:1087A400014B1B68184700BFA03500200E4B9842B0
:1087B40037B50C4602D0002003B030BD00230DF1C4
:1087C40007008DF80730FEF7F5FE084B1D7915B943
:1087D40001221C601A719DF80700FEF70FFF002D9F
:1087E400E9D01120E8E700BF00200040A0350020B8
:1087F400034B984201BF034B00221A601A71704761
:1088040000200040A03500200023435082B043588C
:108814000193019B02B070470A4610B54FF48E7164
:10882400FFF7F2FF136A9168C95C136A013313629C
:10883400C0F81C1510BD8B690A4610B54FF484713D
:1088440023B9FFF7E1FFD0F8183510BDFFF7DCFFBF
:10885400536AD168D0F81805C854536A0133536277
:10886400F3E700001FB501238DF80030044BCDE978
:108874000110D3E900126846904705B05DF804FB87
:10888400A835002030B54B48D0F8043313F4007FEA
:1088940085B005464DD0D0F82431002B49D04FF493
:1088A4009271FFF7B1FF4FF40173C0F80833424BE4
:1088B40093F829200AB9012242603E4902228DF828
:1088C4000020D1F88024C1F8802403929A6902928E
:1088D400DA6801920022C3E906226846D3E900124D
:1088E40090473448D0F81C315BB133490A6A4B696C
:1088F4009A420A464AD291F82830002B46D1FFF713
:108904008BFF2C48D0F844318BB14FF4A271FFF7A0
:108914007BFF294B93F829200AB1012202609A694E
:108924002AB10022586AD9689A61FFF79BFF05B003
:1089340030BDD5F804335B07D3D5D5F80831002B07
:10894400CFD01D4C1B482146FFF775FF636AA2690F
:108954009A422346C5D1E269E1684AB12369E360DA
:108964000023606AA261E3616362FFF77BFFB8E7FB
:1089740094F829200AB901226A600E4A4FF4017062
:10898400C2F808030022586A9A61EEE74FF48E7128
:108994000848FFF739FF51690029B2D0002302913A
:1089A40091688DF80030019153616846D2E9001353
:1089B4009847A6E700200040A83500201F2886BF5E
:1089C40000F01F00044B4FF0A04300F5E0700222BA
:1089D40043F82020704700BF000300502DE9F843FE
:1089E400634B057991462C2202FB0532064692F828
:1089F4002A200C469846002A40F0B6805D4900685B
:108A0400FFF7D4FE0746002840F0B08021684A1CD6
:108A140010D01F2987BF584A01F01F030B464FF09F
:108A2400A0420120984003F5E073C2F80805032032
:108A340042F823006068431C0DD01F288BBF00F050
:108A44001F0303464C4A4FF0A04203F5E0734FF076
:108A5400000C42F823C03368A269C3F8242594F8B3
:108A640014C0627DBCF1010F4CEA0202C3F86C250C
:108A7400C3F81405C3F80C152BD1A168481C0DD0FC
:108A84001F298BBF01F01F020A463B484FF0A0404C
:108A940002F5E0724FF0000C40F822C0E068421C7E
:108AA40013D01F2887BF344A00F01F0C84464FF0B0
:108AB400A0424FF0010E0EFA0CFE0CF5E07CC2F859
:108AC40008E54FF0030E42F82CE0C3F80805C3F89C
:108AD40010152C236B4308EB0302C2F8049022699F
:108AE40048F80320B9F1000F2BD03068247F4FF4ED
:108AF4008E71FFF789FE30684FF4A271FFF784FE90
:108B040032681E4BC2F80433110B42F30732002AB9
:108B1400A8BF02F160404FEA4413BABF184801F0FD
:108B24000F0400F56140DBB2B4BF035580F8003395
:108B340001F01F01012303FA01F15209114B43F81B
:108B4400221033680422C3F800252C2303FB058379
:108B54000022C3E9062283F829205A61012283F8FE
:108B64002A203846BDE8F8830827FAE71127F8E7F2
:108B7400A83500208988020000030050800002000C
:108B840014ED00E000E100E02DE9F0410368047910
:108B9400244D0022C3F800252C2202FB0452014676
:108BA40052686AB1204AC3F8082343F30732C3F377
:108BB400043652090120B04020321C4E46F82200EF
:108BC400D3F80C05D3F81485D3F80865D3F81075D9
:108BD4004FF0FF329042C3F81425C3F80C25C3F8B4
:108BE4000825C3F8102501D0FFF7E8FEB8F1FF3FD0
:108BF40002D04046FFF7E2FE7A1C02D03846FFF767
:108C0400DDFE731C02D03046FFF7D8FE0868FFF77C
:108C1400EFFD2C2303FB0454002384F82A30636003
:108C2400BDE8F081A83500208402020000E100E0E4
:108C34002DE9F843204B07794FF02C0909FB073441
:108C4400054666699846002E33D100686261A160CA
:108C540026624FF48E7184F82860FFF7D5FD2868EA
:108C6400012383602146FFF7D7FD6368A14683B9DA
:108C74002868226A63699A4211D32B68D3F81C21AD
:108C8400002AFBD00122DA602C2303FB0783002295
:108C94005A613046BDE8F88394F828303BB9D0F8DF
:108CA4001C31002BF8D04946FFF7B6FDE1E70F264B
:108CB400EAE71126EDE700BFA83500200023435062
:108CC40082B043580193019B02B070471FB5012342
:108CD4008DF80030044BCDE90110D3E90012684649
:108CE400904705B05DF804FBD43500207FB5364AC3
:108CF400D2F82461002E46D010464FF49271FFF74B
:108D0400DDFF02238DF80030D2F88034C2F88034BD
:108D14000393D2F83C3502932C4BDA68019200227B
:108D2400C3E906226846D3E9001290472648D0F8E2
:108D3400443173B14FF4A271FFF7C0FF234B9A691A
:108D44003AB10022C3E90622D968D0F83C05FFF7FE
:108D5400BDFF1D48D0F820319BB14FF49071FFF74F
:108D6400ADFF1A4B5A6962B1D0F84C15029100223A
:108D740099688DF8002001915A616846D3E9001280
:108D8400904704B070BDD2F81031002BCED04FF410
:108D940088711046FFF792FF0C4BD2F83C05996995
:108DA4008842C3D1DC69D96864B1D2F8005225F095
:108DB4002005C2F800521A699C61DA60DE61FFF78F
:108DC40085FFB3E79C61FAE700200040D43500201A
:108DD4001F2886BF00F01F00044B4FF0A04300F58E
:108DE400E070022243F82020704700BF00030050C7
:108DF4002DE9F843674B06799146242202FB06329B
:108E0400044692F820200D469846002A40F0BE8081
:108E140061490068FFF7CAFC0746002840F0B880A3
:108E24002868421C10D01F2887BF5C4A00F01F032B
:108E340003464FF0A0420121994003F5E073C2F8C4
:108E44000815032142F8231069684B1C0DD01F2913
:108E54008BBF01F01F030B46504A4FF0A04203F5AD
:108E6400E0734FF0000C42F823C02368AA69C3F8EA
:108E7400242595F814C06A7DBCF1010F4CEA020266
:108E8400C3F86C25C3F80C05C3F814152BD1A968D5
:108E9400481C0DD01F298BBF01F01F020A463F4812
:108EA4004FF0A04002F5E0724FF0000C40F822C0F1
:108EB400E868421C13D01F2887BF384A00F01F0CF3
:108EC40084464FF0A0424FF0010E0EFA0CFE0CF552
:108ED400E07CC2F808E54FF0030E42F82CE0C3F83A
:108EE4000805C3F810152423734308EB0302C2F8E2
:108EF40004902A6948F80320B9F1000F35D020689E
:108F04002A7F4FF48871FFF7D9FE20684FF49071DF
:108F1400FFF7D4FE20684FF49271FFF7CFFE20686C
:108F24004FF4A271FFF7CAFE23681D49C3F8041366
:108F3400190B43F30733002BAEBF03F1604001F07C
:108F44000F0518484FEA4212A8BF00F56140D2B29B
:108F5400B4BF425580F8002301F01F01012202FA38
:108F640001F15B09104A42F8231023680822C3F870
:108F74000025242303FB06830022C3E906225A6149
:108F8400012283F820203846BDE8F8830827FAE751
:108F94001127F8E7D4350020F18C020000030050BB
:108FA4001003020014ED00E000E100E02DE9F041BF
:108FB40003680479244D0022C3F80025242202FB0F
:108FC4000452014652686AB1204AC3F8082343F3A5
:108FD4000732C3F3043652090120B04020321C4E3C
:108FE40046F82200D3F80C05D3F81485D3F80865A5
:108FF400D3F810754FF0FF329042C3F80C25C3F834
:109004001425C3F80825C3F8102501D0FFF7E0FEA6
:10901400B8F1FF3F02D04046FFF7DAFE7A1C02D0D7
:109024003846FFF7D5FE731C02D03046FFF7D0FE5A
:109034000868FFF7DDFB242303FB0454002384F8B2
:1090440020306360BDE8F081D435002010030200B5
:1090540000E100E001F06043B3F1005F2DE9F0416D
:10906400064632D11B4B0779242505FB0735984664
:109074006C6964BB6A610068A9604FF49071FFF782
:109084001DFE4FF4AC713068FFF718FE33686A694F
:10909400A968C3F84415C3F8482501229A606A6890
:1090A40062B9D3F82021D3F8584152B9002CF8D032
:1090B4000F24242303FB078700237B612046BDE89C
:1090C400F081002C18BF0F24F3E71024F6E71124D5
:1090D400F4E700BFD43500200220FEF791BF000062
:1090E4002DE9F04780460D46FEF7A4FF0328044609
:1090F40010D8012D10D0022D30D05DB91A48FEF7DA
:1091040049FA1A4B04EB440213449E78184B1B5D36
:10911400B34219D0BDE8F087144D00EB4002A91802
:10912400AE5C4A78470052B1DFF84C900E484A468C
:109134004FF40041FEF7E6F908B989F800803B19BD
:109144002B449A780A4B1A55002EE3D0094B1B681E
:10915400002BDFD03046BDE8F047184700EB400451
:10916400024804446678EFE71C3600205C36002091
:109174007536002070360020F83500200078022172
:10918400FFF7AEBF08B5094B1B7853B10020FEF7BB
:1091940005FF0120FEF702FFBDE808400320FEF7AB
:1091A400FDBEBDE80840FEF70DBF00BFF935002045
:1091B400F8B57B4C237805461BB100232370FFF7D9
:1091C400E1FF172D00F28880DFE805F00C17174344
:1091D40054657680888D888D959A9A9A9A9AC4C98E
:1091E400D1D9E4E4FFF7CEFF6E48FEF7D3F96E4B16
:1091F400002204461A702046F8BD0020FEF7A6FEA1
:10920400F8B10020FEF7CAFE022D0CBF4FF4E16155
:109214004FF47A61644B1D704FF400404FF4FA74BC
:109224000025E0FB01454FF47A72002320462946CD
:1092340000F0F0FD00220146BDE8F8405948FEF771
:1092440061B9FEF797FE022D0CBFC8214FF4C87117
:10925400E0E70020FEF77AFE40B10020FEF79EFE14
:109264004FF44871504B03221A70D5E7FEF782FE83
:10927400C821F7E70020FEF769FE38B10020FEF7A9
:109284008DFE4FF47A61484B0422EDE7FEF772FE3F
:109294004FF4C871F7E70020FEF758FE48B10020EC
:1092A400FEF77CFE404B05221A7041F69A1100220B
:1092B400C2E7FEF75FFEF5E70020FEF7A1FE3A4B9A
:1092C40006221A70002240F6CD41B5E70020FEF7D1
:1092D40051FE354B07221A7000248CE701202070C0
:1092E400FEF78EFEEEE701202070FEF789FE0022D5
:1092F4004FF48041A0E7FEF774FE2B4B0C22EAE703
:109304002A482B4EFEF746F9D5F1110504461CD028
:10931400D8B9012D13D0C8235D434FF400474FF44F
:10932400FA7000214FF47A720023C7FB050100F0A4
:1093340071FD224601461D48FEF7E4F8044602206A
:10934400FEF718FE0123337055E70220FEF726FED0
:109354000023F8E7FFF716FF134B1222BBE7FFF7D2
:1093640011FF0020FEF706FE0F4B1322B3E7FFF7B1
:1093740009FF0120FEF7FEFD0B4B1422ABE7FFF7BC
:1093840001FF0020FEF7F6FD0120FEF7F3FD064B7A
:109394001522A0E7FEF725FE034B1D709CE700BFD6
:1093A4006C3600203C36002074360020FC3500204A
:1093B400F9350020044B1B68DB0703D5034B1878F1
:1093C400FFF7F6BE704700BF6836002074360020F1
:1093D400044B1B6813F0010301D0FFF7E9BE1846E4
:1093E400704700BF6836002038B51C4B18601C4B12
:1093F40010F00204054619601AD01A4B1A480E22BE
:109404001A700F22DA7010229A7111225A720421F2
:1094140040F26662FDF770FD044648B9FDF7C0FDF1
:10942400044628B90146114A1148FEF759F8044682
:10943400EB0711D50120FEF70FFE6CB921460D4A4A
:109444000D48FEF74DF8044630B9BDE838400B4AE4
:109454000B480121FEF744B8204638BD6836002089
:10946400703600205C360020ECA7020081910200D7
:1094740010A80200B993020014A80200DD900200B3
:109484000CA8020072DF704773DF704700B54FF419
:10949400004193B00020FDF749F908B1FDF796FDAE
:1094A400FDF77AF8FDF7ECFF08B1FDF78FFD002119
:1094B4000120FFF799FF08B1FDF788FDFEF7D6FB01
:1094C40008B1FDF783FD00F001FB08B1FDF77EFD57
:1094D400002303A90120039300F080FB08B1FDF7EA
:1094E40075FD03A800F02AFC08B1FDF76FFD5923B0
:1094F400284CADF80030284B0293002517233C225A
:10950400002103A8ADF8043000F072FD04231822F2
:10951400294620468DF80F308DF80C50CDF830D008
:1095240000F066FD1D4A65600523237052F8041B94
:109534002575A02303A8A360A58100F0B3F808B1A2
:10954400FDF744FD134A15491548FFF79BFF08B181
:10955400FDF73CFD134B14481449C01AC00800041D
:1095640040F00300FDF798FA0D4B01211878FFF73E
:109574008BFF08B1FDF72AFD0220FFF729FF08B190
:10958400FDF724FDFDF72CF90028FBD1FEF784FB41
:10959400F8E700BF7C360020892D0020782D0020BC
:1095A400882D0020F0A0020018A1020018A80200D3
:1095B4006DDF704779DF70477DDF704764DF704788
:1095C4002DE9F04F85B000250E9CBDF83CB0B4F8F1
:1095D40000A00191074690461E46A9463A884A458E
:1095E4000DDC45B12388013BA3EB0A039BB2FF2B9F
:1095F4003AD806F80A30002005B0BDE8F08F7A6842
:1096040052F82900039000220DF10B0103A8FFF783
:10961400D5FF0028F0D19DF80B20424521D12288A6
:10962400002D14BF0020022002EB0801014459451B
:109634001ADC3DB9013292B2019B2280B3542288D4
:109644000132228022880DF10B01324403A8FFF776
:10965400B5FF0028D0D121889DF80B200A44228030
:10966400012509F10109B9E70C20C5E72DE9F3410A
:10967400089FBDF824801546CDE9007802220446EF
:109684001E46FFF79DFF50B9334610222946204657
:10969400CDE9087802B0BDE8F041FFF791BF02B010
:1096A400BDE8F0812DE9F04F00231788138090F86E
:1096B4002D3085B006460D46144653B3082F01D805
:1096C4000C2027E102A8FFF773FF002840F0228155
:1096D40023880822EA54238801339BB21B22238067
:1096E400EA542088013080B2208006220DF109015D
:1096F400284400F054FC23889DF8082006339BB2CC
:1097040012F0FE0218BF01222380EA542388013399
:109714002380B378FBB123880433BB42D0D802A89A
:10972400FFF748FF002840F0F58023880322EA541D
:10973400238801339BB219222380EA542388BDF87D
:10974400082001339BB2E9182380EA54120A4A70B4
:10975400238802332380F2789AB12388D91CB94232
:10976400AED80221E954238801339BB2012123801E
:10977400E95423880B449BB22380EA5423880B4486
:1097840023807268AAB12388D91CB94298D80221CF
:1097940092F90020E954238801339BB20A212380E3
:1097A400E954238801339BB22380EA54238801338C
:1097B40023803389002B40F0A180338A5BB1CDE94B
:1097C40000472B460722032106F11000FFF74EFF46
:1097D400002840F09F80338B5BB1CDE900472B46D6
:1097E4001522142106F11800FFF740FF002840F06D
:1097F4009180326A002A40F09080D6F82480B8F133
:10980400000F30D0B8F804302188981C8A1C024418
:10981400BA423FF655AFFE283FF652AF03336B54BE
:10982400238801339BB2FF222380EA542388013327
:109834009BB22380B8F80020EA54E918120A4A704F
:109844002088023080B22080B8F804205AB1D8F8B9
:10985400081000296BD0284400F0A1FB2388B8F835
:1098640004201344238096F82C30002B40F09A8077
:10987400307800284ED03388012B58D0228802F14A
:10988400020CBC453FF61CAF012805D173780233A6
:1098940013449F42FFF414AF023FBF1ABFB202A9A0
:1098A40005EB0C00ADF80870FFF786FE90BB31782D
:1098B400BDF80830022900F0BA8072789A4202D3C7
:1098C400BB4240F2B280012940F0B380974293B288
:1098D400C0F0AF80ADF808300821BDF80830FE2B89
:1098E4003FF6EEAE22880133AB542288013292B2A5
:1098F4002280A9542288134423800BE0CDE9004739
:109904002B460622022106F10800FFF7AFFE0028CD
:109914003FF453AF05B0BDE8F08FB4F800C00CF1CC
:109924000603BB423FF6CCAE1188052901D80720B7
:10993400F0E76FF4486E01EB0E039BB24FF27D3EED
:109944007345F4D95388052BF1D96FF4486018187E
:1099540080B27045EBD94FF6FF70814203D0834249
:1099640001D09942E3D8052305F80C30238801334C
:109974009BB212212380E954238801339BB22380B4
:109984001188E954E818090A4170238802339BB20C
:1099940023805288EA54E918120A4A702388023351
:1099A40023802AE7B36A002BC1D04FF000094FF09F
:1099B4000C0A4FF0160B96F82C305FFA89F293429A
:1099C4007FF656AFB16A0AFB02F201EB0208B8F85F
:1099D4000430981CFE283FF673AE208803332B54C2
:1099E400238801339BB2238005F803B02388013315
:1099F4009BB223808A5AEA54E918120A4A702088D2
:109A0400023080B22080B8F804205AB1D8F8081087
:109A140000298CD0284400F0C2FA2388B8F8042026
:109A24001344238009F10109C5E7092155E7BB4225
:109A3400FBD9ADF808704FE710DF704713B5044643
:109A440009496846FEF757F9019808B902B010BDF4
:109A5400D0E900212046904718B16846FEF755F931
:109A6400F2E71120F2E700BF3CA8020013B5044658
:109A740007496846FEF73FF9019B0BB902B010BDD8
:109A84002046D3E9002190476846FEF73EF9F3E704
:109A940054A802000B4991F816335A09EC231341D8
:109AA400DB0706D5084B9A683AB94FF480030B607C
:109AB400704742F20200FDF789BA1A6842F4800244
:109AC4001A60704700E100E0E8340020F7B5194F50
:109AD4003C7864BB184E012520463570FFF7AEFF75
:109AE400112821D02046FFF7C1FF144B8DF8034005
:109AF400186801900DF10300FDF75CFD104901A801
:109B0400FFF79AFF0446B0FA80F0400938709DF8D8
:109B14000300FDF773FD3CB90A4B34701C70FFF76A
:109B2400B9FF2846FFF7A2FF204603B0F0BD082482
:109B3400FAE700BFB4360020B336002038A802008C
:109B4400ED6F0200B5360020014B1878704700BF56
:109B5400B436002007B508496846FEF7CCF8019BE7
:109B640013B903B05DF804FBD3E9002090476846BD
:109B7400FEF7CBF8F3E700BF48A80200FFF7EABFFF
:109B840060DF704769DF704761DF704730B5114BA4
:109B94001B7891B0E3B1104D34240DF1020103A8F8
:109BA400ADF80240FFF7F0FF70B9294601A8FEF7AF
:109BB400A2F8029B002BF0D003A8D3E90021904720
:109BC40001A8FEF7A2F8F4E7052801D0FDF7FEF995
:109BD40011B030BDB636002098AA020030B5054653
:109BE40085B00C46002900F097804C4B0B600C228A
:109BF400002101A800F0FCF901238DF80630226849
:109C04008DF80450062301A92020ADF80830FFF791
:109C1400B9FF60B1FEF7A4F8414B424902464248FD
:109C24001B1ADB081B0443F00100FCF739FF0C226C
:109C3400002101A800F0DCF9002322688DF805302A
:109C440001A94020ADF80630FFF79CFF60B1FEF794
:109C540087F8334B3549024633481B1ADB081B048B
:109C640043F00100FCF71CFF0C22002101A800F0C6
:109C7400BFF9002322688DF8043001A90120FFF701
:109C840081FF60B1FEF76CF8254B2949024626484E
:109C94001B1ADB081B0443F00100FCF701FF0C2234
:109CA400002101A800F0A4F9F8232268019301A976
:109CB400A120FFF767FF60B1FEF752F8184B1D496A
:109CC400024619481B1ADB081B0443F00100FCF789
:109CD400E7FE0C22002101A800F08AF99DF8043067
:109CE40022686FF3000301A9A0208DF80430FFF768
:109CF40049FF034668B1FEF733F8094B0E490246A3
:109D040009481B1ADB081B0443F00100FCF7C8FEDA
:109D14000023184605B030BD0E23FAE7582D002065
:109D240030A1020060A80200F0A00200A6A8020070
:109D3400F2A802003EA902008FA9020073B50546ED
:109D44000668FFF71DFF2B68B34204461DD91A4865
:109D54001A4B1B491B1ADB081B0443F00200019039
:109D6400FCF79AFE2B68174901983246FCF7A1FECE
:109D74004FF080532A68D3F80C31134901989B02A1
:109D840003F100539A1AFCF78BFE2CB90F4B0122F6
:109D94001A70204602B070BD2046FDF7E1FF074B64
:109DA4000B49024604481B1ADB081B0443F001005C
:109DB400FCF776FEEDE700BFF0A0020030A1020040
:109DC400E2A9020011AA020042AA0200B63600204B
:109DD4006CAA02004BDF70471FB50D4C01A8FFF7BA
:109DE400F9FF70B9214602A8FDF785FF039B002BFC
:109DF400F4D00198D3E90021904702A8FDF785FF2C
:109E0400F4E7052801D0FDF7E1F804B010BD00BF68
:109E1400B0AA020053EA020C61D02DE9F04BB3FA68
:109E240083F51E0007BFB2FA82F502FA05F403FABD
:109E340005F41646C5F120051EBF22FA05F73C437A
:109E4400203556EA044C4FEA144418BF0134A346A3
:109E54004FF00009C846904271EB030C39D3094214
:109E640007BFB0FA80F700FA07F6B1FA81F701FAF2
:109E740007F6C7F120071EBF20FA07FC46EA0C06C6
:109E84002037B6FBFBFC7F1B103F07F01F04C4F117
:109E940020060CFA04F42CFA06F644BF34460026D5
:109EA400202FA4BF2646002454EA060C08BF012430
:109EB40018EB040849EB0609A4FB027CC01B06FB53
:109EC40002CC04FB03CC71EB0C01904271EB030C4C
:109ED400C5D20B46024649464046BDE8F08BB2FB6C
:109EE400F3F200007F2805D8034B185C034B5B5C3E
:109EF4001840704700207047C8AA020048AB02000F
:109F0400A0F16103192B98BF20387047A0F14103D9
:109F1400192B98BF203070477F2805D8034B185C55
:109F2400034B5B5C1840704700207047C8AA0200CE
:109F340048AB0200A0F16103192B98BF2038704789
:109F4400A0F14103192B98BF203070477F299ABF95
:109F5400017001206FF02E0070475AB10A787F2AF1
:109F64000AD800B10260002119605960501A18BF64
:109F740001207047002070476FF02E0070470000EA
:109F840008B5034B5B689B681B68984708BD00BF16
:109F9400A02D002008B50921FFF7F2FF08BD844673
:109FA40040EA010313F0030F18D18446202A0BD38F
:109FB4002DE9F007B1E8F807A0E8F807A2F12002BC
:109FC400202AF7D2BDE8F007042A07D351F8043B4E
:109FD40040F8043BA2F10402042AF7D2002A05D077
:109FE40011F8013B00F8013B013AF9D16046704792
:109FF4008446002A2DD010F0030F04D000F8011B72
:10A00400013A26D0F7E7C9B241EA012141EA014108
:10A01400202A12D3A2F120022DE9F0030B460C46AC
:10A024000D460E460F4688468946A0E8FA03203AB4
:10A03400FBD2BDE8F00320320BD0042A05D340F84C
:10A04400041B043A05D0042AF9D200F8011B013A92
:10A05400FBD16046704700F1010110F0030F11D0ED
:10A0640010F8012B002A23D010F0030F0AD010F8A7
:10A07400012B002A1CD010F0030F03D010F8012B81
:10A08400002A15D02DE970004FF001324FF08033D3
:10A0940050F8044BA4EB020525EA04051D4000D149
:10A0A400F6E7A0F1040070BC10F8012B002AFBD1E4
:06A0B400A0EB0100704763
:08A0BC00DD800200000000003D
:08A0C4005D81020000000000B4
:10A0CC00919B020000000000DD9D020000000000DA
:10A0DC00F82D0020C02E0020C82E0020002E0020BD
:04A0EC001800000058
:10A0F000CEA7020000000000D4A70200000000006C
:10A10000DBA7020000000000DFA702000000000043
:10A11000E4A7020000000000A6A102000000030363
:10A12000C8A702000000000030A8020000000303DE
:10A1300089AA020000000303A4AA0200000003038E
:08A14000B6A2020000000000BD
:10A1480078A102000000000084A102006C2D00200C
:10A15800FFFFFFFFFFFFFFFFFFFFFFFFFFFFFFFF07
:10A1680000000000000000000000D6010601000009
:10A178000565020069650200A564020075617274D4
:10A188005F6C6F675F6261636B656E6400426163F9
:10A198006B656E647320666C7573686564006170C6
:10A1A80070000000EC3200207F0000006C330020BB
:10A1B8001B5B306D002573001B5B313B33316D0039
:10A1C80025734C6F67732064726F70706564202804
:10A1D80025642925730D0A003C25733E2025733A12
:10A1E8002000202530327800202020007C002563C4
:10A1F800001B5B313B33306D001B5B313B33326DF1
:10A20800001B5B313B33336D001B5B313B33346DDB
:10A21800001B5B313B33356D001B5B313B33366DC7
:10A22800001B5B313B33376D007761726E696E6777
:10A2380000696E666F00646562756700B8A1020008
:10A24800F9A10200C0A1020001A2020009A20200B5
:10A2580011A2020019A2020021A2020029A20200F2
:10A268000000000086A2020031A2020039A202000A
:10A278003EA202008C330020466174616C20657236
:10A28800726F720053797374656D207265736574AB
:10A2980000000000000000000338FDD8704730318E
:10A2A800323334353637383941424344454670777E
:10A2B800725F6D676D740000C4A00200C4A0020044
:10A2C800040000004E52465F535543434553530024
:10A2D8004E52465F4552524F525F5356435F484174
:10A2E8004E444C45525F4D495353494E47004E52D8
:10A2F800465F4552524F525F534F46544445564964
:10A3080043455F4E4F545F454E41424C4544004ED5
:10A3180052465F4552524F525F494E5445524E4144
:10A328004C004E52465F4552524F525F4E4F5F4D62
:10A33800454D004E52465F4552524F525F4E4F5464
:10A348005F464F554E44004E52465F4552524F525B
:10A358005F4E4F545F535550504F52544544004E32
:10A3680052465F4552524F525F494E56414C4944FE
:10A378005F504152414D004E52465F4552524F5236
:10A388005F494E56414C49445F5354415445004E31
:10A3980052465F4552524F525F494E56414C4944CE
:10A3A8005F4C454E475448004E52465F4552524F07
:10A3B800525F494E56414C49445F464C4147530011
:10A3C8004E52465F4552524F525F494E56414C4994
:10A3D800445F44415441004E52465F4552524F52E9
:10A3E8005F444154415F53495A45004E52465F45C8
:10A3F80052524F525F54494D454F5554004E5246A4
:10A408005F4552524F525F4E554C4C004E52465F7C
:10A418004552524F525F464F5242494444454E00BE
:10A428004E52465F4552524F525F494E56414C4933
:10A43800445F41444452004E52465F4552524F5287
:10A448005F42555359004E52465F4552524F525F34
:10A45800434F4E4E5F434F554E54004E52465F4554
:10A4680052524F525F5245534F5552434553004E37
:10A4780052465F4552524F525F4D4F44554C455FCF
:10A488004E4F545F494E495449414C495A4544003E
:10A498004E52465F4552524F525F4D555445585F94
:10A4A800494E49545F4641494C4544004E52465F27
:10A4B8004552524F525F4D555445585F4C4F434B90
:10A4C8005F4641494C4544004E52465F4552524F03
:10A4D800525F4D555445585F554E4C4F434B5F4660
:10A4E80041494C4544004E52465F4552524F525FD7
:10A4F8004D555445585F434F4E445F494E49545F4C
:10A508004641494C4544004E52465F4552524F52CF
:10A518005F4D4F44554C455F414C52454144595F4E
:10A52800494E495449414C495A4544004E52465FA8
:10A538004552524F525F53544F524147455F46551B
:10A548004C4C004E52465F4552524F525F41504963
:10A558005F4E4F545F494D504C454D454E54454410
:10A56800004E52465F4552524F525F464541545540
:10A5780052455F4E4F545F454E41424C4544004E54
:10A5880052465F4552524F525F494F5F50454E44C5
:10A59800494E47004E52465F4552524F525F445211
:10A5A800565F5457495F4552525F4F564552525570
:10A5B8004E004E52465F4552524F525F4452565FCC
:10A5C8005457495F4552525F414E41434B004E52EA
:10A5D800465F4552524F525F4452565F5457495F47
:10A5E8004552525F444E41434B004E52465F4552DE
:10A5F800524F525F424C455F495053505F52585F2B
:10A60800504B545F5452554E4341544544004E52AA
:10A61800465F4552524F525F424C455F4950535036
:10A628005F4348414E4E454C5F414C524541445969
:10A638005F455849535453004E52465F4552524F56
:10A64800525F424C455F495053505F4C494E4B5FF7
:10A65800444953434F4E4E4543544544004E524699
:10A668005F4552524F525F424C455F495053505FCD
:10A67800504545525F52454A454354454400556E3E
:10A688006B6E6F776E206572726F7220636F646590
:10A698000000000000000000CCA202000100000041
:10A6A800D8A2020002000000F6A202000300000087
:10A6B80017A30200040000002AA3020005000000FE
:10A6C8003BA30200060000004FA3020007000000A1
:10A6D80067A30200080000007FA302000900000031
:10A6E80097A302000A000000B0A302000B000000BC
:10A6F800C8A302000C000000DFA302000D00000048
:10A70800F3A302000E00000005A402000F000000E1
:10A7180014A402001000000028A402001100000088
:10A728003FA40200120000004EA402001300000023
:10A7380063A402008000000077A4020081000000EA
:10A7480098A4020082000000B4A402008300000064
:10A75800D0A4020084000000EEA4020085000000DE
:10A768000FA502008600000034A50200900000003A
:10A778004BA502009100000069A5020092000000AC
:10A7880087A50200008200009CA50200018200004B
:10A79800BAA5020002820000D6A5020000840000CB
:10A7A800F2A502000184000016A60200028400003F
:10A7B80040A602000384000065A602000D0E0F10DB
:10A7C800636C6F636B00434C4F434B004750494FDA
:10A7D800544500505253005541525400554152546B
:10A7E800450000000B000300E59002000C00030088
:10A7F800E590020018000300E5900200190003002C
:10A80800E5900200FC3500201C3600203C36002074
:10A81800426561636F6E206578616D706C65207349
:10A828007461727465642E006E72665F736468008A
:10A8380001000007C4A00200C4A002000800000034
:10A84800CCA00200DCA0020008000000C4A00200A6
:10A85800CCA002000800000073645F626C655F634F
:10A8680066675F73657428292072657475726E65F2
:10A8780064202573207768656E20617474656D7037
:10A8880074696E6720746F2073657420424C455F4D
:10A89800434F4E4E5F4346475F4741502E00736417
:10A8A8005F626C655F6366675F73657428292072F1
:10A8B800657475726E6564202573207768656E20EF
:10A8C800617474656D7074696E6720746F20736548
:10A8D8007420424C455F4741505F4346475F524FA3
:10A8E8004C455F434F554E542E0073645F626C6550
:10A8F8005F6366675F736574282920726574757273
:10A908006E6564202573207768656E2061747465B0
:10A918006D7074696E6720746F2073657420424C83
:10A92800455F434F4D4D4F4E5F4346475F56535F1C
:10A93800555549442E0073645F626C655F636667B2
:10A948005F73657428292072657475726E6564205A
:10A958002573207768656E20617474656D707469FD
:10A968006E6720746F2073657420424C455F4741C1
:10A978005454535F4346475F415454525F544142D5
:10A988005F53495A452E0073645F626C655F636666
:10A99800675F73657428292072657475726E6564C3
:10A9A800202573207768656E20617474656D7074F6
:10A9B800696E6720746F2073657420424C455F4749
:10A9C800415454535F4346475F53455256494345A4
:10A9D8005F4348414E4745442E00496E737566668D
:10A9E800696369656E742052414D20616C6C6F63B8
:10A9F8006174656420666F722074686520536F66A1
:10AA0800744465766963652E004368616E676520E6
:10AA18007468652052414D207374617274206C6FA4
:10AA2800636174696F6E2066726F6D203078257867
:10AA380020746F20307825782E004D6178696D7507
:10AA48006D2052414D2073697A6520666F722061CE
:10AA580070706C69636174696F6E206973203078F7
:10AA680025782E0073645F626C655F656E61626C49
:10AA78006528292072657475726E65642025732EA9
:10AA8800006E72665F7364685F626C650000000048
:10AA9800C4A00200C4A00200080000006E72665F35
:10AAA8007364685F736F6300BCA00200C4A00200F7
:10AAB8000800000043000000504F534958000000B0
:10AAC8002020202020202020206828282828202016
:10AAD800202020202020202020202020202020206E
:10AAE8004810101010101010101010101010101026
:10AAF80084848484848484848484101010101010C6
:10AB0800108181818181810101010101010101011E
:10AB180001010101010101010101011010101010D2
:10AB280010828282828282020202020202020202EF
:10AB38000202020202020202020202101010102097
:10AB48000007032004170201085710408000000086
:10AB5800BCAA0200C0AB0200D4AC020053756E0060
:10AB68004D6F6E0054756500576564005468750034
:10AB78004672690053617400000000004A616E006B
:10AB8800466562004D617200417072004D61790046
:10AB98004A756E004A756C00417567005365700010
:10ABA8004F6374004E6F7600446563000000000038
:10ABB800414D00504D000000F8AC0200F4AC02001A
:10ABC800F4AC0200F4AC0200F4AC0200F4AC0200F5
:10ABD800F4AC0200F4AC0200F4AC0200F4AC0200E5
:10ABE800FFFFFFFFFFFFFFFFFFFFFFFFFFFF00006B
:10ABF80034AC020064AB020070AC020084AB02000B
:10AC0800B8AB020018AC0200C8AC020024AC0200C9
:10AC1800256D2F25642F257900000000256120254A
:10AC280062202565202554202559000053756E643F
:10AC38006179004D6F6E6461790054756573646164
:10AC480079005765646E657364617900546875723C
:10AC5800736461790046726964617900536174753F
:10AC680072646179000000004A616E756172790052
:10AC78004665627275617279004D61726368004160
:10AC88007072696C004D6179004A756E65004A758D
:10AC98006C79004175677573740053657074656DE0
:10ACA800626572004F63746F626572004E6F7665FD
:10ACB8006D62657200446563656D626572000000CF
:10ACC80025483A254D3A255300000000E99E020028
:10ACD800059F0200119F02001D9F0200399F02007C
:10ACE800459F0200519F02005F9F02000000000084
:02ACF8002E002C
:10ACFC000000000000200040000000000020004088
:10AD0C000000000000000000FF0000000090D003D5
:10AD1C00943600201F00000000000000000000001E
:10AD2C00FF02150112233445566778899AABBCCDC6
:10AD3C00DEEFF001020304C358AB020058AB020073
:0CAD4C0058AB020058AB020058AB0200EC
:040000032000637501
:00000001FF
