:1000000000000420750300005D0300005F03000092
:1000100061030000630300006503000000000000AE
:100020000000000000000000000000006703000066
:1000300069030000000000006B0300006D03000076
:10004000450F00006F030000C90500001D060000F9
:100050006F0300006F0300006F0300006F030000D8
:100060006F0300006F0300006F0300006F030000C8
:100070006F0300006F0300006F0300006F030000B8
:100080006F030000F51A00006F0300006F0300000B
:10009000911B00006F0300006F0300006F0300005E
:1000A0006F0300006F0300006F0300006F03000088
:1000B000450E00006F03000000000000000000007B
:1000C0006F0300006F0300006F0300006F03000068
:1000D0006F0300006F0300006F0300006F03000058
:1000E0006F0300006F0300006F03000000000000BA
:1000F000000000006F030000000000006F0300001C
:1001000000000000000000000000000000000000EF
:1001100000000000000000000000000000000000DF
:1001200000000000000000000000000000000000CF
:1001300000000000000000000000000000000000BF
:1001400000000000000000000000000000000000AF
:10015000000000000000000000000000000000009F
:10016000000000000000000000000000000000008F
:10017000000000000000000000000000000000007F
:10018000000000000000000000000000000000006F
:10019000000000000000000000000000000000005F
:1001A000000000000000000000000000000000004F
:1001B000000000000000000000000000000000003F
:1001C000000000000000000000000000000000002F
:1001D000000000000000000000000000000000001F
:1001E000000000000000000000000000000000000F
:1001F00000000000000000000000000000000000FF
:10020000354936480A1A02D0072291438D463449AF
:1002100034480A1A06D00722914381F30988022242
:1002200082F3148830483149314A00F044F83148AB
:100230003149324A00F03FF831483249324A00F041
:100240003AF832483249334A00F035F832483349F7
:10025000334A00F030F833483349344A00F02BF881
:1002600033483449344A00F026F8344834490022EF
:1002700000F02CF833483449002200F027F83348C6
:100280003349091A082902DB002202604160314A21
:1002900090471F481F49884205D00268043003B4C4
:1002A000904703BCF7E700208646EC46002000217B
:1002B000294A9047FEE7884207D0521A05D00378B2
:1002C00001300B700131013AF9D17047884202D0F8
:1002D00002700130FAE770470000042000E00320BC
:1002E0000000042000000420B85B00000000002093
:1002F00011000020D4030000D403000014340000D7
:10030000B85B000000000020000000201434000052
:1003100014340000143400001434000014340000BD
:10032000143400001434000014340000B85B0000E2
:10033000CC5B0000140000201400002014000020FA
:100340007C0C00207C0C0020800C0020800C002005
:10035000802C00209D03000011100000FEE7FEE746
:10036000FEE7FEE7FEE7FEE7FEE7FEE7FEE7FEE765
:10037000704700BF1048804710484FF0070188437E
:1003800085460F4880470F48016841F470010160BD
:10039000BFF34F8FBFF36F8FFFF732BF0A480B4990
:1003A0000B4A884207D0521A05D0037801300B70EF
:1003B0000131013AF9D170477103000000000420B7
:1003C000F512000088ED00E0143400000000002069
:0403D0000000002009
:1003D40000487047740C00201FB50021039001AA47
:1003E40044F20100CDE9011100F004F805B05DF814
:1003F40004FB000072B6094B1B68DB0700D500BE86
:10040400BFF34F8F0649074BCA6802F4E0621343F7
:10041400CB60BFF34F8F00BFFDE700BFF0ED00E0FE
:1004240000ED00E00400FA0572B6024A13680133D5
:100434001360704714000020034A1368013B1360E3
:1004440003B962B6704700BF14000020FFF7ECBF89
:10045400FFF7F2BF1FB503788DF800308388ADF83D
:10046400043083688DF80630C3688DF8073003695B
:1004740002934369054A0393054B684653F82130B8
:1004840052F82110984705B05DF804FB18000020CD
:1004940020000020024B4FF4807043F00103184702
:1004A400203400001F2886BF054A00F01F004FF0CB
:1004B400A042012303FA00F0C2F80805704700BF08
:1004C400000300502DE9F047154690F80080394AA2
:1004D40042F82850384A42F828304B7B06460C46EE
:1004E400A3B30868DFF8D8904FF0A04100F5E0739B
:1004F40040F20C6241F82320636803F5E07300279F
:1005040041F82320FFF7CEFF6068FFF7CBFF236895
:1005140003F5E07340F20D6241F82320636803F5AC
:10052400E0734FF0010A41F82320FFF7B3FF63683B
:100534001F2B8ABF4A464FF0A04203F01F03D2F894
:10054400102522FA03F3DB070BD507BB002D1B4A4A
:10055400434608BF2A462146301DBDE8F04700F057
:10056400FDB823681F2B86BF03F01F034A464FF0D4
:10057400A0420AFA03F3C2F80C35FFF78BFF0137E8
:100584002068FFF78FFFFFF785FF092FCFD163683E
:100594001F2B86BF0A4903F01F034FF0A04101221D
:1005A40002FA03F3C1F80C35FFF774FF6068FFF734
:1005B40079FFCBE720000020180000205904000038
:1005C40000030050014B1B68184700BF280000209F
:1005D40038B50B4B98420C4601D0002038BD0020A2
:1005E400FFF734FF074B1D7915B901221C601A71FE
:1005F4000020FFF72DFF002DEFD01120EEE700BF04
:1006040000200040280000200023435082B04358BB
:100614000193019B02B07047F0B54C484C4CD0F8A4
:10062400243187B005469BB14FF49271FFF7ECFF7C
:10063400D0F8043163B9A368C0F808330223A36077
:10064400A368C0F8043301230362436107B0F0BD1B
:10065400D5F80431002B49D03E4F3C484FF4827109
:10066400FFF7D2FF0FCF01AE0FC63B68336094F89B
:100674002E307BB1237B012B0CBFD5F83C25D5F85C
:100684004C250292022B314B0CBFD3F83C35D3F8E6
:100694004C3503932D484FF4B071FFF7B5FF2B4849
:1006A4004FF4AE71FFF7B0FF94F8303013B194F803
:1006B4002E303BB1254B0022C3F80022A260264A0B
:1006C400C3F80823214AD2F8C434C2F8C4349A07C0
:1006D40036D501238DF8003094F830300BB984F806
:1006E4002F30D4E9003168469847AFE717484FF4F4
:1006F400A471FFF789FF237B83B9164F0FCF01AE97
:100704000FC63B68336094F83030002BDAD1C5F85B
:100714000032A360104BC5F80833D3E74FF40073DD
:10072400C5F8003240F20223A36003F1CE73C5F88A
:100734000833A368C5F804330123AB602B6285E753
:1007440013F0040318BF0223C4E700BF00300040C5
:10075400300000203C00002002029C012DE9F84FEB
:100764000679404D4FF0340A0AFB06FA05EB0A04F9
:100774009B4694F82D3080460F469146002B6CD151
:1007840039490068FFF724FF002868D13A687B7B69
:1007940084F832301F2A8CBF02F01F031346A06076
:1007A400C4F804B084F82F0084F8300003F5E07333
:1007B40088BF2E4C45F80A9098BF4FF0A04440F2F1
:1007C4000C6144F823107B681F2B0C468BBF03F08D
:1007D4001F011946DFF894C04FF0A04C01F5E071F9
:1007E4004CF82140D8F80040C4F80825C4F80C356A
:1007F400BB68C4F82435B9F1000F26D044F307339D
:10080400002B3A7BB4BF1A4903F16041C4F30734A7
:100814004FEA5313B8BF04F00F074FEA4212A8BFC0
:1008240001F561414FEA8303D2B203F16043B4BFDF
:10083400CA5581F8002303F5614304F01F04012223
:1008440002FA04F4C3F880411C60342303FB065508
:10085400012385F82D30BDE8F88F0820FBE711202F
:10086400F9E700BF300000201D060000000300501F
:1008740014ED00E0026803790621C2F80015044A69
:10088400342101FB0323022283F82D20704700BF8B
:10089400300000202DE9F843CB6803F06043B3F146
:1008A400005F0D46914603D010263046BDE8F8831C
:1008B40090F80480934F0468934BC4F808333426AB
:1008C40006FB087696F82F3023B1B368C4F80433D6
:1008D4001126EAE712F0140F0CBF0123002386F857
:1008E4002F308E46BEE80F0006F10C0CACE80F006A
:1008F400DEF80030CCF80030C9F3001386F830304D
:100904006B78C4F888354FF482712046FFF77CFE7B
:100914004FF49271FFF778FE19F0010318BF012319
:10092400C4F8503519F0020318BF0123C4F8403548
:100934002B78032B00F2C480DFE803F084AC680258
:100944002B6903F06043B3F1005FADD14FF48073C2
:10095400EA68C4F800326B68C4F844254FF4A871FF
:10096400C4F84835FFF750FE4FF4B071FFF74CFE62
:100974004FF4A471FFF748FE01232362A360D4F867
:100984005031002BFBD04FF4A8712046FFF73CFEFA
:10099400AB682A69C4F84425C4F848355B4A342353
:1009A40003FB08739A604FF482730822002619F03F
:1009B400080F04D1297803291CBF0121A150342236
:1009C40002FB08F2B918BA58002A7ED10122234446
:1009D4001968002900F086803422D4F8C434C4F89D
:1009E400C43402FB0877002287F82F20002B3FF441
:1009F4005CAF13F0020F48F2012608BF032613F080
:100A0400040F48F2022318BF1E464EE76B68EA68DB
:100A1400C4F84425C4F848352B6903F06042B2F1A8
:100A2400005F7FF441AFAA68C4F834354FF48453AF
:100A3400C4F83825C4F80032342303FB087340F2A9
:100A44000222AFE76B68EA68C4F8442519F0200F66
:100A5400C4F848354FF0340310D003FB08734FF447
:100A64008072C4F80022294A9A604FF4A471FFF7F7
:100A7400CBFD4FF4A4730122226296E74FF4007277
:100A840003FB0873C4F8002240F202229A604FF478
:100A94008273F0E76B68EA68C4F83425C4F8383523
:100AA4004FF48053C4F80032342303FB087340F23C
:100AB40002229A600123236200224FF4827375E7B5
:100AC4004FF482730822072671E719F0040F1CBF44
:100AD4004FF400738B60342303FB0877BB68C4F8BE
:100AE4000433E2E6D4F8241100293FF471AF4FF443
:100AF40092712046FFF788FD4FF48273226262618F
:100B040065E700BF3000002002029C0100020400DF
:100B1400F0B587B004460F4615460021142201A8FB
:100B24001E4601F05FFC9DF830308DF80570002BF7
:100B340014BF2022002201A9204602960495FFF743
:100B4400A9FE07B0F0BDF0B587B004460F461546C0
:100B54000021142201A81E4601F044FC01230022B6
:100B640001A920468DF804308DF80570029604958D
:100B7400FFF790FE07B0F0BD0023435082B0435806
:100B84000193019B02B0704738B51D4602230B71D7
:100B94000B684A7104467BB112F0040F0CBF82212A
:100BA4009221100748BF41F02001D306236848BFB3
:100BB40021F08001C3F8001320684FF48271FFF71D
:100BC400DBFF206812F0800F05BF01234351401959
:100BD400002038BD2DE9F04F5B4D077905EBC703C5
:100BE40085B01B7906460C464FEAC70A002B40F035
:100BF400A98045F83720DFF858E101F1FF3C04F102
:100C0400030B69464FF001081CF8012FFF2A00F07E
:100C1400958022F0800310060B6040F182801F2B28
:100C240087BF02F01F00F14618464FF0A04908FAAA
:100C340000F0C9F808051F2B8ABF02F01F034FF00C
:100C4400A042724603F5E073032042F82300DC451A
:100C540001F10401D8D13068009BC0F86035019BD4
:100C6400C0F86435029BC0F86835039BC0F86C3546
:100C74000123C0F80035A27923896179C0F80C15E5
:100C8400C0F80425C0F808356389C0F8103500237E
:100C9400C0F800324FF48E71C0F80033FFF76CFFD8
:100CA40030684FF48871FFF767FF30684FF48A713A
:100CB400FFF762FF30684FF48271FFF75DFF55F86C
:100CC40037303BB33268217942F30733002BA8BF96
:100CD40003F16040C2F307324FEA5313BCBF02F082
:100CE4000F041A484FEA4111A8BF00F561404FEACA
:100CF4008303C9B203F16043B4BF015580F8001304
:100D040003F5614302F01F02012101FA02F2C3F864
:100D140080211A60554401232B71002005B0BDE8E1
:100D2400F08F1F2B87BF02F01F00F14618464FF0CB
:100D3400A04908FA00F0C9F80C057CE74FF0FF332E
:100D44000B6084E70820E9E76400002014ED00E06C
:100D54000003005010B50268047942F30733C2F36C
:100D640004305B09012181402033054840F82310F9
:100D7400044B03EBC4030021C2F80015197110BD24
:100D840000E100E064000020F0B40D460479174946
:100D94002F68049E01EBC4010468C4F82075AF8871
:100DA400C4F82475AF68ED68C4F82875C4F82C55E8
:100DB4001568C4F840559588C4F844559568D268B8
:100DC400C4F84855C4F84C25C4F81435F3070AD4BC
:100DD40016F0020318BF0423C4F80032F2B2082349
:100DE400F0BCFFF7D1BE1023F6E700BF640000207B
:100DF4000379084A016802EBC3021379D1F804119C
:100E0400DBB219B9981E18BF012070470120107178
:100E1400704700BF6400002038B505460C46FFF754
:100E2400E7FF50B92B6801225A602846FFF7E0FF1C
:100E340018B9002CF9D1204638BD0124FBE7000085
:100E44002148D0F8103110B55BB14FF48871FFF729
:100E540093FE1E4B5A79510703D51B680BB1012031
:100E640098471948D0F814315BB14FF48A71FFF7F1
:100E740083FE164B5A79120703D51B680BB1022067
:100E840098471148D0F81C315BB14FF48E71FFF7CD
:100E940073FE0E4B587910F0100002D11B6803B199
:100EA40098470948D0F8043163B14FF48271FFF7D1
:100EB40063FE064B01221A711B681BB1BDE810408A
:100EC4000320184710BD00BF00C00140640000208B
:100ED40000F18040002382B0036003680193019B0A
:100EE40002B07047044A137923B90121106091803C
:100EF40018467047852070476C000020084B1A681C
:100F0400D20706D4C02283F800230122C3F880212B
:100F14001A604FF080430122C3F81825704700BFC0
:100F240000E100E008B54FF48270FFF7D1FF4FF005
:100F340080430222C3F8042301229A6008BD000002
:100F4400124B1B6810B573B14FF48070FFF7C0FFEC
:100F54004FF080430122C3F808230D4B587910B990
:100F64005A711B6898470B4B1B6873B14FF482701E
:100F7400FFF7AEFF4FF080430222C3F80823044B6F
:100F8400BDE810401B680120184710BD0001004057
:100F94006C000020040100401FB51B211A22CDE97A
:100FA40000124FF0CC720023029202228DF80C2022
:100FB4000848ADF80D301A4669468DF80F30FFF732
:100FC40081FA08B1FFF708FA0348FFF753FC05B0AC
:100FD4005DF804FB983400009C34000008B50A480E
:100FE40000F01EFB08B1FFF7F7F900F033FB00F047
:100FF4004BFB4B2000F07CFB4B2000F095FBBDE845
:10100400084000F05BBB00BF983400002DE9F04FAE
:101014008BB000F069FF002000F07EFF00F014FFA9
:101024000021032000F0D2FC2A48DFF8C0B000F011
:1010340031F9FFF7B1FFFFF7D1FF00F045FA264879
:1010440000F028F9254B21A7D7E9006743F00103F5
:1010540001934FF0640A019B4FF47A409847BAF128
:10106400010AF8D1DDE90423DDE90689DDE9084553
:1010740004A8CDE9022300F071FADDE90223584601
:1010840000F008F942464B46154800F003F92246A1
:101094002B46144800F0FEF832463B4620462946CB
:1010A40001F000F80028D4D00F485346B7EE000AE8
:1010B40002224FF4155100F01DFC00F0E5FC00285D
:1010C400C7D020BFF9E700BFAFF3008083C0CAA137
:1010D40045B6EB3F263400004B340000903400004A
:1010E4007A34000084340000663500007034000057
:1010F4000369C1688B429DBF8268D21802F1FF3236
:1011040003F1FF3394BF501A581A70472DE9F8437E
:10111400D0E902940546A9EB0408406890452044B0
:101124000F46144404D901F034F9EC60BDE8F883A7
:101134004246A4EB090401F02CF96868224607EB47
:101144000801F0E72DE9F843C568064689461746C5
:101154004FF000083469B3687068A54228BFE418EA
:10116400013C621B5C1BBC4228BF3C46944228BF26
:10117400144649462844224601F00BF9B368254435
:10118400AB4208BF00253F1BA044A144F560E1D158
:101194004046BDE8F883000010B5114C114AA26125
:1011A4000223C4E90433104BE361A2644FF40073D7
:1011B4000E4A0F492362E26400231022E01DA36259
:1011C4006362E362A3656365E365226501F03DF94B
:1011D4000849204601F039F92023A37110BD00BF4E
:1011E40074000020A8340000FC000020EC00002063
:1011F400B1340000B5340000F8B5184C182300FBD6
:10120400033503FB00402544C46A012C0F461646EF
:101214000FD0022C1AD0F4B92846FFF769FF864292
:1012240005D8324639462846FFF770FF3446204633
:10123400F8BD2846FFF75CFF8642344628BF0446C3
:10124400224639462846FFF761FFF0E72846BDE805
:10125400F840FFF777BF0024E9E700BF74000020DF
:1012640070B50B4B1B7804460D4616460BB9FFF7B9
:1012740093FF0020FFF7EAF8324629462046FFF79D
:10128400BBFF04460020FFF7E3F8204670BD00BF13
:10129400740000200FB410B5A2B024AB802153F821
:1012A400042B019302A801F066F8802804460ADDA5
:1012B400802202A90020FFF7D3FF204622B0BDE818
:1012C400104004B070470028F7DD0246F1E7000043
:1012D400054B1B68082B01BF044B1868B0FA80F05B
:1012E400400918BF0020704730010010340100107D
:1012F40008B54FF080430022C3F80C21C3F8102135
:10130400C3F838254FF0805203F54043D2F8041453
:10131400C3F82015D2F80814C3F82415D2F80C1415
:10132400C3F82815D2F81014C3F82C15D2F81414E5
:10133400C3F83015D2F81814C3F83415D2F81C14B5
:10134400C3F84015D2F82014C3F84415D2F8241475
:10135400C3F84815D2F82814C3F84C15D2F82C1445
:10136400C3F85015D2F83014C3F85415D2F8341415
:10137400C3F86015D2F83814C3F86415D2F83C14D5
:10138400C3F86815D2F84014C3F86C15D2F8442495
:10139400C3F87025FFF79CFF10B1384B384A1A6028
:1013A400FFF796FF18B1374BFB22C3F81825FFF758
:1013B4008FFF48B13449354B0A681B6822F00F028D
:1013C40003F00F0313430B60FFF782FF18B1304B98
:1013D4004FF400721A604FF08043D3F80024D20710
:1013E40044BF6FF00102C3F800242A4AD2F88830BF
:1013F40043F47003C2F88830BFF34F8FBFF36F8F8D
:101404004FF01023D3F80022002A03DBD3F8043270
:10141400002B2FDA204B0122C3F80425D3F8002433
:10142400002AFBD04FF010221221C2F80012D3F888
:101434000024002AFBD04FF010231222C3F8042208
:10144400154B1A46D3F800140029FBD00021C3F829
:101454000415D2F80034002BFBD0BFF34F8F0D4995
:101464000E4BCA6802F4E0621343CB60BFF34F8FA4
:1014740000BFFDE70A4B0B4A1A6008BD8C560040BA
:101484004881030000F00040E40E004058020010C0
:101494004096024000ED00E000E001400400FA053F
:1014A400000000200090D00313B5064B1C680023F5
:1014B4000093D3B20A460146201DFFF729FB02B070
:1014C40010BD00BF0403002007B53223012201A987
:1014D40053208DF80430FFF7E7FF08B1FEF77CFFD7
:1014E40003B05DF804FB000008B5FFF7EDFF074B00
:1014F400074A1868532106230430FFF724FB18B168
:10150400BDE80840FEF768BF08BD00BF0403002023
:10151400FC020020F8B5074615460E46FFF7E4FF27
:10152400094B5A781C7844EA022424B23C60DA78E5
:10153400987840EA022000B230605A791B7943EA75
:1015440002231BB22B60F8BDFC020020014600F10F
:1015540008020431FFF7DEBF00000000F0B515A358
:10156400D3E900238DB0CDE9062314A3D3E90023E6
:10157400CDE9082313A3D3E90023044603A8CDE946
:101584000A23FFF7E3FF03AD06AE04F11807F6E8FC
:10159400022355F8040BCDE9002300F09FFDDDE99B
:1015A400002300F0E3FCE4E80201BC42EFD10DB0FB
:1015B400F0BD00BF9F27F96C78D56E3F0E7F8FF288
:1015C4007ACD6E3F200FD8309E9C6C3F73B51C467D
:1015D4000F4B8DF807101868164601230DF107020A
:1015E40053210430FFF7AFFA054608B1FEF7F4FEC5
:1015F4000848FFF74FFE214645B99DF80730B3422E
:1016040004D10548FFF746FE02B070BD0348F9E770
:1016140004030020BC340000DF340000F534000073
:1016240013B50A4B01A9186002222D235320ADF8EB
:101634000430FFF739FF064B9DF8052000210446CE
:10164400FFF7C4FF204602B010BD00BF0403002012
:101654002535000013B541F22D03022201A95320C0
:10166400ADF80430FFF720FF044608B1FEF7B4FEDE
:10167400044B9DF8052000212046FFF7A7FF02B088
:1016840010BD00BF2C35000013B540F62D03022217
:1016940001A95320ADF80430FFF706FF044608B152
:1016A400FEF79AFE044B9DF8052000212046FFF723
:1016B4008DFF02B010BD00BF3235000013B540F6F7
:1016C4003133022201A95320ADF80430FFF7ECFEB8
:1016D400044608B1FEF780FE044B9DF80520002166
:1016E4002046FFF773FF02B010BD00BF3A3500007B
:1016F40013B580F3080025238DF80500022201A903
:1017040053208DF80430FFF7CFFE044608B1FEF7EE
:1017140063FE044B9DF8052000212046FFF756FF89
:1017240002B010BD4435000013B580F30800242333
:101734008DF80500022201A953208DF80430FFF72B
:10174400B3FE044608B1FEF747FE044B9DF805209E
:1017540000212046FFF73AFF02B010BD4F350000CC
:10176400F0B5FFEE006A00249FED296A9FED295A27
:10177400DFED294AB7EE007AF6EE005AB0EE664A7B
:101784004FF400762746B4FBF3F5954225D24D5726
:1017940007EE905A60EE243AF8EEE77A67EEA37A01
:1017A400F4EEE67AF1EE10FA1ADDF4EEC77AF1EE11
:1017B40010FA15D577EE877A67EE867A67EEA57A02
:1017C400FCEEE77A17EE905A20F814500134B4F581
:1017D400007FD8D1B4FBF3F0F0BDF0EE457AE9E731
:1017E400F5EE407AF1EE10FA02D14FF48075EBE792
:1017F400F4EEC47AF1EE10FA02D820F81470E5E79A
:10180400F4EEC77AF1EE10FAA8BF20F81460DDE711
:1018140000000044000000000000003C012810B556
:1018240002D0022832D010BD284B1B787BB1284B44
:10183400284A1868284B12681968284B93ED000A47
:10184400274B01441B782748FFF78AFF09E0254A04
:101854004FF480710133B3F5007F22F8021BF9D1F4
:1018640000201D491B4A0B6814680344201A1060A9
:101874001D480B6000688342D5D31C4C236803B316
:10188400013B2360002310600B60CCE70F4B1B78F7
:101894006BB10F4B0F4A18680F4B126819680F4B46
:1018A40093ED000A0E4B01441B781148CCE7104A13
:1018B4004FF480710133B3F5007F22F8021BF9D194
:1018C400CEE71360014A1370ADE700BF1D0300208B
:1018D400100300200C030020180300200400002043
:1018E40010000020400300201403002008030020FF
:1018F4004007002013B5114C2478ECB1104C206043
:101904001048016010480270104A114882ED000A24
:10191400104A00241460104A1360104B104A1960D6
:10192400012313700E2200920E4AA2F11001FFF758
:101934002BFA204602B010BD0320FBE71C03002055
:1019440010030020140300201000002004000020D5
:101954000800002018030020080300200C030020C6
:101964001D0300203003002008B50B4B1B788BB1FE
:1019740000210A48FFF750FA094A00234FF4807106
:101984000133B3F5007FA2F8001422F8021BF7D14B
:10199400002008BD0320FCE71C03002008000020F1
:1019A4004003002010B5064C227822B1FFF7DCFF7B
:1019B4000448FFF7CFF9044A00231370237010BDC5
:1019C4001C030020080000201D030020F0B5274D53
:1019D4002B7885B004460E460BB1FFF7E3FF64F0A5
:1019E4007F038DF80430FF238DF805304FF6FF7325
:1019F400ADF806300623ADF8083000238DF80A3020
:101A04001B4A1C484FF4007301A90393FFF7E2F843
:101A140050BB194B02461F464FF480710132B2F598
:101A2400007FA3F8001423F8021BF7D16EB11F2C1A
:101A3400234686BF04F01F03104A4FF0A04203F56B
:101A4400E07340F2031142F823100D4B0D4C1F605C
:101A54004FF400710022C3E90222C3E906229980EF
:101A64001C61998201232B7005B0F0BD1C0300207A
:101A7400211800000800002040030020000300504B
:101A84002003002040070020024B187808B1024BC5
:101A9400187870471C0300201D030020024B4FF4EC
:101AA4003C6043F0010318476035000038B50C4B27
:101AB4000C4C4FF40032C3F8802001254FF48033DE
:101AC400C4F84833C4F808336560FFF7E7FF064BF2
:101AD400A56000241C60FFF7E1FF044B1C7038BDB7
:101AE40000E100E0001001405C0C00204D0C0020DF
:101AF400F8B51F4B1F491B680025C1F84051C1F8B8
:101B04004451C1F84851C1F84C51C1F80051C1F8D1
:101B140004514BB3D1F8044517490968641A24F0F9
:101B24007F442F461A68A24209D8A41A15441A7C85
:101B3400DE691AB1D3E905201F749047AEB90F4A84
:101B44000F4B11781B788B4205D10133DBB2022B8A
:101B540008BF0023137012780A4B43F822500A4B33
:101B64004FF48012C3F80021F8BD3346DAE700BF12
:101B7400600C0020001001405C0C0020590C002077
:101B8400580C0020500C002000E100E02DE9F04F3B
:101B9400A24AA34913780978A24D994285B03CD052
:101BA4000133DBB2022B08BF002313709E49127865
:101BB4009E4B0F6853F822003B1823F07F4300220A
:101BC4000B602B6816461446944613B942B12B6039
:101BD40006E0196881420ED902B12B60091A196016
:101BE40001272B68DFF84CA201934FF00008BEB91F
:101BF400DFF848B262E0401A0C44D968D3F81CE01C
:101C0400C3F800C031B13A1922F07F42C3E901217F
:101C1400DE611E4673460122D7E700263746E0E719
:101C24003446F669804A63681268DFF814C2A06813
:101C3400991A21F07F41614500F2A8800144216096
:101C4400012222742A680023C4E90133E361002AD3
:101C540040F0A5802C60CAE79BF802105A1CD2B24F
:101C640091428BF8002004BF00228BF80020182238
:101C740002FB03B32A6819799C68022977D00329E7
:101C840000F08180012919D1207CB8B9D3E903126D
:101C9400A2605A69E2609A69654BA2611B78002BC5
:101CA4000CBF0B4603466360BCE78C4200F0948093
:101CB4008946C9690029F8D1002323749BF80030B0
:101CC4009BF801209A42C7D12B68B8F1000F04D1C8
:101CD400019A9A4201D1002F43D0002B79D0D3F836
:101CE40000A0544D504BD5F804751C68DFF854819E
:101CF4003E1B98F8003026F07F4603369BB94FF41C
:101D04008033C5F84433C5F804334B4B4FF40032E9
:101D14004FF00109C3F880211A60C5F80090FFF75D
:101D2400BDFE88F80090B2452CBF5444A41924F099
:101D34007F44C5F84045D5F80435DB1B23F07F43C9
:101D4400E41B033324F07F44A3420AD9D5F80435B5
:101D5400C5F84035FFF7A2FE374B4FF40032C3F805
:101D64000021334B00221A7005B0BDE8F08F1146F4
:101D740091469FE71174D2690123002AFAD1002BFE
:101D84009CD02A609AE700231946F6E7D31A23F079
:101D94007F43834234BFC31A0023236050E7216882
:101DA4001368994213D8591A1160E26152E7091A6B
:101DB400D8691A4638B1034618688842F7D3401ADE
:101DC4001860184613462160E061DC610FE7134692
:101DD400F2E7FFF76BFEC4E74C4511D1D3692B60E2
:101DE40073B9DFF844E00120CDE90212CAF8080013
:101DF400CEF800300E4B1870FFF750FEDDE90212EA
:101E04000B68C969C9F81C1011B1086803440B6058
:101E14002B68934218BF4FF001084DE7580C00207F
:101E2400590C0020600C00205C0C0020500C002099
:101E34004C0C00200010014000E100E0400B0020A9
:101E4400FEFF7F004D0C002008B5FFF72FFE104B5E
:101E540000200B2218809A700E4B18600E4B1870DD
:101E64000E4B18700E4B4FF48012C021C3F8802122
:101E740083F814131A6002F18042A2F56F22C2F8AB
:101E8400080583F81113074BD2F804251A6008BD1E
:101E9400400B0020600C0020580C0020590C00203E
:101EA40000E100E05C0C002038B5074C051E04F18D
:101EB400080318BF1C4623682BB11A6822605B68AC
:101EC40028469847F7E738BD6C0C002020B9054B2D
:101ED40001225A70FFF7E8BF012802D1014A90702D
:101EE400F8E77047640C002038B5094C23786BB9C7
:101EF40008486360A3602361E360FEF7F3FF0546CF
:101F0400FEF7FCFF01232370284638BD8525FBE737
:101F1400640C0020D11E000038B5134CA37805468C
:101F240003F0FF0073B115B16B68012098470020DE
:101F3400FEF78CFAE3680133E3600020BDE8384023
:101F4400FEF786BAFEF782FA25B1226913463BB939
:101F54002A602561E368002BECD1FEF7E3FFE9E793
:101F64009D42F7D01B68F2E7640C0020F0B540F204
:101F7400FF7681EA030C16EA115E1EBFB64516EA27
:101F84001355B5425AD021EA465141F48011A1FBC0
:101F9400024723EA465343F48013AE44A0FB03658F
:101FA4000CF0004C36197D41A1FB034747F10003B7
:101FB400A0FB0217F619654153F10003094218BF4B
:101FC40046F0010640F2FE74B3F5007F13D2AEF57D
:101FD400806EA6452BD24CEA0331280341EA155101
:101FE40040EA16503203450872F1004250F10000F5
:101FF40051EB0E51F0BDAEF2FF3EA64517D24CEAAE
:10200400C321E80241EA555140EA5650F20245081C
:1020140072F1004250F1000051EB0E51F0BD0CF092
:10202400004141F0FE4141F470010020F0BD1EEA80
:102034000E0FF4D50CF000410020F0BD16EA115F3C
:1020440004BF01F000410020004218BF41F001012B
:1020540016EA135F04BF03F000430022124218BFC4
:1020640043F0010306EA1354B44218BF9EEA060F74
:1020740003D00CF000410020F0BD21F0004123F01A
:102084000043B1EB065F06D8B3EB065F03D8002923
:1020940018BF002BC3D140F20001C7F6F87100202D
:1020A400F0BD00BF4FF4001C1CEB410F98BF1CEBAC
:1020B400430F11D851EA030C50EA4C0C5CEA020CB1
:1020C4000AD004D2904299418041404270478242F2
:1020D4008B418041404270470020704780B110F02E
:1020E400004248BFD0F10000120D02F21D42B0FAC6
:1020F40080F18840521AC30A400503EB025170472D
:102104000100704701F000428B1AA3F16051B1F550
:10211400801F0ADBB1F17F6F09D242EAC102C1001C
:1021240071F1004142EB507070471046704701282E
:102134005B4113F5001F04D842F0FE4040F4000058
:102144007047C90041EA507040EA020040F4800040
:1021540040F08040704700BF10EE100A4FEA400084
:10216400B0F17F4F0CBF01200020704710EE100A21
:1021740041000020B1F17F4F18BF50EB00007047C1
:1021840010EE100A00F00040704700BFB0EEC00A25
:10219400704700BF00B510EE100A00F003F800EE1F
:1021A400100A00BD4FF07F43B3EB400F22D941002A
:1021B40008BF704703EA4002120E7F3A14DB172A65
:1021C400A8BF70474FF6FF73C0F27F03D340184295
:1021D40020EA030018BF10F0004F08BF70474FF407
:1021E4000001D1404018704710F0004F0CBF002090
:1021F4000248704718BF024870470000000080BFC3
:102204000000C07F00B5014610EE100A00F003F88C
:1022140000EE100A00BD4FF07F43B3EB400F98BFB0
:10222400704713EA400207D0120E7E3A0A6020EA91
:10223400530040F07C5070470A6000F00040704743
:1022440000B5014610EE100A00F003F800EE100A83
:1022540000BD4FF07F43B3EB400F98BF704713EAC4
:10226400400204BF00F00040704711EB1262DCBF73
:1022740000F000407047FF2A3CBF00EBC15070479C
:1022840040004FEA33007047002816DB002817DDB2
:102294000022B7EE000A0C4B10F0010F1CBFD3ED67
:1022A400007A20EE270A401004330028F4DC4AB1F7
:1022B400F7EE007A87EE800A704740420122E8E791
:1022C400B7EE000A704700BFCC5A000038B5044688
:1022D4000846A26842B1236861685D1C8D4208BF4C
:1022E40000208B4208D2D054E3682BB12168626885
:1022F400914201D22146984723680133236038BDB7
:1023040070B54C1E09D41646C5B229463046FFF7AF
:10231400DDFF013CB4F1FF3FF7D170BD10F0100FA9
:1023240008D108B510F4007F14BF30202020FFF737
:10233400E7FF08BD70470028B8BF4042704700005F
:1023440000B5FEF745F8024B18445DF804FB00BFE6
:1023540008000000037853B159B10144034613F84F
:10236400012F12B18B42FAD10B46181A704703465B
:10237400FBE70346F9E710B584B00C46114602901A
:102384000022039201941A46684600F0B1F804B0A2
:1023940010BD844640EA010313F0030F18D18446AC
:1023A400202A0BD32DE9F007B1E8F807A0E8F807D5
:1023B400A2F12002202AF7D2BDE8F007042A07D3AD
:1023C40051F8043B40F8043BA2F10402042AF7D27A
:1023D400002A05D011F8013B00F8013B013AF9D17C
:1023E400604670478446002A2DD010F0030F04D0B5
:1023F40000F8011B013A26D0F7E7C9B241EA0121EE
:1024040041EA0141202A12D3A2F120022DE9F0036E
:102414000B460C460D460E460F4688468946A0E8F4
:10242400FA03203AFBD2BDE8F00320320BD0042A91
:1024340005D340F8041B043A05D0042AF9D200F865
:10244400011B013AFBD160467047024610F0030FAE
:1024540016D111F0030F13D12DE9F0004FF001371D
:102464004FF0803351F8044BA4EB070525EA04052B
:102474001D4002D142F8044BF4E7A1F10401F0BC81
:1024840011F8013B02F8013B002BF9D1704700F130
:10249400010110F0030F11D010F8012B002A23D0F2
:1024A40010F0030F0AD010F8012B002A1CD010F0F2
:1024B400030F03D010F8012B002A15D02DE970006A
:1024C4004FF001324FF0803350F8044BA4EB020577
:1024D40025EA04051D4000D1F6E7A0F1040070BC14
:1024E40010F8012B002AFBD1A0EB0100704700007B
:1024F4002DE9F04F2DED048B89B083460392002320
:1025040003600D4615F8011B002900F0AE86DFEDCF
:10251400A48A00F09CBE002607E05E2866D146F43B
:10252400805601E046F0400615462A4612F8010B93
:102534003028F2D81F2838D9A0F12003102B34D822
:1025440001A151F823F000BF29250000AF250000A8
:10255400AF25000091250000AF250000AF25000045
:10256400AF25000097250000AF250000AF2500002F
:10257400AF2500009D250000AF250000A325000025
:10258400AF250000AF250000A925000046F0800615
:10259400CAE746F40046C7E746F02006C4E746F01B
:1025A4001006C1E746F40076BEE72A281ED1039B35
:1025B400191D03911F68002FBCBF7F4246F010060F
:1025C4001078AA1C27EAE7752E2824D0002774283F
:1025D40045D07A2843D06C2800F0C2804C2800F003
:1025E400C580682800F0D38091463BE0A0F1300319
:1025F400DBB2092B88BF0027E4D8002707EB870745
:10260400303800EB470712F8010BA0F13003DBB2BE
:10261400092BF3D9D6E710782A280AD1039B191D70
:1026240003911F6850780232002FD0DB46F4807685
:10263400CDE70132A0F13003DBB2092B88BF0027BC
:10264400F4D8002707EB8707303800EB470712F868
:10265400010BA0F13003DBB2092BF3D9E4E7914677
:1026640019F8010B782800F28480DFE810F01006D6
:102674008200820082008200820082008200820046
:102684008200820082008200820082008200820036
:102694008200820082008200820082008200820026
:1026A4008200820082008200820082008200820016
:1026B4008200820082008200A300820082008200E5
:1026C40082008200820082008200820082008200F6
:1026D40082008200820082008200820082008200E6
:1026E40082008200820082008200820082008200D6
:1026F4008200820082008200C401E101E6018200BE
:1027040082008200820082008200820082008200B5
:1027140082008200820082008200820082001E0108
:102724008200820082008200820082008200820095
:1027340082008200A9005301C601E301E80182007E
:1027440053018200820082008200B9004101040129
:1027540082008200CE0082004C01820082002001AF
:10276400914619F8010B46F001067BE746F0010695
:1027740091460C4B1C68002C00F0658503AB01935B
:1027840000972B4632465946A04700F05CBD1078AE
:10279400682809D002F1010946F0040662E700BF87
:1027A4000000C842780C002046F0080602F1020935
:1027B400507857E725215846FFF788FD00F043BDC0
:1027C400039B1A1D03921C78013D5A462946304644
:1027D400FFF7A4FD21465846FFF778FDB0463AE0DE
:1027E40016F0080F08D0DBF80020039B191D039195
:1027F4001B681A7000F027BD039B1A1D03921B6807
:10280400DBF800201A6000F01EBD039B1A1D039222
:102814001C688C4B002C08BF1C4626F4007816F468
:10282400807F23D039462046FFF794FD0646AD1B32
:102834005A4629464046FFF771FD06F1FF3A56B164
:102844002746344417F8011B5846FFF73FFDBC42A6
:10285400F8D14FF0FF3A18F0100F00F0F4845A4604
:1028640029462020FFF74CFD00F0EDBC2046FFF781
:102874000EFE0646DBE7039B1A1D03921B6816F047
:10288400800F0CBF0024232446F4807608271A46C0
:10289400002B00F0B48404AB4FF0000806F40050A1
:1028A400DFF8A4C1A64600F06ABC46F4005616F050
:1028B400800F1BD043F2780443F25803782818BFE2
:1028C4001C4616F4807F01D026F4007616F4804F5F
:1028D40032D0039B1A1D03921B6816F0040F1FD0FD
:1028E4001BB2002B20DA5B422D242DE00024E8E704
:1028F40016F0800F0CBF0024302416F4807FE5D03E
:1029040026F40076E2E716F4807F07D026F40076FA
:102914000024DBE746F480460024D7E70024D5E70B
:1029240016F0080FDDD0DBB216F0200F61D116F0DF
:10293400400F18BF202407E0039B1A1D03921B6855
:1029440016F0040F50D09BB216F4807F00F0E6839B
:1029540026F400765838202800F23B8401A252F86D
:1029640020F000BF93280000D7310000D7310000C9
:10297400D7310000D7310000D7310000D731000033
:10298400D7310000D7310000D7310000D731000023
:10299400D73100004D310000D7310000D73100009D
:1029A400D7310000D73100004D310000D73100008D
:1029B400D7310000D7310000D7310000D7310000F3
:1029C4002531000093280000D7310000D7310000E2
:1029D400D7310000D73100004D310000D73100005D
:1029E400D73100009328000016F0080FACD0DBB2FA
:1029F400AAE72B24A8E746F4005646F48066039B16
:102A0400073323F0070303F108020392D3E900011B
:102A1400FFF778FB08EE100A16F4807F16D0B7B9DA
:102A240006F44067B7F5406F14BF002701270EE096
:102A340046F4005646F40066E1E746F4005646F4D0
:102A44004066DCE7E45A0000B85A00000627B0EEFE
:102A5400480AFFF781FB002840F0BB80B0EE480A2B
:102A6400FFF784FB8046002840F0CC80B0EE480A93
:102A7400FFF786FB002840F0CE8018EE103A08EEEF
:102A8400103A07A800EE103AFFF7BCFB079B03EBD4
:102A94004303CA4A82FB0312DB17C3EBA203079367
:102AA400B5EE408AF1EE10FA40F0BF8006F44064BF
:102AB400B4F5806F0AD0B4F5406F40F06E81079B87
:102AC400BB4203DA13F1040F80F267810798404296
:102AD400FFF7DAFB28EE008A8DED028AB5EE408A14
:102AE400F1EE10FA36D0B0EE480AFFF735FB0028B5
:102AF40040F0B180F2EE047AB4EEE78AF1EE10FA17
:102B04000FDB079B0133F2EE047A1A4688EE278A1C
:102B14000133B4EEE78AF1EE10FAF6DA8DED028AAB
:102B24000792DDED027AB7EE007AF4EEC77AF1EEA1
:102B340010FA0FD5079B013BF2EE046A1A4667EEC2
:102B4400A67A013BF4EEC77AF1EE10FAF6D4CDED95
:102B5400027A079227B1B4F5406F08BF07F1FF3737
:102B64007842FFF791FBF6EE007A60EE277A9DED4E
:102B7400027A77EE877AB2EE047AF4EEC77AF1EE4F
:102B840010FA80F28180B0EE678A002F00F0918005
:102B940006F40863B3F5006F7ED026F40063029355
:102BA4007B1DED1A013D16F4805F00F0F380079A57
:102BB400834B83FB0213A3EBE27303EB4303D31AAC
:102BC4000233042B00F2E480DFE803F099DA9699EB
:102BD400DA00B5EEC08AF1EE10FA0CD416F4005FF8
:102BE400784C794B08BF1C4616F0200F08BF0134FF
:102BF40026F4807611E616F4005F744C744B08BF1B
:102C04001C46F5E716F4005F724C734B08BF1C4674
:102C140026F4807601E646F06006F1EE487A17EE77
:102C2400903A2CE7079B0133079307980130FFF78D
:102C34002BFBB4EEC08AF1EE10FAF3DC02E0079B42
:102C4400013B07930798FFF71FFBB4EEC08AF1EE30
:102C540010FAF4D42AE7B5EEC08AF1EE10FA0CD4D7
:102C640016F4005F574C584B08BF1C4616F0200F53
:102C740008BF013426F48076CFE516F4005F534C88
:102C8400534B08BF1C46F5E7079B01330793B2EE8D
:102C9400047A87EE878A78E7092FA8BF0927384680
:102CA400FFF7F2FA60EE087AFCEEE77A17EE903A54
:102CB4004BB926F400630293053D16F080073FF4F8
:102CC40072AF47466EE7454AA2FB0312D20802EBF5
:102CD4008202B3EB420F7FF460AF4049A1FB0323B0
:102CE400DB08013FE5D0A1FB0302D20802EB82021C
:102CF400B3EB420FF2D050E74FF0010808E0F2EED8
:102D0400047A27EE888A013A0792013D4FF00208BF
:102D140027EAE77716F0600F18BF05F1FF3507982B
:102D2400FFF709FB6328C8BF05F1FF35F0EE487AC9
:102D3400BCEEC87A17EE104AB8EE478A37EEC88A56
:102D440025EAE57A029B13F4047F00F0D580029B08
:102D540013F0200F00F0DE8013F0400F14BF2D217C
:102D64002B215846FFF7B2FA029B13F0100F00F024
:102D7400DB801B4E08F10055013D06EBC505EAE07A
:102D840028EE888A023A0792023D4FF00308BFE713
:102D9400D046BDE74FF00108BCE716F4806F3ED083
:102DA400079B0E2B3ADC0133FC1A092CA8BF09241B
:102DB40016F0800F16D0274631E000BF67666666BE
:102DC40056555555FC5A0000045B0000EC5A0000AF
:102DD400F45A00000C5B0000105B0000CDCCCCCC9E
:102DE400185B0000BB426BD0F6EE009AB2EE049A78
:102DF4002046FFF749FA28EE000A30EE290AFFF7C9
:102E0400C9F9F0EE490A00F085FAB5EE400AF1EE90
:102E140010FA57D1013CEBD1274600E0474626F48F
:102E240080630293079B7842A3F108028242C8BFE1
:102E3400A3F10900FFF728FA4FF0FF30FFF700FA7B
:102E440038EE008AB0EE489A07980130FFF71CFA72
:102E5400B4EEC08AF1EE10FA02DB079B013307934C
:102E64000798002840DB09282EDCFCEEC97A17EE0F
:102E7400904AB8EE678A39EE488A002307932046C1
:102E84000021092C35D9DFF82CC44FF0010808F1D2
:102E94000108FCE90223994208BF9042F7D207EBEC
:102EA4000803079A1344ED1A06F080033B4318BF46
:102EB40005F1FF3516F0600F18BF05F1FF353FE748
:102EC4002746ACE72746AAE7A0F109030793C0F118
:102ED4000900FFF7D9F929EE009AFCEEC97A17EE3A
:102EE400904A08EE108ACAE7002407944FF00108BC
:102EF400D5E74FF00108D2E7002D7FF728AF202552
:102F04005646013E29465846FFF7E0F9002EF8D10F
:102F1400B2461CE7029B13F0400F3FF425AF20217B
:102F24005846FFF7D3F91FE7BAF1000F3FF421AF7A
:102F340030255646013E29465846FFF7C7F9002E6C
:102F4400F8D1B24615E74FF0300C61465846FFF70A
:102F5400BDF9B04515D0D5E90023A846083D0021A8
:102F6400994208BF9442EED34FF0300C0CF1010C9F
:102F74005FFA8CFCA41A0021994208BF9442F5D24E
:102F8400E3E7029B13F4006449D1002F55D1029B5F
:102F940013F0800F40F07E81029B13F4806F2FD0DA
:102FA40013F4005F14BF452165215846FFF78EF9DD
:102FB400079B002BC0F294802B215846FFF786F91B
:102FC4000799632900F394800799B64C84FB013276
:102FD400C917C1EBA2013031C9B25846FFF776F9DF
:102FE400079B84FB0324D917C1EBA40101EB8101E6
:102FF400A3EB410303F13001C9B25846FFF766F968
:10300400BAF1000F00F01F8120245546013D2146EE
:103014005846FFF75BF9002DF8D1AA4613E1079B48
:10302400002BB2DD3025013B079329465846FFF7B4
:103034004DF9079B002BF6DCA7E72E215846FFF736
:1030440045F93D46092FA8BF092525EAE5757F1BEB
:103054008CB10798281AFFF717F920EE088AFCEEBE
:10306400C87A17EE904A7DB305F10055013D8E4BA9
:1030740003EBC50519E02846FFF706F920EE088A98
:10308400FCEEC87A17EE904AEDE70CF1010C5FFAFA
:103094008CFCA41A0021994208BF9442F5D26146DF
:1030A4005846FFF713F946450ED0D5E90023A84644
:1030B400083D0021994208BF944202D34FF0300CDE
:1030C400E3E74FF0300CEAE7002F3FF465AF30241C
:1030D400013F21465846FFF7F9F8002FF8D15BE786
:1030E4002D215846FFF7F2F8079B5B42079367E7E9
:1030F4006E4C84FB0132C917C1EB62113031C9B285
:103104005846FFF7E3F8079A84FB0231D317C3EB61
:103114006113642101FB1323079355E7012719E485
:103124001A464FF00008002B55D004A94FF00008B0
:1031340003F00703303301F8013B08F10108D2081A
:103144001346002AF4D146E019464FF00008002B3C
:1031540041D04FF0000806F4004E4FF02C0ADFF87F
:1031640058C17346A6461C4624E002F00F01504C99
:10317400615C03F8011B08F10108120906D000285C
:10318400F3D002F00F011CF80110F2E7744622E0BC
:1031940008AB03EB0800ACFB0132D20802EB82035C
:1031A400A1EB4303303300F8103C08F1010809296E
:1031B4000DD91146002CEBD008F00303032BE7D103
:1031C40008AB434403F810AC08F10108E0E7744687
:1031D40001E04FF00008A7EB080727EAE777ED1BAB
:1031E400A5EB0805FF2C0DD9023DC4F30721584671
:1031F400FFF76CF8E1B25846FFF768F804E04FF0C7
:103204000008E8E7002C4BD15A4629463046FFF720
:1032140085F85A4639463020FFF772F8B8F1010AAA
:103224000ED404AB54461C4498462178274658468D
:10323400FFF74CF8444504F1FF34F6D14FF0FF3A60
:1032440016F0100F0BD14D4615F8011B69B1252955
:103254003FF461A95846FFF739F8A946F3E75A46FF
:1032640029462020FFF74CF8EDE7DBF808303BB1A6
:10327400DBF80020DBF804108A423CBF002199549B
:10328400DBF8000009B0BDEC048BBDE8F08F4FF013
:10329400FF30F7E72E215846FFF718F83D46D6E6EB
:1032A400013DA7E767666666185B00001F85EB5162
:1032B400A85A0000205B0000CDCCCCCCDFED137A03
:1032C400B4EE670AF1EE10FA12D010EE102AC2F32F
:1032D400C7537F3B11D4162B12DC0D4921FA03F39B
:1032E40022EA030207EE902A026030EE670A704772
:1032F400C0ED007AB0EE670A7047C0ED007A7047FF
:1033040080ED000AB0EE670A704700BF00000000BD
:10331400FFFF7F0000B52DED028BF5EE400AF1EEC4
:1033240010FA83B04BD0B0EE608AF0EE408AFEF71C
:103334001DFF30B1B0EE680A03B0BDEC028B5DF83E
:1033440004FBB0EE480AFEF711FF002843D1F5EE66
:10335400408AF1EE10FAEDD0B0EE680AFEF7FCFEFA
:1033640000283FD1B0EE480AFEF7F6FE0028E1D16E
:10337400B0EE480AFEF70AFFB0EE408A88EE880AEB
:1033840001A8FFF79BFFDDED017AF5EEC08AB0EEF0
:10339400680AF1EE10FAA8EE670AB1EE487A24DD65
:1033A400B4EEC08AF1EE10FA98BF30EE480AB5EEDA
:1033B400C00AF1EE10FABFD530EE080ABCE7FEF7FA
:1033C400BFFF114B9FED110A1B68036003B0BDECF6
:1033D400028B5DF804FBB0EE480A03B0BDEC028B2F
:1033E4005DF804FB9FED090AA6E7B4EEC70AF1EE07
:1033F40010FA98BF30EE080AB5EEC00AF1EE10FAE2
:103404009ADD30EE480A97E7C85A00000000C07FF2
:103414000000000000000000000000000338FDD898
:1034240070470D0A54574920416363656C65726F98
:103434006D65746572206578616D706C6520737458
:1034440061727465640A002D2D2D2D2D2D2D2D2DC9
:103454002D2D2D2D2D2D2D2D2D2D2D2D2D2D2D2D98
:103464002D2D2D2D2D2D2D2D0A0A0A0058203D20FD
:10347400256C66200A0059203D20256C66200A0030
:103484005A203D20256C66200A0000000338FDD830
:103494007047000000000000003000400000000001
:1034A400010000005465726D696E616C00525454E1
:1034B40000534547474552002D2D2D2D2D2D2D2DE3
:1034C4002D2D2D2D2D2D2D2D2D2D2D2D2D2D2D2D28
:1034D4002D2D2D2D2D2D2D2D2D0A002573204D6FD5
:1034E400646520686173206265656E207365740A83
:1034F40000536F6D657468696E6720676F6573202C
:1035040077726F6E67207768696C65207365747471
:10351400696E6720746865202573206D6F64650A81
:10352400004E6F726D616C00536C656570004D6583
:10353400617375726500466F726D6174696E6700C0
:10354400496E61637469766974790041637469765C
:103554006974790000000000000000000338FDD801
:1035640070470000FF00FF0000FF00FF00FF00FFA6
:103574000000FF00FF0000FF0000FF00FF00FF004D
:10358400FF00000000FF00FF00FF0000FF00FF003D
:1035940000000000000000FF0000FF00000000FF2A
:1035A40000FFFF00FF00FFFF0000000000FF00001D
:1035B400FF00000000FF00FF00FF00FF00FF00FF0E
:1035C40000FFFFFFFFFFFFFFFF00FFFF00FF00FF03
:1035D400FF00FF00FF00FF00000000FF00000000EC
:1035E400FF000000000000000000000000000000D8
:1035F40000000000000000000000000000000000C7
:10360400FF00FF00FFFFFFFFFFFF00FF00FF00FFC1
:10361400FFFFFFFFFFFF00FF00FFFFFFFFFFFF00B3
:10362400FF00FF00FF00FF0000FF00FF00FF00FF9E
:103634000000FF00FF000000000000000000000088
:10364400000000FF00000000000000000000FF0078
:10365400FF00000000000000000000FF0000000068
:10366400FF00FF00FF00FFFFFFFFFFFFFFFFFFFF63
:10367400FFFF00FF00FFFFFFFFFFFFFFFFFFFFFF54
:10368400FFFFFFFF0000FF00FFFF0000000000003D
:103694000000000000000000000000000000000026
:1036A4000000000000FFFF00FF00FFFF0000FF001C
:1036B400FF00FF000000FF00FF0000FF00FF00000C
:1036C400FFFF00FF00FFFFFFFFFF00FF00FF00FF01
:1036D40000FF00FF00000000FF00FF00FF00FF00EC
:1036E40000FF00FFFFFFFF00FF00FFFFFFFF00FFE1
:1036F40000FF00FFFF0000FFFFFF0000000000FFCD
:10370400000000000000000000FFFFFF00FFFFFFBB
:10371400FF00FF00FFFFFF00FF00FFFF00FF0000AE
:10372400FFFF00FF00FFFF00FF0000FF00FF00009D
:1037340000FF00FF00FFFF00FF00FF00000000008B
:1037440000000000FF000000000000000000FF0077
:1037540000FF00FFFFFFFFFFFFFFFFFFFFFFFFFF73
:10376400FFFFFFFF00FF00FF0000FF00000000FF5D
:1037740000FF00FF00FF00FF00FFFF00FF00FF004D
:10378400FFFF00FF00FF00FFFFFF00FF00FF00003E
:10379400FF00FF00FF00FF00000000FF000000FF2B
:1037A400000000000000FF0000000000000000FF17
:1037B40000FFFF000000FF0000000000FF00FF000A
:1037C400FFFFFFFF00FF00FFFFFFFFFFFF00FFFF02
:1037D400FFFFFFFFFFFFFFFF00FFFF00FFFF0000F1
:1037E400FF00FF0000FF0000000000FF00000000D9
:1037F4000000000000000000000000FF00FFFFFFC9
:10380400FF00FFFFFFFFFFFF0000FFFF00FF0000BE
:1038140000FF00FF00FFFFFFFFFFFF00FF000000AD
:1038240000FF00FF00000000FF0000FF0000000098
:1038340000FFFF00FFFFFFFFFFFFFF00FF00FFFF90
:10384400FF0000FF00FF0000FFFF0000FF00FF007B
:10385400FF00FF0000FF0000FF0000FFFFFF00006B
:10386400FF00FF00FF00FF00FF00FF00000000005A
:1038740000000000FFFF0000FF00FF00FF00FF004A
:1038840000FF00FF00FFFFFF0000FFFF00FFFFFF3E
:10389400FFFF0000FF00FF00FF00FF00000000002A
:1038A4000000000000FF00FF000000FF00FF000018
:1038B4000000FFFF00FF000000FF00FF00FFFFFF0C
:1038C400FFFFFFFFFFFFFF00FF00FFFF0000FFFF00
:1038D40000000000FFFF00000000FFFF00000000E8
:1038E400FFFF0000000000000000000000000000D6
:1038F4000000000000000000FF000000FFFFFFFFC9
:10390400FFFF00FFFFFFFFFFFFFFFFFFFFFFFFFFC2
:10391400FFFFFFFFFFFFFFFFFFFFFFFFFFFFFFFFB3
:10392400FFFFFFFFFFFFFFFFFFFFFFFFFFFFFFFFA3
:10393400FFFFFFFFFFFF0000000000000000000089
:103944000000000000000000000000000000000073
:103954000000000000000000000000000000000063
:10396400000000000000FFFFFFFFFFFFFFFFFFFF5D
:10397400FFFFFFFFFFFFFFFFFFFFFFFFFFFFFFFF53
:10398400FFFFFFFEFEFEFEFEFEFEFEFEFEFEFEFE50
:10399400FEFEFEFEFF00010000FFFF000101020326
:1039A40005090705040202020302040606070705C7
:1039B4000403020101FFFFFFFDFBFAF8F5F4F1ED4A
:1039C400ECEAEAEEEFEDEDF2FD121A151106020231
:1039D400FEF9F7000B191D191714120F0800FF0543
:1039E4000B0F0E0903FEF7EFE8E2E0E0E0DEDFDFB5
:1039F400DEE2EE1422231D05FF0003EADCE1EB0BFB
:103A04001B1B1516191610F9EDF3000F1918161CC7
:103A14001F180F02FCFF02FD010B01F3E7DFE6E3D1
:103A2400DAD9D8D7EAFFE5E71429220FF1DEF3FE4D
:103A3400F3F0F3021E291A0E0B090E0BFCFA0814FC
:103A440020241B181D1A1007FEFC00FAF2F1F3F3F0
:103A5400EBDCD2D2D6D7D6D0D2DBF41B2F29141765
:103A64001704F0D7D4E9061114191E28261402FBF2
:103A7400FC020A0E16242B2A22140A0804FBF4F36F
:103A8400F9FBF4E7DBD7D9D6D6D4D3D7D7D8E90C0A
:103A94001E1F190D0A08FDECE8F2010F1313181F7D
:103AA400211A0D04060D1012151B22241D130D0AD4
:103AB40005FCF2F2F8F8EFE2D9D8DBD5CDCED1D4BB
:103AC400D6D7ED101F1E170E0C0AFCECECF7030CF6
:103AD4000F11192120180F090B0D0C0E141C222193
:103AE4001C17140F06FDF5F5FAF6EDE4DADCE4E054
:103AF400D9D6D5D5D5CBCFF10B131413121811FB8E
:103B0400F2F5FC0206061020231D181311130F0CE6
:103B1400121A1D1F1C17151005FDF6F6FCFAF1E824
:103B2400DFD9D7D4D1D2CFCDCECDDBFB0E11151832
:103B340018160AF8F5FAFDFF03091420211D1B19B4
:103B440016140F0D141918191A1917100702FDF974
:103B5400F9F7EFE4D8D9D9D2CFCCCFD3D7D2D6F393
:103B64000A13111012161101FAFC00030508141FA0
:103B74001E1A1B1B1A171111181A17151515140CD8
:103B840002FAFBFEF9F2EAE6E1DAD2CACCCECBCAFB
:103B9400CED2E800090F151B1C190B040402000007
:103BA40002091415161B1F1E1D19171B1A161415AE
:103BB400120F0A04FFFAF8FAF9F5EDE5E2DED4CBC8
:103BC400C9C9C8C7C7D4EBFC050D141D211A110DB2
:103BD4000C090501030A0D0D0F15191B1A191D21D6
:103BE4001E1A1614110B02FCF7F5F6F5F3F2F0EDBC
:103BF400EBE6DFDDDAD5D1D2D0D8E7EFF700080F56
:103C0400181818191A1615110D0E0C090A0B0A0C9E
:103C14000D0E0F12100E0C080500FAF6F3F0F1F178
:103C2400F1F3F6F6F6F8F8F8F9FBFAFCFBFBFBFA0D
:103C3400FBFAFBFAFAFBFBFCFCFDFEFFFF000001B4
:103C4400010202020304050606070708080808071C
:103C540007060605040302010000FFFFFFFEFEFE47
:103C6400FEFDFDFDFCFCFCFCFDFDFDFDFEFEFEFE7F
:103C7400FEFEFEFDFDFDFDFCFDFDFDFDFDFDFEFE6C
:103C8400FFFFFF0000000101010101010202020225
:103C94000202020201010101000000000000FFFF16
:103CA400FFFFFFFFFFFFFFFFFFFFFFFFFFFFFFFF20
:103CB400FFFFFFFF00000000000000FFFFFFFFFF09
:103CC400FFFFFFFFFF0000000000000000000000F5
:103CD400000000000000000000000000FFFFFFFFE4
:103CE400FFFFFEFEFEFFFFFFFFFFFF00000000FFDF
:103CF400FFFFFFFFFFFF00000000000000000000C6
:103D0400000000000000000000000000FF000000B0
:103D1400000000000000FF00FFFFFF0000000000A3
:103D240000FFFFFFFFFFFFFFFFFFFFFFFFFFFF009D
:103D3400FFFFFFFFFF000000000000000000000084
:103D4400000000000000FFFFFFFFFFFFFFFFFFFF79
:103D5400FFFFFF000000FFFFFFFFFFFFFFFF00006A
:103D6400000000000000000000000000000000004F
:103D740000000000000000000000FFFFFFFFFFFF45
:103D8400FFFFFFFFFFFFFFFFFF00FFFFFFFFFFFF3E
:103D9400FFFFFFFF00000000000000000000000023
:103DA400000000000000000000000000000000FF10
:103DB400FFFFFFFFFFFFFFFFFFFFFFFFFF00FFFF0E
:103DC400FFFFFFFFFFFFFFFFFFFFFFFFFF00FF00FD
:103DD40000000000000000000000000000000000DF
:103DE400000000000000FF00FFFFFFFFFFFFFF00D7
:103DF400000000FFFFFFFFFFFFFFFFFFFFFFFFFFCC
:103E0400FFFFFFFFFFFF00000000000000000000B4
:103E1400000000000000000000000000FF00FFFFA1
:103E2400FFFFFFFFFF0000FFFFFFFFFFFFFFFFFF9C
:103E3400FFFFFFFFFFFFFFFFFFFFFFFF000000008A
:103E4400000000000000000000000000000000006E
:103E5400000000000000000000000000000000FF5F
:103E6400FFFFFFFFFFFFFFFFFFFFFFFFFFFFFFFF5E
:103E7400FFFFFFFF0000FF000000FF000000000044
:103E84000000000000000000FFFFFFFFFFFF000034
:103E9400FFFFFFFFFFFFFFFFFFFFFFFFFFFFFFFF2E
:103EA400FFFFFFFFFFFF00FF000000000000000015
:103EB40000000000000000000000000000000000FE
:103EC40000000000000000000000000000000000EE
:103ED40000000000FFFFFFFFFFFFFFFFFFFFFFFFEA
:103EE400FFFFFFFFFFFFFFFFFFFFFFFFFFFFFFFFDE
:103EF400FFFFFFFFFFFFFFFFFFFFFFFFFFFFFFFFCE
:103F0400FFFFFFFFFF0000000000000000000000B2
:103F1400000000000000000000000000000000009D
:103F2400000000000000000000000000000000FF8E
:103F340000FF00FFFFFFFFFFFFFFFFFEFEFEFEFE90
:103F4400FEFEFDFEFDFEFDFEFCFEFCFEFCFEFCFE98
:103F5400FCFEFD010CFD0F01020F01FFFEFEFBFD47
:103F6400030604FCFCFFFF00FF040003FE02FE0343
:103F740001FC0204FE0102FD02FDFFF903FDFEFF48
:103F840001FD0101FC00FF02F802FD02FD00FFFE3D
:103F940001FDFDFF01FE01FE02FF00FFFF0000FD29
:103FA40002FD01FD00FEFC03F905FA02FEFE03FB1F
:103FB40005FB0100FF02FB03FE02FF0100FE05FDFD
:103FC4000100020102FE0003FEFFFC0201FC01FEEF
:103FD400010100FE0002FE00FFFEFF00FDFE00FFE7
:103FE400FD0101000101000100FE0000FCFF01FED3
:103FF400FFFFFFFD01FFFC010300FD0000FE00FDCB
:10400400FEFF0000FF02FE0100FEFE0101FE0000B3
:1040140000FE00FFFF0100FEFF0301FEFFFF00FFA3
:10402400FCFD0200FCFF0300FFFF000202FFFD0392
:1040340000FDFDFE0001FEFC0304FEFE0302FFFF83
:10404400FE0001FDFC0202FCFD0000FFFFFE010476
:10405400FEFE0202FFFFFFFF02FFFDFE01FEFCFF6A
:1040640000020101010201FFFFFFFEFEFEFEFEFF52
:10407400FFFEFF0101000101010100FEFFFFFDFC45
:10408400FEFFFFFF00010201020101FFFDFFFDFE33
:10409400FEFEFCFF00FF0002020203020200FFFD1D
:1040A400FEFDFE00FEFF0102010201000201FFFF0E
:1040B40001FFFEFFFEFEFFFFFE0000FDFF01FEFE0E
:1040C4000000FE0101FCFDFFFDFD010300000503EE
:1040D400FFFEFDFEFFFFFE00010201FF0000FFFDE9
:1040E400010100FF000100FEFEFDFE00FEFF0102D3
:1040F4000102000102FDFCFF00FDFE0202FFFE01C1
:1041040003FFFEFDFFFFFFFFFD0100FF00FFFF02B5
:10411400FFFD000302FE00010001FF000301FE0099
:104124000201FEFD0102FFFDFF02FEFCFEFFFEFC9C
:10413400FEFFFFFEFEFD00FFFCFCFF00FEFFFEFF96
:10414400FFFFFF0100FFFFFF000002030303020162
:10415400FF00010002040404050302020000000140
:1041640001030403020100FCFBFDFCFDFDFCFAFB62
:10417400FDFAFAF9FBF9F9F8F7F8F9FAF9FCFCFD9C
:10418400FDFCFDFD0000030405090A090A0C0B0BE4
:104194000C0C0C0E0D0D0D0B080602010303FFFBA6
:1041A400F9F4F0ECECECEDF1F2F4F1F0ECEBECEC16
:1041B400F0F3F7FAFE01040908080A0F11101012AF
:1041C400141312131414141514120F090400FCFB15
:1041D400FDFDFAF7F4EBE8E9E2DCDFE9EBE8E6E61B
:1041E400EDF2F5F4F8000705040A0B0B0B0C0F14A1
:1041F400141216181614131212100E0E0F0C0805B2
:1042040001FDFCFCF9F7F1EAE6E8E7E0DFE3E8E4C6
:10421400E0DFECF9FCFDFE070903FF020908090DC4
:1042240013171615171814100F0F100E0D0D0F0D70
:1042340009070602FCF8F9F6EEE9E7E4E3E2D9D966
:10424400DEDDDBEAFF030205090601FBF900070ACC
:104254000E161919171314130E0B0D0F0E0E0D0E47
:104264000F0C08090803FCF7F7F6EEE5E3E8EADFCC
:10427400D8DFE6DDD7EE02040001070903F6F906EC
:1042840009070A131919121015120B090D0E0F0D37
:104294000C0F110D08090A0700F8F6F7F0E7E3E937
:1042A400E9DDDBDDDBD8DDF2050704050907FDF3F5
:1042B400F90407070C1418171212120E08080B0E33
:1042C4000E0D0F100F0D0B0B0A0702FCF8F6F5ED9F
:1042D400E7E7E7E5DED9D9D8D9ED0304050A0A04EE
:1042E400FDF5F50002030A1418171412140E050341
:1042F40006080A0E1212110F0D0D0A06040300FB24
:10430400F9F9F4EBEAEDE4D9DADAD7D4E1FF0B06F4
:10431400050A0900F5F1FA0404040F18181411131E
:10432400130A03040707090E1214120F0E0D0A06CE
:104334000301FFFBF8F6F1E9EBEDDED5DADBCFD4D0
:10434400F70B0906070B07F8EDF603030309141B23
:10435400170F11150E0503040808050C1614100F89
:104364000F0D0902FF0201FBFAF8EEEBEBE3D6D8DE
:10437400D7CFCFE2060B05080E0BFDF0EEFD03FFD1
:1043840003101A1813111514090305070505070D61
:1043940013121010100D0703020301FDFDFCF1EAD6
:1043A400EFE7D7D6D5D0CDD9FA0E0A050B0D02F416
:1043B400EDF70202000A181A161313140E0402056C
:1043C400060403050E19151011110B03FEFF040159
:1043D400FC00FEF0E9E9DFD5D3CFCBCEEC0709052D
:1043E4000A0F08FBF0F3FF01FE0412191814141845
:1043F40013080406050405070D111110100F0C080D
:1044040003020303FEFDFBF2EAEBE7DCD6D3CFCCD9
:10441400D9FC0702080D0C03F7F2FD03FE010B148F
:1044240017151316160D060706040403070D1011BD
:1044340012110F0C0603030301FFFFFAEEEBEDE28A
:10444400D7D7D1CCCDE1FE0402060E0C01F7F6005D
:1044540003FF000C1516141418150D07070705049F
:1044640005090D0F0E0E0F0E0A0605060600FCFACE
:10447400F5EEE8E8E4D9D8D3CCD2EDFEFE03070C80
:104484000AFFF7FD050100040E1414121417120C90
:104494000907070503050B0C0D0E0E0F0E09060682
:1044A400060401FEFCF5EDEBE7DEDAD5D3D0D4EC5F
:1044B400FCFDFF070C0901FA00060300050E1213A8
:1044C400101317130C090A080704060A0A0A0A0C2F
:1044D4000D0D0907080704FEFAF8F2EBEAE6DEDB45
:1044E400D9D6D1DDF2F9FAFF070A07FFFE05060364
:1044F40003080E11100F1414100C0A090A070406FD
:104504000A0A09090A0D0C0807090804FEFCFAF353
:10451400ECE7E2DFDCD6D2D4E3F2F5F8FF090A05D2
:104524000002080603030A0E0F0E0F1414100C0CDD
:104534000C0B08070808070607080A0908080908F1
:104544000400FCF9F2ECEBE7E1DEDAD6D6E1ECF0BC
:10455400F5FB03070603060B0A0707090D0E0C0DEE
:1045640010110E0C0B0C0C090708080605040506AF
:10457400060405060806030100FCF7F4F1EDE8E380
:10458400E0DDDEE4E6E8ECF2F6F9FCFE04070708F9
:104594000B0D0E0F0F10100F0E0D0D0D0E0E0D0D39
:1045A4000D0C0C0B0B0B0A09090908070402FEFA8F
:1045B400F6F2ECE7E3DED7D4D4D5D6D8DDE4E9EEE1
:1045C400F5FD050B1015191D20212121201D1A1898
:1045D400161513100D0C0A0705030201FFFEFDFD5D
:1045E400FCFAF8F6F3F0EDE9E5E2DDDADADBDBDE3E
:1045F400E3E8EDF2F800070C1016191C1F1F1E1E2D
:104604001C18161311100E0B0A09070604030201E5
:1046140000000000FFFFFDFCFAF6F4F1EDE9E5E02F
:10462400DCDBDCDCDDE1E6EAEFF4FC03080D121769
:104634001A1D1E1E1E1C1A17151312100E0C0A0921
:10464400070503030200FFFFFFFFFEFDFBF9F6F47D
:10465400F1EEEBE7E2DEDDDDDCDDE0E5E8EDF2F9ED
:1046640000060B1015191C1E1F1F1E1C19161412F0
:10467400100E0C0B090605030201FFFFFFFFFEFDF0
:10468400FDFCFAF8F6F3F1EDEAE7E3E0DEDEDEDF67
:10469400E3E7EAEFF4FB01060B1115191B1D1E1EBF
:1046A4001D1A181514110F0D0C0A08060403020034
:1046B400FFFFFFFEFEFDFDFCFAF8F6F5F2EFEDEA72
:1046C400E7E3E1E1E1E1E3E6EAEEF2F8FD03080CF9
:1046D4001115181A1C1C1C1A18161413110F0D0B83
:1046E40009070504020100FFFEFEFDFDFCFCFBF9C9
:1046F400F8F6F5F3F0EEECE9E7E5E5E5E5E7EAECF5
:10470400F0F3F8FD01060A0E1114161819191816FB
:10471400151312100E0D0B090705040201FFFEFE0E
:10472400FDFDFCFCFCFBFAF9F8F7F6F5F3F2F0EE0C
:10473400EDEBEBEBEBECEEF0F2F5F7FCFE0106082B
:104744000B0E10121313131211100F0E0D0B0A0877
:10475400070504030201FFFFFEFEFDFDFCFCFCFB5C
:10476400FBFAFAF9F9F8F7F6F5F4F4F3F3F2F3F3E4
:10477400F4F5F6F8FAFBFDFF0103050708090A0B37
:104784000B0B0B0B0A0A09090808070605040302A8
:10479400010000FFFEFEFDFDFDFDFDFCFCFBFBFB3F
:1047A400FBFBFAFAFAFAF9F9FAFAFAFAFBFBFCFC5F
:1047B400FEFEFFFF000000010202020303040404E2
:1047C40004040404040303030303020201010100BB
:1047D4000000FFFEFEFEFEFEFDFDFDFDFDFDFDFDF8
:1047E400FDFDFEFEFEFEFFFFFFFFFFFF00FF0000DA
:1047F40000000001000100000000000000000000B3
:104804000000FFFFFFFFFF00FFFFFF00FFFF00FFAF
:10481400FFFFFFFFFFFFFF00FFFFFFFFFFFFFFFFA3
:1048240000FF000000000000000000000000000085
:1048340000000000000000FFFF000000FFFF00FF79
:10484400FFFFFFFFFFFFFFFFFFFFFFFFFFFFFFFF74
:10485400FFFFFFFFFFFFFFFFFFFFFFFFFFFFFFFF64
:10486400FFFFFFFFFFFFFFFFFFFFFFFFFFFFFFFF54
:104874000000010202080D02FF00FAFEFDFDFFFC2C
:10488400FCFFFEFD00FFFE030001010102FF00002A
:1048940000FF02FE000001FEFE02FB01FEFB02FD22
:1048A400FEFFFC01FDFE03FC0004FB04FF0000020C
:1048B40000FF02FE02FE01FD02FFFD03FC0000FCFE
:1048C40004FB0004F80500F907FCFE04FC010001E8
:1048D40000FF010000FE05F90404F707FEFC03FFD6
:1048E400FE00FF00FFFE01FFFE03FB0200FC05FAD1
:1048F40001FF00FFFF01FE05F80600FD04FB0301B4
:10490400FA0302FBFF03FDF90DF20400FC02FC01B3
:10491400FD05F806FB0100FFFE02FF0000FF02FF99
:10492400FF0103F807FBFE03FDFD02FFFE03FEFE8D
:10493400FF03FDFFFF02FD02FC0002FB08F7030278
:10494400FFFC0300FA09FCFC06FC0101FB04FA0667
:10495400F806FEFD01FE02F60DF7FD06FE00FE045C
:10496400FD0100FD03FC03FEFE03FC000003F9024D
:1049740004FBFE0006FBF90506F30404F70502F840
:1049840005FDFF09F30401FE00FDFF04FEFA03FE2A
:1049940000FD03FFFC07FDF80801F70B00F20E020F
:1049A400F30107FEFEF90AFFF40FF30205F706FE12
:1049B400F70DF7FC10EB0C03F20803F50A00F312F1
:1049C400EE0409EC0E04F10905EA1600E31DFFE606
:1049D4001BF8EE1BEB030BF00704F10B07E915FCC6
:1049E400F111FEF10C04F10CF80209E915F9F414C3
:1049F400EFFE0DF6FD06FA09F6FD0DF50204F605C7
:104A040002FF01FC00FE05FBFC0304FFF70AFFFDA7
:104A140003FD01FF01FC04FC02FFFA04FC03FFF5A3
:104A24000803F504FE04FAFE0502F9FD0BF8000381
:104A3400FFF80CFEF507FD03FB06F90501FC05F87C
:104A44000CF6030102F9FF0BF1050200FA07FFF669
:104A54000807F2F90EFFF60007F90009F2FF08FF54
:104A6400FDF610FEF20C02F30CFFF40AFD02FAFE4E
:104A74000CF6FB10EF050CED0BFDFE05F90206F636
:104A84000502F804FEFC04FCFD0AF70303FFF70C1F
:104A9400FCF20EFAFFFF0002F30A01EE0EFEFB0227
:104AA400FF02FFFD01FF0001FFFC0501F30DFDF90D
:104AB40005FE0001FDFF04FC0300FC0201FDFF00F4
:104AC400FF03FB0001FE02FCFF01FF00FD0303FCEA
:104AD4000106F60306FBFFFF00FEFE01FFFA05FBDD
:104AE400FF03FDFB0501FD01FD06F90102FE0002C5
:104AF40000FC02FE01FFFC05FDFF04F80400F903BD
:104B040000FF01FB0500FC05FFFB05FFFC01FD03A5
:104B1400FCFF01FD0100FEFE01FFFDFD0400FA01A2
:104B24000200FD0101FC0502F90207FDFB0201FD83
:104B340000FFFF020300FE0302FEFE010001FEFE71
:104B44000201FEFF00FE01FEFDFFFEFE00FEFEFE72
:104B5400FD00FEFE0000FF0000FEFFFEFFFFFF0061
:104B6400FFFF0100FF000000020101020102020137
:104B7400020201010100010001010101FFFF00FF28
:104B8400FEFEFFFEFDFEFFFEFDFDFDFCFCF9F9FB54
:104B9400FBF9FAFCFDFDFCFCFEFFFFFF020302042F
:104BA40005050506060607070505070705060605A4
:104BB400050605030303020100FEFCFCFBF8F7F8FD
:104BC400F6F3F2F1F0EFEDEDECECEDEEF1F6F9FCCD
:104BD40001070A0D10111111100F0F0E0B0B0B0B07
:104BE4000A09090B0A0A0A0B0B0A0908060502FE40
:104BF400FCFBF7F3F2F1EEEBEAE9E4DFDDDADEF1F8
:104C0400F5EEFD0D0D0B0D12110D0A050405FDF653
:104C1400F9FCF8F3F7FEFF0004080F12111416153F
:104C2400110E0D0B06040405050506080B0B0908F7
:104C3400070401FFFCF9F4EEEBE7E0DAD5D1CFD3BA
:104C4400EAF7F1FE1118141215140D06FFFBFDF519
:104C5400EEF1F8FAF6F90408090B0E13130F0E100F
:104C640010080305060202060A0B0C0E1012110DA1
:104C74000B0B06FEFAFAF7F2F0EFEDE9E6E3E0DCFF
:104C8400D5D1DCFAFBF20417170E0C0F0D0600F851
:104C9400FBFEF5F0F70100FA000A0908080A0E0DF8
:104CA40007050C0F0701080B0704080F0F0D0D1063
:104CB400130F09070805FEF9FAFAF6F3F3F2F0EB1D
:104CC400E7E5E1D8D1CFDEFAFAF4081C1C0F0D1287
:104CD4000D02FAF5F9F9F1EFF70302FC040F0D08E0
:104CE400070A0C090300070B0803060D0C07080F3D
:104CF400130F0B0E100F0704060600FAFAFCFBF65E
:104D0400F7F9F8F3EDE9E9E5D9D0D0D5EDFFF801ED
:104D14001922160E100F02F9F4F3F6F1EEF401075E
:104D240002030F120B0707080501FD01060605091A
:104D34000C0E0D0C0E10110D0A0C0D0803030502C8
:104D4400FEFCFDFDFCF9FAFDFCF5EFEDEDE7DDD62B
:104D5400D4D2D8F302FC091E21150E0E08FBF6F07E
:104D6400F0F3F3F2F9060A0608111008040403002C
:104D7400FDFC010608090D10110F0D0F100C080899
:104D84000A08040203040200FF00FFFEFDFCFCF914
:104D9400F3EEEDEAE7E1DDDAD7D6E7030600112109
:104DA4001C0D070800F6F1EEF4F8F6F7020D0D06F7
:104DB4000A100A02FF0000FEFCFE050A0A0C121289
:104DC400100D0D0D0A070606070605050505040165
:104DD4000101FFFEFCFCFBF9F4EFECEBECE8E1E095
:104DE400E0DCDBF0090401131E14070504FBF7F4EF
:104DF400F2F8FDFCFE060F0B05090B04FFFEFFFE97
:104E0400FF0002070C0C0C0D0D0C09090909080818
:104E1400090A0A0A0908080705030200FDFBFAF853
:104E2400F5F1EFEDEAE5E2E2E0DEDEE2EFFCFD02C1
:104E34000A0E0C080300FFFDFCFD0105090B0C0E16
:104E44000C090702FEFDFCFBFCFF0105060709092E
:104E54000A0807060708080A0B0D0D0E0E0D0C0AAA
:104E64000907050300FDFAF9F7F4F1EFEEEBE6E2CA
:104E7400E2E1E0E1E0E5F2FAFE02070A0B070100D5
:104E84000000010104090C0C0C0C0A0804FFFDFDD0
:104E9400FCFCFD00030607070909090706060708C5
:104EA400080A0D0E0E0E0E0E0D0A07050302FFFC76
:104EB400F9F9F9F6F2F0F0EFEAE4E2E3E3E1E0E233
:104EC400EBF6FBFF04080C0A0501010201010206CE
:104ED4000A0A0A0A0B090702FFFFFEFDFCFE010491
:104EE4000606080909090806070808080A0D0E0D30
:104EF4000D0D0D0B0806050301FEFCFBFAF9F6F394
:104F0400F2F0EDE8E4E4E4E3E1E1E4EBF5F9FE03D7
:104F1400070A080401010101020307090A0A0A0A2F
:104F240009070200FFFEFEFEFF010405060708084C
:104F3400080706060708080A0C0E0E0E0E0C0B09CD
:104F440007040301FFFDFCFBFAF7F4F2F1EFEBE7D2
:104F5400E4E5E5E3E3E4E7F0F8FBFF03070907030F
:104F640002030303040407090909090807050100EA
:104F7400FFFEFFFFFF0104040506070808070607F4
:104F84000809090A0D0E0D0D0C0B0B09060403018B
:104F9400FFFDFBFBFAF7F4F2F0EEEBE7E5E6E5E400
:104FA400E4E5E8F1F7FAFF02060806030304040542
:104FB400040507080908080707050201FFFFFFFFAA
:104FC4000001030405050607070707070709090A7F
:104FD4000C0C0C0D0C0A0A0807060402FFFEFCFB6D
:104FE400F9F6F4F2F1EFECEAE9E8E7E7E6E7E8EEF0
:104FF400F4F7FCFE03040605040505070606060788
:105004000808070706050302010101010101020264
:105014000404050506070607070809090B0B0B0B13
:105024000B0A0908070605030200FEFDFBF9F7F564
:10503400F4F2EFEDEBEAE9E8E7E7E8EAEEF2F5F897
:10504400FCFF020303040607080808080909080806
:105054000706060404020202020202020203030417
:1050640004040505050607080909090A0A0A0909C5
:105074000808070504020100FEFCFAF8F6F4F1EE54
:10508400ECEAE9E8E7E6E7E8EAEDF0F2F5F9FBFE39
:10509400FF01040608090A0B0C0C0C0C0B0B0A0983
:1050A40008070605050404030303020203030304BB
:1050B4000405060707080809090909090808070675
:1050C40004030100FEFBF9F7F4F1EFECEAE8E6E58E
:1050D400E4E3E4E5E8EAEDF0F4F8FCFF0306090C88
:1050E4000E1010111111100F0E0D0B0908060504F6
:1050F4000302010000000000000001020304050691
:105104000708090A0A0A0A0A0A090706040200FE2D
:10511400FCF9F6F4F1EEEBE9E7E6E5E4E4E4E6E9CC
:10512400EBEEF2F6F9FD0003060A0C0E0F10111156
:1051340011100F0E0C0B09070604030302010000F3
:10514400FF00000001010203040506070809090A1B
:105154000A0A0A09080705040200FEFBF9F6F4F13D
:10516400EEECEAE8E7E5E5E5E6E7E9ECEFF2F6F987
:10517400FD000306090C0D0F0F1010100F0E0D0C7F
:105184000B09070605030302010000FFFF000000EE
:105194000102020405060707080909090A090908A2
:1051A4000806040201FFFDFBF8F5F3F1EEECEAE971
:1051B400E8E7E6E6E7E9EBEEF0F3F7FAFE000306CC
:1051C400090B0C0E0E0F0F0F0F0E0C0B0A0907061E
:1051D40005040302010100000000010101020304AF
:1051E4000505060708080809090908070605030153
:1051F40000FEFCFAF7F5F3F0EEECEAE9E8E8E7E89C
:10520400E9EAEDEFF2F5F8FBFE010406090B0C0DDB
:105214000E0E0E0E0E0D0B0A0908060504030302FA
:105224000101000000000001010203040405060757
:1052340008080809090908070605040201FFFDFB1F
:10524400F9F7F5F2F0EEEDEBEAE9E9E9EAEAECEE7A
:10525400F0F3F5F9FBFE010306080A0B0C0C0D0D27
:105264000D0C0C0B0A0908060504030302010101D5
:1052740001010101010203030404050607070708ED
:1052840008080807060605030200FFFDFBF9F7F509
:10529400F3F1EFEEECECEBEBEBEBECEDEFF1F3F623
:1052A400F8FBFE00020406080A0B0B0C0C0C0C0B9A
:1052B4000A090908070605040303020201010101A2
:1052C400010202030304040505060607070707078E
:1052D40006060504030200FFFDFCFAF8F7F5F3F1F6
:1052E400F0EEEDEDEDEDEDEEEFF0F1F3F5F8FAFCA7
:1052F400FF0102040607090A0A0A0A0B0A0A090836
:10530400080706050504040302020202020202025F
:10531400020303040405050606060606060606053A
:105324000403020100FEFDFBFAF8F6F5F3F2F1EFD7
:10533400EFEEEEEEEEEFF0F1F3F4F6F8FAFCFE0029
:1053440002030506070809090909090908080707E6
:105354000605050404030303030202030303030312
:1053640004040405050505060605050505040302F0
:105374000100FFFEFCFBF9F8F6F5F3F2F1F1F0F0B1
:10538400F0F0F0F1F2F3F4F6F8F9FBFDFF0002039C
:1053940004060607070808080807070706060504A1
:1053A40004040303030202030303030304040404C5
:1053B40005050506060606050505040403020100A5
:1053C400FEFDFCFBF9F8F6F5F4F3F2F2F1F1F2F27A
:1053D400F2F3F4F5F6F7F8FAFBFDFE00010203041C
:1053E4000506060606060706060605050504040462
:1053F4000303030303030303030404040404050570
:1054040005050505050504040303020100FFFEFD6F
:10541400FCFBFAF8F7F7F6F5F4F3F4F4F4F4F4F526
:10542400F6F6F7F8F9FAFCFDFDFE000102030303AA
:10543400040505050505050505050404040404041F
:105444000404040404040404040404040405050515
:105454000404040403030202010000FFFEFDFCFB3C
:10546400FAF9F8F8F7F6F6F6F6F6F6F6F6F7F7F8C8
:10547400F9F9FAFBFCFCFDFEFFFF00010202020346
:1054840003030304040404040404040405040404DA
:1054940005050505050505050505040404040303C0
:1054A400020201010000FFFFFEFDFDFCFBFBFAFA16
:1054B400F9F9F9F9F8F8F8F8F8F8F9F9F9FAFBFB59
:1054C400FBFCFCFDFDFEFEFEFFFF000001010202ED
:1054D4000203030304040404040505050505050586
:1054E400050404040404040303030202020101008A
:1054F4000000FFFFFEFEFEFDFDFDFCFCFCFCFBFBD3
:10550400FBFBFBFBFBFBFBFBFBFBFCFCFCFCFDFDDF
:10551400FDFDFDFEFEFEFEFFFFFF00000000010199
:10552400010202020203030303030303040303034C
:10553400030303030303020202020101010000004A
:1055440000FFFFFFFFFEFEFEFEFEFDFDFDFDFDFD77
:10555400FDFDFDFDFDFDFDFDFDFDFDFDFDFEFEFE74
:10556400FEFEFEFEFEFEFEFEFFFFFFFFFFFF00004D
:105574000000000001010101010102020202020215
:105584000202020202020101010101010100000004
:10559400000000FFFFFFFFFFFFFFFFFEFEFEFEFE19
:1055A400FEFEFEFEFEFEFEFEFEFEFEFEFEFEFEFF16
:1055B400FFFFFFFFFFFFFFFFFFFFFFFFFFFFFFFFF7
:1055C40000000000000000000000000000000001D6
:1055D40001010101010101000000000000000000C0
:1055E4000000000000FFFFFFFFFFFFFFFFFFFFFFC2
:1055F400FFFFFFFFFFFFFFFFFFFFFFFFFFFFFFFFB7
:10560400FFFFFFFFFFFFFFFFFFFFFFFFFFFFFFFFA6
:10561400FF00000000000000000000000000000087
:105624000000000000000000000000000000000076
:10563400FFFFFFFF000000FFFFFFFFFFFFFFFFFF73
:10564400FFFFFFFFFFFFFFFFFFFFFFFFFFFFFFFF66
:10565400FFFFFFFFFFFFFFFFFFFFFFFFFFFFFFFF56
:10566400FFFFFFFFFFFFFFFF00000000000000003E
:105674000000000000000000000000000000000026
:105684000000FF00FF000000000000000000000018
:1056940000000000FF00FF00FF00FFFFFFFFFF000E
:1056A400FFFFFFFFFFFFFFFFFFFFFF00FFFF000003
:1056B40000FF00FF00FFFFFFFFFFFFFF00FF0000F0
:1056C40000000000FF00FF00000000000000FFFFDA
:1056D400FF00FFFFFFFFFFFFFFFFFFFFFFFFFFFFD5
:1056E400FFFFFFFF0000FFFF00FF0000FF000000BE
:1056F40000000000000000000000000000000000A6
:105704000000000000000000FF00FFFF00FF00FF9A
:1057140000FFFF00FF00FF000000FF00FF00FFFF8D
:1057240000FF00FF00FFFFFFFFFFFFFFFFFFFFFF82
:10573400FFFFFF00FFFF00FF0000FF00FFFF00FF6F
:1057440000000000FF0000000000000000FF000057
:10575400000000000000000000000000FF00FF0047
:10576400FFFF00FF00FFFF00FF00FF0000FF00FF3E
:10577400FF00FF00FFFF0000FFFFFFFFFFFFFFFF31
:10578400FFFF00FF00FF00FFFFFF00FF000000FF1E
:1057940000FF00FFFF000000000000000000000008
:1057A40000FF00FF00000000FF00000000000000F8
:1057B400FFFFFFFF00FF00FF00FF000000FF00FFEE
:1057C40000FF00FF0000FF000000FF0000FF00FFDB
:1057D40000FFFFFFFFFFFFFFFF00FF0000000000CE
:1057E4000000FF00FF0000FF0000FF00FF00FF00BB
:1057F40000000000000000000000000000000000A5
:1058040000000000000000FF00FFFFFFFF00FF009A
:10581400FFFFFFFFFFFFFFFFFF00FF00FF00FFFF91
:10582400FFFFFFFF00FFFFFFFFFFFFFFFF00FF0081
:10583400FF00000000FF00FF00FF0000FF00FF006A
:10584400FF000000000000000000000000FF000056
:1058540000000000000000FF00FFFFFF00FF000049
:10586400FF00000000FF00000000FFFF00FF00FF3A
:10587400FF000000FF00FFFFFFFFFFFFFFFFFFFF30
:10588400FFFF0000000000000000000000FF00FF18
:1058940000FF00FF00FF00FF000000000000000008
:1058A4000000FF00000000FF00FF00000000FF00F8
:1058B400FF00FFFFFF00FF0000FF000000000000EA
:1058C400000000000000FF00FF0000FF00FFFFFFDA
:1058D40000FFFFFF00FF000000FF00FF00000000CA
:1058E40000FF00FF00FF00FF00FF00FF00FFFF00BC
:1058F400FF00FF00FF00FF00FFFFFFFFFF000000AD
:10590400FF00FF0000FF00FF000000000000000097
:1059140000000000FF00FF00FFFFFFFFFF00FF008B
:10592400FF00FF0000FFFFFFFFFFFF00FF00FF007D
:10593400000000000000FF00FF00FF00FFFFFF0069
:1059440000FF00FF0000FF00FF00FF000000000058
:1059540000FF00000000FF00FFFF00FF00FF000049
:10596400FF00FF0000FF00FFFF00FF00FFFFFFFF3D
:10597400FFFFFFFFFF00FF00FF00FFFF00FF00FF2E
:1059840000FF00FF00FF00FF00FF000000FF00FF1A
:105994000000FF00000000FF0000000000FF000006
:1059A4000000FF00000000FF000000000000FF00F6
:1059B400FFFFFF0000FF00FF00FF00FF00FFFFFFED
:1059C400FFFFFFFFFFFFFFFF00FFFF00FF00FF00DF
:1059D400FF00FF00000000000000000000000000C5
:1059E400FFFF00FF00FF00FF00FF00FF00FF00FFBC
:1059F400000000FF0000FF00FF00FF0000000000A7
:105A040000FF00FF00FF00FFFF00FF00FF0000FF9A
:105A1400000000FFFFFFFFFFFFFFFF0000FFFF008C
:105A2400FFFFFFFFFFFFFF00FF00FF000000FF007C
:105A3400FF000000000000FF0000FF000000000065
:105A440000FF00FF00FF00FF0000FF00FF00000058
:105A540000FF00FF00FFFFFF00FF0000FF00FF004A
:105A6400FFFF00FF0000000000FF00FF00FF00FF39
:105A7400000000000000000000FF0000FF00FF0025
:105A8400FF0000FF0000FF0000FF00FF000000FF18
:105A940000FF00FF00FF00FF00FF00FF0000FF0009
:105AA400FF00000030313233343536373839616223
:105AB40063646566303132333435363738394142C0
:105AC4004344454621000000000020410000C84234
:105AD40000401C4620BCBE4CCA1B0E5AAEC59D7469
