:1000000000000420750300005D0300005F03000092
:1000100061030000630300006503000000000000AE
:100020000000000000000000000000006703000066
:1000300069030000000000006B0300006D03000076
:100040006F0300006F03000085160000F11600002A
:100050006F0300006F0300006F0300006F030000D8
:100060006F0300006F0300006F0300006F030000C8
:100070006F0300006F0300006F0300006F030000B8
:100080006F0300006F0300006F0300006F030000A8
:100090006F0300006F0300006F0300006F03000098
:1000A0006F0300006F0300006F0300006F03000088
:1000B0006F0300006F03000000000000000000005C
:1000C0006F0300006F0300006F0300006F03000068
:1000D0006F0300006F0300006F0300006F03000058
:1000E0006F0300006F0300006F03000000000000BA
:1000F000000000006F030000000000006F0300001C
:1001000000000000000000000000000000000000EF
:1001100000000000000000000000000000000000DF
:1001200000000000000000000000000000000000CF
:1001300000000000000000000000000000000000BF
:1001400000000000000000000000000000000000AF
:10015000000000000000000000000000000000009F
:10016000000000000000000000000000000000008F
:10017000000000000000000000000000000000007F
:10018000000000000000000000000000000000006F
:10019000000000000000000000000000000000005F
:1001A000000000000000000000000000000000004F
:1001B000000000000000000000000000000000003F
:1001C000000000000000000000000000000000002F
:1001D000000000000000000000000000000000001F
:1001E000000000000000000000000000000000000F
:1001F00000000000000000000000000000000000FF
:10020000354936480A1A02D0072291438D463449AF
:1002100034480A1A06D00722914381F30988022242
:1002200082F3148830483149314A00F044F83148AB
:100230003149324A00F03FF831483249324A00F041
:100240003AF832483249334A00F035F832483349F7
:10025000334A00F030F833483349344A00F02BF881
:1002600033483449344A00F026F8344834490022EF
:1002700000F02CF833483449002200F027F83348C6
:100280003349091A082902DB002202604160314A21
:1002900090471F481F49884205D00268043003B4C4
:1002A000904703BCF7E700208646EC46002000217B
:1002B000294A9047FEE7884207D0521A05D00378B2
:1002C00001300B700131013AF9D17047884202D0F8
:1002D00002700130FAE770470000042000E00320BC
:1002E0000000042000000420A848000000000020B6
:1002F00034000020D4030000D40300005C4200005E
:10030000A84800000000002000000020A8420000D3
:10031000A8420000A8420000A8420000A842000035
:10032000A8420000A8420000A8420000A84800001F
:10033000DC4800003400002034000020340000209D
:1003400050090020500900205409002054090020C1
:10035000542900209D030000B5250000FEE7FEE7BC
:10036000FEE7FEE7FEE7FEE7FEE7FEE7FEE7FEE765
:10037000704700BF1048804710484FF0070188437E
:1003800085460F4880470F48016841F470010160BD
:10039000BFF34F8FBFF36F8FFFF732BF0A480B4990
:1003A0000B4A884207D0521A05D0037801300B70EF
:1003B0000131013AF9D170477103000000000420B7
:1003C0008D28000088ED00E0A84200000000002019
:0403D0000000002009
:1003D4000048704748090020F0B595B01D46164600
:1003E40008460C4600F0F2FF1A9B0D93CDE9086510
:1003F40000252B46082205A920460A958DF82C5085
:100404000C9501F000F8079B0293069B03939DF85B
:1004140014308DF8115003F00302012A1DD1BDF8E8
:100424001420059DC3F3C203C2F383168DF8103064
:10043400B20008230EA9204600F0E5FFC5F3952578
:1004440008AB0093324602AB0EA9284600F0BCFB71
:10045400204600F0BFFF15B0F0BD022AF8D1BDF868
:100464001650C3F3C203C5F389158DF8103008275D
:10047400082D2E4628BF08263B4632460EA92046A4
:1004840000F0C1FFAD1B08AB02AA31460EA83744E9
:1004940000F0FEFB002DEBD1DAE70000014B012256
:1004A4001A707047750000207047000070B5124D37
:1004B40006460FCD88B06C460FC495E80F00002E99
:1004C40084E80F004FF0FF334FF00602CDE900231C
:1004D400CDE90233094A0A484FF0EB7308BF002202
:1004E4006946069301F08EF808B100F02BFC054B29
:1004F4001E7008B070BD00BFA8420000A104000037
:10050400000000203400002007B5044B0093044A87
:100514004023FFF761FF03B05DF804FB29050000E9
:100524003500002038B50D4B0D4D002018700D48D6
:1005340004782D5DD2B21C4665B1043001F0BCFFD5
:1005440008B100F0FFFB084B1A7812B12378002B96
:10055400FBD038BD0C3001F093FDF1E775000020AD
:1005640028060020000000203400002008B50848B8
:10057400084A0378D35C3BB1043001F049FFBDE87D
:1005840008400020FFF792BF0C3001F025FDF6E78C
:1005940000000020280600200120FFF787BF00008C
:1005A40008B5FFF7F9FF0448042100F075FA034B7E
:1005B40001225A7108BD00BF8442000014000020CB
:1005C400037813F0040216D003F00303012B03D0C5
:1005D400022B09D0012070470A6800880232C0F358
:1005E400831002440A60F5E70B684288023303EB88
:1005F40092130B60EEE71046704700002DE9F04FB0
:10060400044685B0861C00200F46154600F0F2FB18
:10061400454801683960D0E90132134401335B1A5B
:10062400824600F21C4700F5836900F21448B34285
:100634001BD30020002D72D004F00F039B0143F064
:10064400050363F30F00DAF80020DAF808301340EA
:10065400033316444AF823000020CAF8006000F06F
:10066400CBFB012005B0BDE8F08F0121384600F036
:10067400E8FB484600F0FDFB404600F0FAFBDAF8E0
:100684000400DAF808B0009000EA0B0003300AEB2B
:1006940080006946FFF794FF009B50BB0BEA0302FE
:1006A4000AEB820203F1020CD2680192013303EADD
:1006B4000B0B0AEB8B0B02F00302012ADBF80C1084
:1006C400CDF800C023D0022A16D08346404600F05D
:1006D400D3FB10B1009BCAF804305946384600F0E9
:1006E400B0FBDAE901231344DAF8002001339B1A42
:1006F4009DE70BEA0300C9E7BDF80630C3F389138D
:1007040003334FEA114B0CEB93030093DEE7BDF880
:100714000430C3F383134FEA114B6344F5E7A40594
:1007240044F006008FE700BF480100200B4B0C4843
:10073400FF2210B59A600022C3F81824C3E90022EE
:10074400C3F8142483F8202400F0F9FD044610B9FA
:10075400044800F062FE204610BD00BF480100209E
:1007640094420000FC42000030B50A4C71B10A4AC0
:100774000A49121BD20800239A4201D1002030BD3D
:1007840031F82350854202D00133F5E7034654F88B
:100794003300F4E75C4200008442000000000020C3
:1007A400094B013903EBC000032909D8DFE801F044
:1007B4000A020406042070470079704740797047A4
:1007C40000207047022070475C420000034BD3E9CD
:1007D4000030C31A58425841704700BF48010020F6
:1007E4002DE9F04385B0FFF7F1FF0646002840F0FD
:1007F400F5807B4DC5F81804BFF34F8F6B68AC6868
:1008040000932340033305EB83006946FFF7D8FECA
:10081400009B18B1D5F81824002A5FD004EA03021B
:10082400991C013305EB8202234005EB8303D26854
:10083400DB68029302F00303022B0192009160D162
:10084400BDF806306748C3F38917502FB84628BF50
:100854004FF0500868F38F1308F10801ADF8063023
:1008640000F085FD0646002800F0A38000F0AEFDF0
:100874000023082201A9304600F0BBFD009924EAB8
:1008840001020132B8EB820F4FEA820332D95FFAD8
:1008940088F85BB32140DCB2A8EB040803315FFAAB
:1008A40088F9A046504C05EB8101082342463046A6
:1008B40000F09FFD34B108F108034A462146304652
:1008C40000F097FD009B033703EB97070097D5F8DB
:1008D4001834002B49D1D5F8104459E02A689A42BB
:1008E4008FD86A60304605B0BDE8F0833E491C46A7
:1008F4009946DAE70C40E11C0823424605EB8101E6
:10090400DDE7012B55D1BDF804303648C3F383111C
:10091400062928BF062161F3891302318900ADF845
:10092400043000F024FD0646002842D000F04EFDBD
:100934000023082201A9304600F05BFD0027BDF822
:100944000420C2F38312BB00974203F10803BED212
:1009540000994A1C21400331009205EB81010422D5
:10096400304600F046FD0137E9E7304600F032FD3D
:10097400FFF72CFF80F00100C6B2B3E7E3685B79B0
:1009840023B1236831461B6820469847E3681C68F6
:10099400002CF3D1304600F01DFD204600F02AFA69
:1009A400D5F818340BB9009B6B60002000F024FAD2
:1009B400DEE7D5F8104454B90C4B0D480D49C01A64
:1009C400C008000440F0020000F062F8D0E7236899
:1009D40020469B689847E3681C68ECE7002681E79B
:1009E4004801002094420000540100205C420000B1
:1009F4007C420000E54200002DE9F74F224D0446F9
:100A04000F46924601A901221846D5F808909B4644
:100A1400FFF7F4FD20B3019E4FF00008B21CD84547
:100A240008EB020126D11948002100F0E7F980F310
:100A34001000000440EA1440E400731C04F038047D
:100A440003EA090306EA090644F0010405EB8303FB
:100A5400033644EA881444EA8724D86045F82640DB
:100A640095F820341BB1FFF7BBFE0028FBD103B07F
:100A7400BDE8F08F09EA010105EB81015AF828303D
:100A8400CB6008F10108CAE7480100206405002092
:100A940000231A46FFF7B0BF30B50F49D1F8102430
:100AA40003460020144634B9DC6820714AB9C1F801
:100AB4001034226030BDE4682579854206D024686C
:100AC400F1E7D268116821601360F3E701300A2866
:100AD400E8D14FF0FF30EDE748010020094A38B56E
:100AE4000123D2F8104482F820341D4604B938BDDD
:100AF400E3685D71236820465B689847E3681C6877
:100B0400F4E700BF4801002007B503460846197AF8
:100B1400052911D05B7A2BB1094A0A49019000F0EA
:100B240005FA01980849019000F000FA019803B011
:100B34005DF804EB00F0EFB9002AF8D0F2E700BF4B
:100B4400084300000D4300002D43000030B5C38866
:100B540085B004460D4633B1144A00921449154A2F
:100B6400284600F0E3F9217A05291DD0637A4BB1B8
:100B7400A088FFF715FE104B104953F82020284693
:100B840000F0D4F9227A0E4BA08853F82220039265
:100B94000021FFF7E9FD039A0A490346284605B0F8
:100BA400BDE8304000F0C2B905B030BD08430000D4
:100BB4001843000010430000944300000D4300005C
:100BC400B8430000304300002DE9F04385B01F46D0
:100BD4000C9D002395F80C902B7306460C4690460A
:100BE40029463846FFF7B2FFB8F1060F09D8DFE807
:100BF40008F00412181F283340003146284600F03C
:100C040095F9002229463846FFF77EFF85F80C90B7
:100C140005B0BDE8F08322683146284600F086F925
:100C2400EFE7D4E900233146284600F07FF9E8E7EE
:100C3400A36800933146D4E90023284600F076F9EE
:100C4400DFE7E3680193A36800933146D4E9002306
:100C5400284600F06BF9D4E723690293E368019313
:100C6400A36800933146D4E90023284600F05EF9D6
:100C7400C7E76369039323690293E3680193A36855
:100C840000933146D4E90023284600F04FF9B8E731
:100C940008292DE9F74F80460E4617461C4639D8D9
:100CA400002593F80C901D7319461046FFF74EFF6C
:100CB400DFF880A0DFF880B0AE422ED918F8052006
:100CC4005946204600F032F90135082DF4D118496F
:100CD400DFF868A0DFF868B0204600F027F90025A7
:100CE400AE421FD918F805200192104602F046FAC8
:100CF4000028019A594608BF2E22204600F016F912
:100D04000135082DECD1012221463846FFF7FCFEBF
:100D140084F80C9003B0BDE8F08F5146204600F0F3
:100D240005F9D1E75146204600F000F9E8E700BF95
:100D340044430000404300003A43000042430000A3
:100D4400464300001FB50021039001AA44F20100AC
:100D5400CDE9011100F004F805B05DF804FB0000D2
:100D640010B572B6FFF7BAFEFFF73AFD0028FBD1C3
:100D7400104B114C1149E41AE408240444F0010016
:100D8400FFF786FE0E4B1B68DB0700D500BE0D493E
:100D940044F00200FFF77CFEBFF34F8F0A490B4B70
:100DA400CA6802F4E0621343CB60BFF34F8F00BF05
:100DB400FDE700BF5C4200007C420000CC43000021
:100DC400F0ED00E0D843000000ED00E00400FA0577
:100DD40072B6024A13680133136070470406002098
:100DE400034A1368013B136003B962B6704700BF3E
:100DF40004060020FFF7ECBFFFF7F2BF10B503466F
:100E040053E8000F0A4643E8002494F0000FF7D19A
:100E140010BD10B5034653E8002F42EA010043E831
:100E2400000494F0000FF6D110BD10B5034653E84A
:100E3400000F00EA010243E8002494F0000FF6D109
:100E440010BD10B5034653E8002F02EB010043E840
:100E5400000494F0000FF6D110BD10B5034653E81A
:100E6400002FA2EB010043E8000494F0000FF6D138
:100E740010BD0121FFF7CDBF0021FFF7D6BF10B58C
:100E840090B1D0E9012301689B1ADBB20A60013BEF
:100E9400DBB2FF2B026802D10020107110BD116873
:100EA4004C1C14600B70F2E70E20F7E738B50446CB
:100EB4000020FFF79FFF226863681168994213D9E5
:100EC400481E106011F8015CE368218A01FB0535B6
:100ED400A36811791B1ADBB2994200D21371002066
:100EE400FFF78AFF284638BD0025F8E738B50546E0
:100EF40000200C46FFF77EFF2A681368591C116016
:100F0400E968641A298AB4FBF1F41C70BDE838401E
:100F14000020FFF771BF826810B504462AB1436907
:100F24000168006998470023A36010BD0EB403B59F
:100F3400039921B104AB01AA019300F06FF802B048
:100F44005DF804EB03B07047826830B40468551C44
:100F54008560A154D0E901329A4202D330BCFFF734
:100F6400DABF30BC704700002DE9F84F9846DDE940
:100F74000A43154682460F460A464FF00109AA4223
:100F84000FD2C14538BFC14613F0010B01D16CB972
:100F940000240126B8F1010F1BD908F1FF386E4374
:100FA400F8E709F10109B2FBF5F2E8E79B070ED572
:100FB400B8F1000F0CBF30262026A145E9D2013C30
:100FC40031465046FFF7C0FF002CF6D1E0E720265B
:100FD400F3E7B7FBF6F39D42E1D9DFF83C80B7FBBA
:100FE400F6F3504618F8031006FB1377FFF7ACFF2F
:100FF4003346AB42B6FBF5F6F1D2BBF1000F02D09B
:101004000CB1A14501D3BDE8F88F20215046013C25
:10101400FFF79AFFF4E700BFE54300002DE9F74F1F
:10102400054617468846002900F0428118F8011B3E
:1010340049B92B7B002B00F03B81284603B0BDE867
:10104400F04FFFF768BF252940F0B780002698F8D5
:1010540000302D2B424608F1010823D0302B24D038
:101064002B2B25D000242A2B02F1010123D13B682C
:101074001A1D1B683A601C440A4613782E2B26D18D
:1010840001324FF0000A104610F8011BA1F1300C98
:10109400BCF1090F1DD80A2303FB0A13A3F1300A7C
:1010A4000246F0E746F00106D1E746F00206CEE735
:1010B40046F00406CBE711F8013CA3F130000928FF
:1010C400DBD80A2202FB0434303C0A46CBE74FF05B
:1010D400000A12F8011B01F0FB0068289046F8D0C2
:1010E400782909D86F290CD8632962D022D82529F8
:1010F40063D0582900F0888098F80030002B95D1EF
:1011040097E770390829F7D801A353F821F000BFF5
:101114008F120000FD100000FD1000001D120000E1
:10112400FD100000FB110000FD100000FD10000088
:101134000D120000642901D06929DDD13A68D2F882
:101144000090111D89EAE9723960A2EBE9724FF04F
:10115400010B092A35DCD34538BFD3462CB1B9F18C
:10116400000F01DB720700D5013CB30702D5BAF1C9
:10117400000F03D0F00701D44CBB0024B9F1000FD9
:101184002DDAC9F100092D212846FFF7DDFE06F00E
:101194000302022A04D1BAF1000F01D11CBB0024BE
:1011A400CDE9004653460A2249462846FFF7DCFEAD
:1011B400A2E73B681A1D19783A602846FFF7C4FE77
:1011C4009AE70A230BF1010BB2FBF3F2C1E7A34543
:1011D400D4D220212846013CFFF7B6FECCE77107A4
:1011E400D5D52B21D0E7A345DAD230212846013CBE
:1011F400FFF7AAFED2E73968CDE900460A1D3A6036
:1012040053460A220968D0E739680A1D3A60CDE9D5
:10121400004653461022F5E73B681A1D3A6016F063
:101224000106D3F8009028D1B9F1000F03D0484645
:1012340002F051F80646B44200D904BB09F1FF3963
:1012440019F8011F00293FF457AF2846FFF77CFE29
:10125400F6E728460136FFF777FE19F8061000294D
:10126400F7D1A642BFF448AF002C3FF445AF20218C
:101274002846013CFFF768FEF3E70026EDE720214E
:101284002846013CFFF760FED5E73B681A1D3A602B
:10129400302128461C68FFF757FE78212846FFF7BF
:1012A40053FE00220823CDE90032214610227CE7B8
:1012B40003B0BDE8F08F00BF2DE9F84FB0F806A0E9
:1012C4004579D2F800B09DF828900AFB05F5043D55
:1012D40088460BEB0301A94203F1040488BFA5EB84
:1012E400030BB4FBFAF607460AFB1644C2F800B037
:1012F4004EB9AAEB04055D4528BF5D46BBF1000F5E
:1013040004D1BDE8F88F3F68013EF1E7043408EBEF
:1013140006003C442A46B9F1000F0DD02146ABEB40
:10132400050B01F05AFFDA452E443F6855464FF04D
:10133400000428BF5D46E1E701462046EFE7FFF7DA
:101344009EBDF8B546790146721E054600239342B8
:101354002D6803D30024A64202D8F8BD0133F6E772
:101364000F682846FFF7C2FD01343946F3E72DE93B
:10137400F843068ACD1C0746FFF798FD043E354422
:101384000446B5FBF6F5F0B14FF48073EDB28380FB
:10139400C680013D076081464FF00008A84512D27F
:1013A4003846FFF783FD064648B16379013363711C
:1013B40008F10108C9F8000007608146EEE72046FD
:1013C400FFF7BFFF34462046BDE8F883012104300F
:1013D400FFF737BD10B5012104460430FFF73DFD8A
:1013E40010F0FF0F04D12046BDE81040FFF7A9BF5D
:1013F40010BD1FB503920022009203AAFFF75CFF01
:1014040005B05DF804FB1FB503920122009203AA04
:10141400FFF752FF05B05DF804FB836800225A60B1
:10142400C3E904229A60DA601A6070471FB5037832
:101434008DF800308388ADF8043083688DF8063069
:10144400C3688DF80730036902934369054A03931F
:10145400054B684653F8213052F82110984705B0DF
:101464005DF804FB0806002010060020024B4FF430
:10147400807043F001031847004400001F2886BF12
:10148400054A00F01F004FF0A042012303FA00F0C8
:10149400C2F80805704700BF000300502DE9F0476B
:1014A400154690F80080394A42F82850384A42F8E4
:1014B40028304B7B06460C46A3B30868DFF8D89067
:1014C4004FF0A04100F5E07340F20C6241F8232094
:1014D400636803F5E073002741F82320FFF7CEFF8C
:1014E4006068FFF7CBFF236803F5E07340F20D62F9
:1014F40041F82320636803F5E0734FF0010A41F8D3
:101504002320FFF7B3FF63681F2B8ABF4A464FF0BF
:10151400A04203F01F03D2F8102522FA03F3DB07DD
:101524000BD507BB002D1B4A434608BF2A4621465C
:10153400301DBDE8F04700F07BB923681F2B86BF40
:1015440003F01F034A464FF0A0420AFA03F3C2F81D
:101554000C35FFF78BFF01372068FFF78FFFFFF78C
:1015640085FF092FCFD163681F2B86BF0A4903F07B
:101574001F034FF0A041012202FA03F3C1F80C3516
:10158400FFF774FF6068FFF779FFCBE710060020D0
:101594000806002031140000000300501FB5037832
:1015A4008DF8003043680193037A8DF80830C368DE
:1015B400054A0393054B684653F8213052F821102D
:1015C400984705B05DF804FB1806002020060020AB
:1015D4001FB503788DF800304368019383688DF854
:1015E4000830C368054A0393054B684653F8213015
:1015F40052F82110984705B05DF804FB1806002046
:1016040020060020F0B5194B90F800C0DFF86CE01C
:1016140043F82C20164B16460A6943F82C204B7FBE
:101624000EF80C300C4607460FCC89B06D460FC53A
:1016340094E80F0085E80F001EF80C30CDF810C0B8
:101644004BB1002E0B4A694608BF3246381D00F0E4
:10165400FBFD09B0F0BD002E074A694608BF3246BB
:1016640007F10C0000F0DCFBF3E700BF20060020CC
:1016740018060020A1150000D5150000280600203A
:10168400014B1B68184700BF2C06002038B50B4BD4
:1016940098420C4601D0002038BD0020FFF7AAFB79
:1016A400074B1D7915B901221C601A710020FFF740
:1016B400A3FB002DEFD01120EEE700BF0020004077
:1016C4002C060020034B984201BF034B00221A60F2
:1016D4001A717047002000402C060020002343505C
:1016E40082B043580193019B02B07047F0B54C4857
:1016F4004C4CD0F8243187B005469BB14FF492711D
:10170400FFF7ECFFD0F8043163B9A368C0F80833DD
:101714000223A360A368C0F8043301230362436176
:1017240007B0F0BDD5F80431002B49D03E4F3C48FA
:101734004FF48271FFF7D2FF0FCF01AE0FC63B68A3
:10174400336094F82E307BB1237B012B0CBFD5F88A
:101754003C25D5F84C250292022B314B0CBFD3F813
:101764003C35D3F84C3503932D484FF4B071FFF753
:10177400B5FF2B484FF4AE71FFF7B0FF94F830304B
:1017840013B194F82E303BB1254B0022C3F800224C
:10179400A260264AC3F80823214AD2F8C434C2F806
:1017A400C4349A0736D501238DF8003094F83030CC
:1017B4000BB984F82F30D4E9003168469847AFE775
:1017C40017484FF4A471FFF789FF237B83B9164FA1
:1017D4000FCF01AE0FC63B68336094F83030002B56
:1017E400DAD1C5F80032A360104BC5F80833D3E74B
:1017F4004FF40073C5F8003240F20223A36003F1F2
:10180400CE73C5F80833A368C5F804330123AB606D
:101814002B6285E713F0040318BF0223C4E700BF5B
:1018240000300040340600204006002002029C01E3
:101834002DE9F84F0679404D4FF0340A0AFB06FAB9
:1018440005EB0A049B4694F82D3080460F469146DA
:10185400002B6CD139490068FFF718FF002868D1C4
:101864003A687B7B84F832301F2A8CBF02F01F0356
:101874001346A060C4F804B084F82F0084F8300044
:1018840003F5E07388BF2E4C45F80A9098BF4FF0DB
:10189400A04440F20C6144F823107B681F2B0C46D3
:1018A4008BBF03F01F011946DFF894C04FF0A04C22
:1018B40001F5E0714CF82140D8F80040C4F808253F
:1018C400C4F80C35BB68C4F82435B9F1000F26D030
:1018D40044F30733002B3A7BB4BF1A4903F1604148
:1018E400C4F307344FEA5313B8BF04F00F074FEAA9
:1018F4004212A8BF01F561414FEA8303D2B203F15A
:101904006043B4BFCA5581F8002303F5614304F072
:101914001F04012202FA04F4C3F880411C6034233A
:1019240003FB0655012385F82D30BDE8F88F082008
:10193400FBE71120F9E700BF34060020F116000090
:101944000003005014ED00E0026803790621C2F898
:101954000015044A342101FB0323022283F82D20BD
:10196400704700BF340600202DE9F843CB6803F02C
:101974006043B3F1005F0D46914603D01026304614
:10198400BDE8F88390F80480934F0468934BC4F83F
:101994000833342606FB087696F82F3023B1B36853
:1019A400C4F804331126EAE712F0140F0CBF012324
:1019B400002386F82F308E46BEE80F0006F10C0C8B
:1019C400ACE80F00DEF80030CCF80030C9F30013A7
:1019D40086F830306B78C4F888354FF4827120462D
:1019E400FFF77CFE4FF49271FFF778FE19F00103C4
:1019F40018BF0123C4F8503519F0020318BF01239E
:101A0400C4F840352B78032B00F2C480DFE803F0E0
:101A140084AC68022B6903F06043B3F1005FADD17D
:101A24004FF48073EA68C4F800326B68C4F8442544
:101A34004FF4A871C4F84835FFF750FE4FF4B07165
:101A4400FFF74CFE4FF4A471FFF748FE0123236215
:101A5400A360D4F85031002BFBD04FF4A87120467A
:101A6400FFF73CFEAB682A69C4F84425C4F848353E
:101A74005B4A342303FB08739A604FF48273082291
:101A8400002619F0080F04D1297803291CBF01216D
:101A9400A150342202FB08F2B918BA58002A7ED1A8
:101AA400012223441968002900F086803422D4F8E6
:101AB400C434C4F8C43402FB0877002287F82F200A
:101AC400002B3FF45CAF13F0020F48F2012608BF6D
:101AD400032613F0040F48F2022318BF1E464EE7F4
:101AE4006B68EA68C4F84425C4F848352B6903F0E8
:101AF4006042B2F1005F7FF441AFAA68C4F83435A4
:101B04004FF48453C4F83825C4F80032342303FB5B
:101B1400087340F20222AFE76B68EA68C4F8442510
:101B240019F0200FC4F848354FF0340310D003FBEC
:101B340008734FF48072C4F80022294A9A604FF463
:101B4400A471FFF7CBFD4FF4A4730122226296E740
:101B54004FF4007203FB0873C4F8002240F202221F
:101B64009A604FF48273F0E76B68EA68C4F834252E
:101B7400C4F838354FF48053C4F80032342303FBDF
:101B8400087340F202229A600123236200224FF478
:101B9400827375E74FF482730822072671E719F000
:101BA400040F1CBF4FF400738B60342303FB0877CE
:101BB400BB68C4F80433E2E6D4F8241100293FF4E6
:101BC40071AF4FF492712046FFF788FD4FF4827392
:101BD4002262626165E700BF3406002002029C01B4
:101BE40000020400F0B587B004460F4615460021F4
:101BF400142201A81E4601F019FB9DF830308DF81F
:101C04000570002B14BF2022002201A92046029651
:101C14000495FFF7A9FE07B0F0BDF0B587B0044600
:101C24000F4615460021142201A81E4601F0FEFAB3
:101C34000123002201A920468DF804308DF8057097
:101C440002960495FFF790FE07B0F0BD00234350C1
:101C540082B043580193019B02B070470A4610B505
:101C64004FF48E71FFF7F2FF136A9168C95C136A2F
:101C740001331362C0F81C1510BD8B690A4610B5F8
:101C84004FF4847123B9FFF7E1FFD0F8183510BD84
:101C9400FFF7DCFF536AD168D0F81805C854536ABB
:101CA40001335362F3E700001FB501238DF80030C0
:101CB400044BCDE90110D3E900126846904705B002
:101CC4005DF804FB6806002030B54B48D0F80433B7
:101CD40013F4007F85B005464DD0D0F82431002B95
:101CE40049D04FF49271FFF7B1FF4FF40173C0F87C
:101CF4000833424B93F829200AB9012242603E4935
:101D040002228DF80020D1F88024C1F880240392A7
:101D14009A690292DA6801920022C3E906226846AF
:101D2400D3E9001290473448D0F81C315BB13349F1
:101D34000A6A4B699A420A464AD291F82830002B23
:101D440046D1FFF78BFF2C48D0F844318BB14FF4C8
:101D5400A271FFF77BFF294B93F829200AB10122D6
:101D640002609A692AB10022586AD9689A61FFF719
:101D74009BFF05B030BDD5F804335B07D3D5D5F848
:101D84000831002BCFD01D4C1B482146FFF775FFAF
:101D9400636AA2699A422346C5D1E269E1684AB1FD
:101DA4002369E3600023606AA261E3616362FFF771
:101DB4007BFFB8E794F829200AB901226A600E4A29
:101DC4004FF40170C2F808030022586A9A61EEE7E2
:101DD4004FF48E710848FFF739FF51690029B2D0DA
:101DE4000023029191688DF8003001915361684697
:101DF400D2E900139847A6E70020004068060020B7
:101E04001F2886BF00F01F00044B4FF0A04300F5CD
:101E1400E070022243F82020704700BF0003005006
:101E24002DE9F843674B057991462C2202FB0532D4
:101E3400064692F82A200C469846002A40F0BD80B7
:101E440061490068FFF722FC0746002840F0B7808C
:101E540021684A1C10D01F2987BF5C4A01F01F0368
:101E64000B464FF0A0420120984003F5E073C2F8FE
:101E74000805032042F823006068431C0DD01F2886
:101E84008BBF00F01F030346504A4FF0A04203F5F6
:101E9400E0734FF0000C42F823C03368A269C3F822
:101EA400242594F814C0627DBCF1010F4CEA0202AF
:101EB400C3F86C25C3F81405C3F80C152BD1A1681D
:101EC400481C0DD01F298BBF01F01F020A463F4852
:101ED4004FF0A04002F5E0724FF0000C40F822C031
:101EE400E068421C13D01F2887BF384A00F01F0C3B
:101EF40084464FF0A0424FF0010E0EFA0CFE0CF592
:101F0400E07CC2F808E54FF0030E42F82CE0C3F879
:101F14000805C3F810152C236B4308EB0302C2F821
:101F24000490226948F80320B9F1000F32D03068D8
:101F3400227F4FF48E71FFF789FE30684FF4A2714F
:101F4400FFF784FE33682249C3F80413190B43F3E3
:101F54000733002BA8BF03F160404FEA5313BCBF03
:101F640001F00F041B484FEA4212A8BF00F561407C
:101F74004FEA8303D2B203F16043B4BF025580F841
:101F8400002303F5614301F01F0101228A40C3F8D5
:101F940080211A6033680422C3F800252C2303FB34
:101FA40005830022C3E9062283F829205A6101220D
:101FB40083F82A203846BDE8F8830827FAE7112772
:101FC400F8E700BF68060020CD1C000000030050A5
:101FD4008000020014ED00E02DE9F041036804796B
:101FE400244D0022C3F800252C2202FB0452014692
:101FF40052686AB1204AC3F8082343F30732C3F393
:10200400043652090120B04020321C4E46F822000A
:10201400D3F80C05D3F81485D3F80865D3F81075F4
:102024004FF0FF329042C3F81425C3F80C25C3F8CF
:102034000825C3F8102501D0FFF7E2FEB8F1FF3FF1
:1020440002D04046FFF7DCFE7A1C02D03846FFF788
:10205400D7FE731C02D03046FFF7D2FE0868FFF7A4
:1020640031FB2C2303FB0454002384F82A306360DF
:10207400BDE8F081680600208402020000E100E06F
:102084002DE9F843204B07794FF02C0909FB07345D
:10209400054666699846002E33D100686261A160E6
:1020A40026624FF48E7184F82860FFF7CFFD28680C
:1020B400012383602146FFF7D1FD6368A14683B9FC
:1020C4002868226A63699A4211D32B68D3F81C21C9
:1020D400002AFBD00122DA602C2303FB07830022B1
:1020E4005A613046BDE8F88394F828303BB9D0F8FB
:1020F4001C31002BF8D04946FFF7B0FDE1E70F266D
:10210400EAE71126EDE700BF6806002000234350EC
:1021140082B043580193019B02B070471FB501235D
:102124008DF80030054B8DF8080001916846D3E91D
:102134000012904705B05DF804FB00BF9406002030
:102144007FB5374AD2F82461002E47D010464FF4A9
:102154009271FFF7DBFF02238DF80030D2F8803450
:10216400C2F880340393D2F83C358DF808302D4BF7
:10217400DA6801920022C3E906226846D3E9001214
:1021840090472748D0F844316BB14FF4A271FFF760
:10219400BDFF244B9A6932B100229A61D0F83C0504
:1021A400D968FFF7BBFF1E48D0F82031A3B14FF424
:1021B4009071FFF7ABFF1B4B5A696AB1D0F84C150D
:1021C4008DF80810002299688DF8002001915A6159
:1021D4006846D3E90012904704B070BDD2F81031BC
:1021E400002BCED04FF488711046FFF78FFF0D4BB4
:1021F400D2F83C0599698842C3D1DC69D96864B1D5
:10220400D2F8005225F02005C2F800521A699C61E8
:10221400DA60DE61FFF782FFB3E79C61FAE700BF93
:1022240000200040940600201F2886BF00F01F00F5
:10223400044B4FF0A04300F5E070022243F8202045
:10224400704700BF000300502DE9F8436B4B06793B
:102254009146242202FB0632044692F820200D46C1
:102264009846002A40F0C58065490068FFF70EFAD9
:102274000746002840F0BF802868421C10D01F2861
:1022840087BF604A00F01F0303464FF0A0420121BC
:10229400994003F5E073C2F80815032142F82310AE
:1022A40069684B1C0DD01F298BBF01F01F030B461F
:1022B400544A4FF0A04203F5E0734FF0000C42F88B
:1022C40023C02368AA69C3F8242595F814C06A7D3D
:1022D400BCF1010F4CEA0202C3F86C25C3F80C05EB
:1022E400C3F814152BD1A968481C0DD01F298BBF26
:1022F40001F01F020A4643484FF0A04002F5E07285
:102304004FF0000C40F822C0E868421C13D01F288C
:1023140087BF3C4A00F01F0C84464FF0A0424FF0A8
:10232400010E0EFA0CFE0CF5E07CC2F808E54FF045
:10233400030E42F82CE0C3F80805C3F81015242353
:10234400734308EB0302C2F804902A6948F8032097
:10235400B9F1000F3CD020682A7F4FF48871FFF751
:10236400D5FE20684FF49071FFF7D0FE20684FF43B
:102374009271FFF7CBFE20684FF4A271FFF7C6FEFF
:1023840023682149C3F80413190B43F30733002BC3
:10239400A8BF03F160404FEA5313BCBF01F00F051F
:1023A4001A484FEA4212A8BF00F561404FEA83037E
:1023B400D2B203F16043B4BF425580F8002303F561
:1023C400614301F01F0101228A40C3F880211A6091
:1023D40023680822C3F80025242303FB0683002274
:1023E400C3E906225A61012283F820203846BDE859
:1023F400F8830827FAE71127F8E700BF94060020BE
:1024040045210000000300501003020014ED00E019
:102414002DE9F04103680479244D0022C3F8002516
:10242400242202FB0452014652686AB1204AC3F8CE
:10243400082343F30732C3F3043652090120B040A2
:1024440020321C4E46F82200D3F80C05D3F814852C
:10245400D3F80865D3F810754FF0FF329042C3F8F3
:102464000C25C3F81425C3F80825C3F8102501D09A
:10247400FFF7DAFEB8F1FF3F02D04046FFF7D4FE83
:102484007A1C02D03846FFF7CFFE731C02D03046C8
:10249400FFF7CAFE0868FFF715F9242303FB045469
:1024A400002384F820306360BDE8F08194060020A6
:1024B4001003020000E100E001F06043B3F1005FAB
:1024C4002DE9F041064632D11B4B0779242505FB43
:1024D400073598466C6964BB6A610068A9604FF46B
:1024E4009071FFF713FE4FF4AC713068FFF70EFEE6
:1024F40033686A69A968C3F84415C3F848250122FA
:102504009A606A6862B9D3F82021D3F8584152B965
:10251400002CF8D00F24242303FB078700237B61BE
:102524002046BDE8F081002C18BF0F24F3E71024E7
:10253400F6E71124F4E700BF940600201FB51B2121
:102544001A22CDE900124FF0CC720023029202222B
:102554008DF80C200848ADF80D301A4669468DF800
:102564000F30FEF79BFF08B1FEF7ECFB0348FFF7C3
:10257400EBF905B05DF804FB984400009C440000AE
:1025840008B50A4800F018FB08B1FEF7DBFB00F0C1
:102594002DFB00F045FB4B2000F076FB4B2000F0B8
:1025A4008FFBBDE8084000F055BB00BF9844000015
:1025B4002DE9F04F002189B00846FEF7B7F808B1BD
:1025C400FEF7C0FBFDF7ECFF284800F02FF9FEF7FB
:1025D40007F90028FBD1FFF7B1FFFFF7D1FF00F0A7
:1025E4003FFA4FF0A0430322C3F838272048DFF80E
:1025F40094B0204F00F01AF91F4B002643F0010A53
:1026040064244FF47A40D047013CFAD1DDE9022337
:10261400DDE90445DDE9068902A8CDE9002300F0DF
:1026240069FADDE90023584600F000F922462B46FA
:10263400124800F0FBF842464B46114800F0F6F809
:1026440032463B462046294600F0F2FB4FF0A043B9
:102654004FF4804230B1C3F80C25FEF7C1F80028CE
:10266400FBD1CDE7C3F80825F7E700BF1A44000003
:102674003F4400000000E03F904400006E4400002E
:1026840078440000644400000369C1688B429DBF24
:102694008268D21802F1FF3203F1FF3394BF501A5B
:1026A400581A70472DE9F843D0E902940546A9EB7E
:1026B40004084068904520440F46144404D900F0AF
:1026C4008CFDEC60BDE8F8834246A4EB090400F0FD
:1026D40084FD6868224607EB0801F0E72DE9F8431A
:1026E400C5680646894617464FF000083469B36842
:1026F4007068A54228BFE418013C621B5C1BBC4205
:1027040028BF3C46944228BF1446494628442246E2
:1027140000F063FDB3682544AB4208BF00253F1BAE
:10272400A044A144F560E1D14046BDE8F88300002F
:1027340010B5114C114AA2610223C4E90433104BB1
:10274400E361A2644FF400730E4A0F492362E2640A
:1027540000231022E01DA3626362E362A365636544
:10276400E365226500F095FD0849204600F091FDDF
:102774002023A37110BD00BFB8060020A8440000A8
:102784004007002030070020B1440000B544000099
:10279400F8B5184C182300FB033503FB004025440F
:1027A400C46A012C0F4616460FD0022C1AD0F4B975
:1027B4002846FFF769FF864205D83246394628463F
:1027C400FFF770FF34462046F8BD2846FFF75CFF4C
:1027D4008642344628BF0446224639462846FFF737
:1027E40061FFF0E72846BDE8F840FFF777BF002413
:1027F400E9E700BFB806002070B50B4B1B78044610
:102804000D4616460BB9FFF793FF0020FEF7F2FAC8
:10281400324629462046FFF7BBFF04460020FEF758
:10282400EBFA204670BD00BFB80600200FB410B507
:10283400A2B024AB802153F8042B019302A800F02A
:10284400BEFC802804460ADD802202A90020FFF78E
:10285400D3FF204622B0BDE8104004B070470028E2
:10286400F7DD0246F1E70000054B1B68082B01BFAA
:10287400044B1868B0FA80F0400918BF0020704774
:10288400300100103401001008B54FF080430022DD
:10289400C3F80C21C3F81021C3F838254FF0805237
:1028A40003F54043D2F80414C3F82015D2F80814F1
:1028B400C3F82415D2F80C14C3F82815D2F8101450
:1028C400C3F82C15D2F81414C3F83015D2F8181420
:1028D400C3F83415D2F81C14C3F84015D2F82014E8
:1028E400C3F84415D2F82414C3F84815D2F82814B0
:1028F400C3F84C15D2F82C14C3F85015D2F8301480
:10290400C3F85415D2F83414C3F86015D2F8381447
:10291400C3F86415D2F83C14C3F86815D2F840140F
:10292400C3F86C15D2F84424C3F87025FFF79CFF54
:1029340010B1384B384A1A60FFF796FF18B1374B7D
:10294400FB22C3F81825FFF78FFF48B13449354BF4
:102954000A681B6822F00F0203F00F0313430B6095
:10296400FFF782FF18B1304B4FF400721A604FF03A
:102974008043D3F80024D20744BF6FF00102C3F8A8
:1029840000242A4AD2F8883043F47003C2F888300D
:10299400BFF34F8FBFF36F8F4FF01023D3F8002294
:1029A400002A03DBD3F80432002B2FDA204B012258
:1029B400C3F80425D3F80024002AFBD04FF01022DA
:1029C4001221C2F80012D3F80024002AFBD04FF0E1
:1029D40010231222C3F80422154B1A46D3F800140C
:1029E4000029FBD00021C3F80415D2F80034002BD1
:1029F400FBD0BFF34F8F0D490E4BCA6802F4E0625F
:102A04001343CB60BFF34F8F00BFFDE70A4B0B4A64
:102A14001A6008BD8C5600404881030000F0004055
:102A2400E40E0040580200104096024000ED00E021
:102A340000E001400400FA051C0000200090D003CF
:102A440013B5064B1C6800230093D3B20A46014613
:102A5400201DFFF7C7F802B010BD00BF48090020D1
:102A640007B53223012201A953208DF80430FFF762
:102A7400E7FF08B1FEF766F903B05DF804FB000058
:102A840008B5FFF7EDFF074B074A186853210623E3
:102A94000430FFF7C2F818B1BDE80840FEF752B998
:102AA40008BD00BF4809002040090020F8B50746CA
:102AB40015460E46FFF7E4FF094B5A781C7844EAA2
:102AC400022424B23C60DA78987840EA022000B20A
:102AD40030605A791B7943EA02231BB22B60F8BD9C
:102AE40040090020014600F108020431FFF7DEBF6F
:102AF40000000000F0B515A3D3E900238DB0CDE9A3
:102B0400062314A3D3E90023CDE9082313A3D3E9AF
:102B14000023044603A8CDE90A23FFF7E3FF03AD2E
:102B240006AE04F11807F6E8022355F8040BCDE9C4
:102B3400002300F099F9DDE9002300F0DDF8E4E872
:102B44000201BC42EFD10DB0F0BD00BF9F27F96C6C
:102B540078D56E3F0E7F8FF27ACD6E3F200FD8303E
:102B64009E9C6C3F73B51C460F4B8DF8071018687C
:102B7400164601230DF1070253210430FFF74DF8E7
:102B8400054608B1FEF7DEF80848FFF74FFE214678
:102B940045B99DF80730B34204D10548FFF746FE16
:102BA40002B070BD0348F9E748090020BC440000A6
:102BB400DF440000F544000013B50A4B01A9186076
:102BC40002222D235320ADF80430FFF739FF064BC2
:102BD4009DF8052000210446FFF7C4FF204602B0FB
:102BE40010BD00BF480900202545000013B541F27F
:102BF4002D03022201A95320ADF80430FFF720FF72
:102C0400044608B1FEF79EF8044B9DF80520002108
:102C14002046FFF7A7FF02B010BD00BF2C450000FF
:102C240013B540F62D03022201A95320ADF8043058
:102C3400FFF706FF044608B1FEF784F8044B9DF83D
:102C4400052000212046FFF78DFF02B010BD00BF14
:102C54003245000013B540F63133022201A9532056
:102C6400ADF80430FFF7ECFE044608B1FEF76AF84D
:102C7400044B9DF8052000212046FFF773FF02B0A6
:102C840010BD00BF3A45000013B580F308002523AA
:102C94008DF80500022201A953208DF80430FFF7B6
:102CA400CFFE044608B1FEF74DF8044B9DF805200D
:102CB40000212046FFF756FF02B010BD4445000036
:102CC40013B580F3080024238DF80500022201A91E
:102CD40053208DF80430FFF7B3FE044608B1FEF725
:102CE40031F8044B9DF8052000212046FFF73AFFF8
:102CF40002B010BD4F450000F0B540F2FF7681EA06
:102D0400030C16EA115E1EBFB64516EA1355B5420A
:102D14005AD021EA465141F48011A1FB024723EA2B
:102D2400465343F48013AE44A0FB03650CF0004CFF
:102D340036197D41A1FB034747F10003A0FB0217AD
:102D4400F619654153F10003094218BF46F0010624
:102D540040F2FE74B3F5007F13D2AEF5806EA64543
:102D64002BD24CEA0331280341EA155140EA1650AC
:102D74003203450872F1004250F1000051EB0E514C
:102D8400F0BDAEF2FF3EA64517D24CEAC321E802DD
:102D940041EA555140EA5650F202450872F10042A8
:102DA40050F1000051EB0E51F0BD0CF0004141F028
:102DB400FE4141F470010020F0BD1EEA0E0FF4D56F
:102DC4000CF000410020F0BD16EA115F04BF01F0D1
:102DD40000410020004218BF41F0010116EA135FD0
:102DE40004BF03F000430022124218BF43F0010362
:102DF40006EA1354B44218BF9EEA060F03D00CF03F
:102E040000410020F0BD21F0004123F00043B1EB6C
:102E1400065F06D8B3EB065F03D8002918BF002B62
:102E2400C3D140F20001C7F6F8710020F0BD00BF25
:102E34004FF4001C1CEB410F98BF1CEB430F11D83F
:102E440051EA030C50EA4C0C5CEA020C0AD004D29E
:102E540082428B4180414042704790429941804177
:102E6400404270470020704780B110F0004248BFD4
:102E7400D0F10000120D02F21D42B0FA80F1884038
:102E8400521AC30A400503EB025170470100704710
:102E940001F000428B1AA3F16051B1F5801F0ADBE7
:102EA400B1F17F6F09D242EAC102C10071F1004160
:102EB40042EB507070471046704701285B4113F590
:102EC400001F04D842F0FE4040F400007047C900DF
:102ED40041EA507040EA020040F4800040F0804033
:102EE400704700BF10EE100A4FEA4000B0F17F4F68
:102EF4000CBF01200020704710EE100A4100002092
:102F0400B1F17F4F18BF50EB0000704710EE100A6C
:102F140000F00040704700BFB0EEC00A704700BF29
:102F240000B510EE100A00F003F800EE100A00BD20
:102F34004FF07F43B3EB400F22D9410008BF7047E5
:102F440003EA4002120E7F3A14DB172AA8BF704727
:102F54004FF6FF73C0F27F03D340184220EA030008
:102F640018BF10F0004F08BF70474FF40001D14064
:102F74004018704710F0004F0CBF00200248704703
:102F840018BF024870470000000080BF0000C07FE7
:102F940000B5014610EE100A00F003F800EE100A26
:102FA40000BD4FF07F43B3EB400F98BF704713EA67
:102FB400400207D0120E7E3A0A6020EA530040F025
:102FC4007C5070470A6000F00040704700B501462D
:102FD40010EE100A00F003F800EE100A00BD4FF0E6
:102FE4007F43B3EB400F98BF704713EA400204BF1E
:102FF40000F00040704711EB1262DCBF00F00040AB
:103004007047FF2A3CBF00EBC150704740004FEAB5
:10301400330070477F2805D8034B185C034B5B5C77
:10302400184070470020704764450000E4450000E4
:10303400A0F16103192B98BF20387047A0F1410318
:10304400192B98BF203070477F2805D8034B185C94
:10305400034B5B5C184070470020704764450000D8
:10306400E4450000A0F16103192B98BF2038704794
:10307400A0F14103192B98BF203070477F299ABFD4
:10308400017001206FF02E0070475AB10A787F2A30
:103094000AD800B10260002119605960501A18BFA3
:1030A40001207047002070476FF02E007047000029
:1030B400002816DB002817DD0022B7EE000A0C4BAF
:1030C40010F0010F1CBFD3ED007A20EE270A401048
:1030D40004330028F4DC4AB1F7EE007A87EE800A64
:1030E400704740420122E8E7B7EE000A704700BF8C
:1030F400BC47000038B504460846A26842B12368BC
:1031040061685D1C8D4208BF00208B4208D2D054F8
:10311400E3682BB121686268914201D22146984745
:1031240023680133236038BD70B54C1E09D416469C
:10313400C5B229463046FFF7DDFF013CB4F1FF3F3D
:10314400F7D170BD10F0100F08D108B510F4007F4E
:1031540014BF30202020FFF7E7FF08BD7047002888
:10316400B8BF40427047000008B5034B5B689B68DA
:103174001B68984708BD00BF2000002008B509213E
:10318400FFF7F2FF08BD000000B5FDF721F9024B7F
:1031940018445DF804FB00BF08000000037853B135
:1031A40059B10144034613F8012F12B18B42FAD1ED
:1031B4000B46181A70470346FBE70346F9E710B5B8
:1031C40084B00C46114602900022039201941A46E0
:1031D400684600F0B1F804B010BD844640EA01032B
:1031E40013F0030F18D18446202A0BD32DE9F007DE
:1031F400B1E8F807A0E8F807A2F12002202AF7D2E4
:10320400BDE8F007042A07D351F8043B40F8043B17
:10321400A2F10402042AF7D2002A05D011F8013BD6
:1032240000F8013B013AF9D1604670478446002A10
:103234002DD010F0030F04D000F8011B013A26D062
:10324400F7E7C9B241EA012141EA0141202A12D338
:10325400A2F120022DE9F0030B460C460D460E4662
:103264000F4688468946A0E8FA03203AFBD2BDE817
:10327400F00320320BD0042A05D340F8041B043A8F
:1032840005D0042AF9D200F8011B013AFBD16046AB
:103294007047024610F0030F16D111F0030F13D13B
:1032A4002DE9F0004FF001374FF0803351F8044B13
:1032B400A4EB070525EA04051D4002D142F8044B9E
:1032C400F4E7A1F10401F0BC11F8013B02F8013B61
:1032D400002BF9D1704700F1010110F0030F11D058
:1032E40010F8012B002A23D010F0030F0AD010F895
:1032F400012B002A1CD010F0030F03D010F8012B6F
:10330400002A15D02DE970004FF001324FF08033C0
:1033140050F8044BA4EB020525EA04051D4000D136
:10332400F6E7A0F1040070BC10F8012B002AFBD1D1
:10333400A0EB0100704700002DE9F04F2DED048B48
:1033440089B083460392002303600D4615F8011BE0
:10335400002900F0AE86DFEDA48A00F09CBE0026B2
:1033640007E05E2866D146F4805601E046F0400648
:1033740015462A4612F8010B3028F2D81F2838D9EE
:10338400A0F12003102B34D801A151F823F000BF81
:1033940071330000F7330000F7330000D933000025
:1033A400F7330000F7330000F7330000DF33000089
:1033B400F7330000F7330000F7330000E533000073
:1033C400F7330000EB330000F7330000F73300005D
:1033D400F133000046F08006CAE746F40046C7E72A
:1033E40046F02006C4E746F01006C1E746F400762E
:1033F400BEE72A281ED1039B191D03911F68002FC5
:10340400BCBF7F4246F010061078AA1C27EAE77575
:103414002E2824D00027742845D07A2843D06C283D
:1034240000F0C2804C2800F0C580682800F0D380EA
:1034340091463BE0A0F13003DBB2092B88BF0027A3
:10344400E4D8002707EB8707303800EB470712F86A
:10345400010BA0F13003DBB2092BF3D9D6E71078C6
:103464002A280AD1039B191D03911F685078023240
:10347400002FD0DB46F48076CDE70132A0F1300393
:10348400DBB2092B88BF0027F4D8002707EB870796
:10349400303800EB470712F8010BA0F13003DBB220
:1034A400092BF3D9E4E7914619F8010B782800F2C7
:1034B4008480DFE810F0100682008200820082001F
:1034C40082008200820082008200820082008200E8
:1034D40082008200820082008200820082008200D8
:1034E40082008200820082008200820082008200C8
:1034F40082008200820082008200820082008200B8
:10350400A300820082008200820082008200820086
:103514008200820082008200820082008200820097
:103524008200820082008200820082008200820087
:103534008200820082008200820082008200820077
:10354400C401E101E601820082008200820082005F
:103554008200820082008200820082008200820057
:103564008200820082001E018200820082008200AA
:10357400820082008200820082008200A90053013E
:10358400C601E301E8018200530182008200820047
:103594008200B9004101040182008200CE00820051
:1035A4004C01820082002001914619F8010B46F07B
:1035B40001067BE746F0010691460C4B1C68002C83
:1035C40000F0658503AB019300972B4632465946BC
:1035D400A04700F05CBD1078682809D002F1010909
:1035E40046F0040662E700BF0000C8424C09002010
:1035F40046F0080602F10209507857E7252158469B
:10360400FFF778FD00F043BD039B1A1D03921C785D
:10361400013D5A4629463046FFF794FD2146584657
:10362400FFF768FDB0463AE016F0080F08D0DBF863
:103634000020039B191D03911B681A7000F027BD1D
:10364400039B1A1D03921B68DBF800201A6000F02C
:103654001EBD039B1A1D03921C688C4B002C08BFD3
:103664001C4626F4007816F4807F23D03946204681
:10367400FFF794FD0646AD1B5A4629464046FFF720
:1036840061FD06F1FF3A56B12746344417F8011B91
:103694005846FFF72FFDBC42F8D14FF0FF3A18F01F
:1036A400100F00F0F4845A4629462020FFF73CFD11
:1036B40000F0EDBC2046FFF70EFE0646DBE7039B59
:1036C4001A1D03921B6816F0800F0CBF00242324DC
:1036D40046F4807608271A46002B00F0B48404AB25
:1036E4004FF0000806F40050DFF8A4C1A64600F02D
:1036F4006ABC46F4005616F0800F1BD043F27804DF
:1037040043F25803782818BF1C4616F4807F01D072
:1037140026F4007616F4804F32D0039B1A1D0392D0
:103724001B6816F0040F1FD01BB2002B20DA5B427B
:103734002D242DE00024E8E716F0800F0CBF0024B0
:10374400302416F4807FE5D026F40076E2E716F400
:10375400807F07D026F400760024DBE746F4804619
:103764000024D7E70024D5E716F0080FDDD0DBB23C
:1037740016F0200F61D116F0400F18BF202407E087
:10378400039B1A1D03921B6816F0040F50D09BB2C2
:1037940016F4807F00F0E68326F40076583820285B
:1037A40000F23B8401A252F820F000BFDB36000097
:1037B4001F4000001F4000001F4000001F40000089
:1037C4001F4000001F4000001F4000001F40000079
:1037D4001F4000001F4000001F400000953F0000F4
:1037E4001F4000001F4000001F4000001F40000059
:1037F400953F00001F4000001F4000001F400000D4
:103804001F4000001F4000006D3F0000DB36000039
:103814001F4000001F4000001F4000001F40000028
:10382400953F00001F4000001F400000DB360000F1
:1038340016F0080FACD0DBB2AAE72B24A8E746F4B5
:10384400005646F48066039B073323F0070303F115
:1038540008020392D3E90001FFF71AFB08EE100AED
:1038640016F4807F16D0B7B906F44067B7F5406FF9
:1038740014BF002701270EE046F4005646F4006604
:10388400E1E746F4005646F44066DCE7D44700001E
:10389400A84700000627B0EE480AFFF723FB0028DC
:1038A40040F0BB80B0EE480AFFF726FB80460028B4
:1038B40040F0CC80B0EE480AFFF728FB002840F027
:1038C400CE8018EE103A08EE103A07A800EE103A2F
:1038D400FFF75EFB079B03EB4303CA4A82FB031219
:1038E400DB17C3EBA2030793B5EE408AF1EE10FA9F
:1038F40040F0BF8006F44064B4F5806F0AD0B4F59C
:10390400406F40F06E81079BBB4203DA13F1040F52
:1039140080F2678107984042FFF7CAFB28EE008ACD
:103924008DED028AB5EE408AF1EE10FA36D0B0EE93
:10393400480AFFF7D7FA002840F0B180F2EE047A83
:10394400B4EEE78AF1EE10FA0FDB079B0133F2EED7
:10395400047A1A4688EE278A0133B4EEE78AF1EE38
:1039640010FAF6DA8DED028A0792DDED027AB7EEEF
:10397400007AF4EEC77AF1EE10FA0FD5079B013BFB
:10398400F2EE046A1A4667EEA67A013BF4EEC77AB1
:10399400F1EE10FAF6D4CDED027A079227B1B4F520
:1039A400406F08BF07F1FF377842FFF781FBF6EE5F
:1039B400007A60EE277A9DED027A77EE877AB2EE8E
:1039C400047AF4EEC77AF1EE10FA80F28180B0EE58
:1039D400678A002F00F0918006F40863B3F5006F46
:1039E4007ED026F4006302937B1DED1A013D16F48C
:1039F400805F00F0F380079A834B83FB0213A3EBF1
:103A0400E27303EB4303D31A0233042B00F2E48082
:103A1400DFE803F099DA9699DA00B5EEC08AF1EEA0
:103A240010FA0CD416F4005F784C794B08BF1C468E
:103A340016F0200F08BF013426F4807611E616F440
:103A4400005F744C744B08BF1C46F5E716F4005F26
:103A5400724C734B08BF1C4626F4807601E646F090
:103A64006006F1EE487A17EE903A2CE7079B013393
:103A7400079307980130FFF71BFBB4EEC08AF1EE01
:103A840010FAF3DC02E0079B013B07930798FFF76A
:103A94000FFBB4EEC08AF1EE10FAF4D42AE7B5EEC7
:103AA400C08AF1EE10FA0CD416F4005F574C584B50
:103AB40008BF1C4616F0200F08BF013426F4807698
:103AC400CFE516F4005F534C534B08BF1C46F5E793
:103AD400079B01330793B2EE047A87EE878A78E76F
:103AE400092FA8BF09273846FFF7E2FA60EE087AE3
:103AF400FCEEE77A17EE903A4BB926F40063029392
:103B0400053D16F080073FF472AF47466EE7454A1D
:103B1400A2FB0312D20802EB8202B3EB420F7FF442
:103B240060AF4049A1FB0323DB08013FE5D0A1FBC3
:103B34000302D20802EB8202B3EB420FF2D050E749
:103B44004FF0010808E0F2EE047A27EE888A013A81
:103B54000792013D4FF0020827EAE77716F0600F5D
:103B640018BF05F1FF350798FFF7F9FA6328C8BFB6
:103B740005F1FF35F0EE487ABCEEC87A17EE104A2C
:103B8400B8EE478A37EEC88A25EAE57A029B13F431
:103B9400047F00F0D580029B13F0200F00F0DE803C
:103BA40013F0400F14BF2D212B215846FFF7A2FA22
:103BB400029B13F0100F00F0DB801B4E08F1005540
:103BC400013D06EBC505EAE028EE888A023A079231
:103BD400023D4FF00308BFE7D046BDE74FF00108B0
:103BE400BCE716F4806F3ED0079B0E2B3ADC013302
:103BF400FC1A092CA8BF092416F0800F16D02746FA
:103C040031E000BF6766666656555555EC470000BF
:103C1400F4470000DC470000E4470000FC470000D4
:103C240000480000CDCCCCCC08480000BB426BD08F
:103C3400F6EE009AB2EE049A2046FFF739FA28EE1F
:103C4400000A30EE290AFFF76BF9F0EE490A00F09A
:103C540085FAB5EE400AF1EE10FA57D1013CEBD1EA
:103C6400274600E0474626F480630293079B784288
:103C7400A3F108028242C8BFA3F10900FFF718FAB2
:103C84004FF0FF30FFF7A2F938EE008AB0EE489A01
:103C940007980130FFF70CFAB4EEC08AF1EE10FA7F
:103CA40002DB079B013307930798002840DB0928B0
:103CB4002EDCFCEEC97A17EE904AB8EE678A39EE2C
:103CC400488A0023079320460021092C35D9DFF8C0
:103CD4002CC44FF0010808F10108FCE902239942C1
:103CE40008BF9042F7D207EB0803079A1344ED1A72
:103CF40006F080033B4318BF05F1FF3516F0600F53
:103D040018BF05F1FF353FE72746ACE72746AAE78A
:103D1400A0F109030793C0F10900FFF7C9F929EEDF
:103D2400009AFCEEC97A17EE904A08EE108ACAE7A8
:103D3400002407944FF00108D5E74FF00108D2E7BB
:103D4400002D7FF728AF20255646013E29465846C8
:103D5400FFF7D0F9002EF8D1B2461CE7029B13F00E
:103D6400400F3FF425AF20215846FFF7C3F91FE762
:103D7400BAF1000F3FF421AF30255646013E2946E3
:103D84005846FFF7B7F9002EF8D1B24615E74FF0C1
:103D9400300C61465846FFF7ADF9B04515D0D5E96A
:103DA4000023A846083D0021994208BF9442EED35F
:103DB4004FF0300C0CF1010C5FFA8CFCA41A0021BA
:103DC400994208BF9442F5D2E3E7029B13F40064DE
:103DD40049D1002F55D1029B13F0800F40F07E8112
:103DE400029B13F4806F2FD013F4005F14BF45219E
:103DF40065215846FFF77EF9079B002BC0F294809B
:103E04002B215846FFF776F90799632900F394802C
:103E14000799B64C84FB0132C917C1EBA2013031BA
:103E2400C9B25846FFF766F9079B84FB0324D917E8
:103E3400C1EBA40101EB8101A3EB410303F13001C8
:103E4400C9B25846FFF756F9BAF1000F00F01F81C6
:103E540020245546013D21465846FFF74BF9002DD5
:103E6400F8D1AA4613E1079B002BB2DD3025013BB4
:103E7400079329465846FFF73DF9079B002BF6DCCC
:103E8400A7E72E215846FFF735F93D46092FA8BF6D
:103E9400092525EAE5757F1B8CB10798281AFFF7D9
:103EA40007F920EE088AFCEEC87A17EE904A7DB333
:103EB40005F10055013D8E4B03EBC50519E028467D
:103EC400FFF7F6F820EE088AFCEEC87A17EE904A5F
:103ED400EDE70CF1010C5FFA8CFCA41A0021994265
:103EE40008BF9442F5D261465846FFF703F94645A8
:103EF4000ED0D5E90023A846083D0021994208BF09
:103F0400944202D34FF0300CE3E74FF0300CEAE771
:103F1400002F3FF465AF3024013F21465846FFF798
:103F2400E9F8002FF8D15BE72D215846FFF7E2F8B6
:103F3400079B5B42079367E76E4C84FB0132C9170A
:103F4400C1EB62113031C9B25846FFF7D3F8079A72
:103F540084FB0231D317C3EB6113642101FB1323E8
:103F6400079355E7012719E41A464FF00008002B80
:103F740055D004A94FF0000803F00703303301F8CB
:103F8400013B08F10108D2081346002AF4D146E0A7
:103F940019464FF00008002B41D04FF0000806F4FA
:103FA400004E4FF02C0ADFF858C17346A6461C4653
:103FB40024E002F00F01504C615C03F8011B08F18E
:103FC4000108120906D00028F3D002F00F011CF8F2
:103FD4000110F2E7744622E008AB03EB0800ACFBE7
:103FE4000132D20802EB8203A1EB4303303300F821
:103FF400103C08F1010809290DD91146002CEBD019
:1040040008F00303032BE7D108AB434403F810ACD7
:1040140008F10108E0E7744601E04FF00008A7EB5F
:10402400080727EAE777ED1BA5EB0805FF2C0DD958
:10403400023DC4F307215846FFF75CF8E1B2584645
:10404400FFF758F804E04FF00008E8E7002C4BD1E4
:104054005A4629463046FFF775F85A463946302005
:10406400FFF762F8B8F1010A0ED404AB54461C44BD
:104074009846217827465846FFF73CF8444504F112
:10408400FF34F6D14FF0FF3A16F0100F0BD14D4626
:1040940015F8011B69B125293FF461A95846FFF7BA
:1040A40029F8A946F3E75A4629462020FFF73CF8A9
:1040B400EDE7DBF808303BB1DBF80020DBF8041057
:1040C4008A423CBF00219954DBF8000009B0BDECE2
:1040D400048BBDE8F08F4FF0FF30F7E72E215846F0
:1040E400FFF708F83D46D6E6013DA7E76766666632
:1040F400084800001F85EB51984700001048000055
:10410400CDCCCCCCDFED137AB4EE670AF1EE10FA25
:1041140012D010EE102AC2F3C7537F3B11D4162BD2
:1041240012DC0D4921FA03F322EA030207EE902A76
:10413400026030EE670A7047C0ED007AB0EE670A9D
:104144007047C0ED007A704780ED000AB0EE670A50
:10415400704700BF00000000FFFF7F0000B52DED99
:10416400028BF5EE400AF1EE10FA83B04BD0B0EEBC
:10417400608AF0EE408AFEF7BFFE30B1B0EE680A06
:1041840003B0BDEC028B5DF804FBB0EE480AFEF709
:10419400B3FE002843D1F5EE408AF1EE10FAEDD0DB
:1041A400B0EE680AFEF79EFE00283FD1B0EE480A42
:1041B400FEF798FE0028E1D1B0EE480AFEF7ACFE07
:1041C400B0EE408A88EE880A01A8FFF79BFFDDED78
:1041D400017AF5EEC08AB0EE680AF1EE10FAA8EEA4
:1041E400670AB1EE487A24DDB4EEC08AF1EE10FA23
:1041F40098BF30EE480AB5EEC00AF1EE10FABFD50A
:1042040030EE080ABCE7FEF7BFFF114B9FED110A21
:104214001B68036003B0BDEC028B5DF804FBB0EED9
:10422400480A03B0BDEC028B5DF804FB9FED090A5C
:10423400A6E7B4EEC70AF1EE10FA98BF30EE080A0A
:10424400B5EEC00AF1EE10FA9ADD30EE480A97E7AF
:08425400B84700000000C07F24
:10425C0006440000000000000A44000000000000BA
:10426C000F44000000000000144400000000000097
:08427C00F642000000000303FC
:10428400C842000000000000D442000014000020D6
:104294007800002040010020480100208000002018
:0442A40018000000FE
:1042A800FFFFFFFFFFFFFFFFFFFFFFFFFFFFFFFF16
:1042B80000000000000000000000D6010601000018
:1042C8000D05000071050000AD04000075617274F1
:1042D8005F6C6F675F6261636B656E640042616308
:1042E8006B656E647320666C7573686564006170D5
:1042F800700000006C0500207F000000EC05002025
:104308001B5B306D002573001B5B313B33316D0047
:1043180025734C6F67732064726F70706564202812
:1043280025642925730D0A003C25733E2025733A20
:104338002000202530327800202020007C002563D2
:10434800001B5B313B33306D001B5B313B33326DFF
:10435800001B5B313B33336D001B5B313B33346DEA
:10436800001B5B313B33356D001B5B313B33366DD6
:10437800001B5B313B33376D007761726E696E6786
:1043880000696E666F006465627567000843000027
:104398004943000010430000514300005943000006
:1043A8006143000069430000714300007943000045
:1043B80000000000D2430000814300008943000050
:1043C8008E430000466174616C206572726F7200E2
:1043D80053797374656D207265736574003031327A
:1043E80033343536373839414243444546000000B6
:1043F80000000000000000000338FDD8704750524C
:1044080053005457494D0055415254005541525498
:1044180045000D0A54574920416363656C65726F06
:104428006D65746572206578616D706C6520737454
:1044380061727465640A002D2D2D2D2D2D2D2D2DC5
:104448002D2D2D2D2D2D2D2D2D2D2D2D2D2D2D2D94
:104458002D2D2D2D2D2D2D2D0A0A0A0058203D20F9
:10446800256C66200A0059203D20256C66200A002C
:104478005A203D20256C66200A000000000000003C
:1044880000000000000000000338FDD8704700005D
:1044980000000000003000400000000001000000A3
:1044A8005465726D696E616C0052545400534547EF
:1044B800474552002D2D2D2D2D2D2D2D2D2D2D2DFA
:1044C8002D2D2D2D2D2D2D2D2D2D2D2D2D2D2D2D14
:1044D8002D2D2D2D2D0A002573204D6F6465206824
:1044E8006173206265656E207365740A00536F6D91
:1044F800657468696E6720676F65732077726F6E81
:1045080067207768696C652073657474696E6720C5
:10451800746865202573206D6F64650A004E6F729C
:104528006D616C00536C656570004D6561737572E3
:104538006500466F726D6174696E6700496E6163EC
:10454800746976697479004163746976697479006D
:1045580043000000504F53495800000020202020FD
:1045680020202020206828282828202020202020DB
:10457800202020202020202020202020481010103B
:104588001010101010101010101010108484848453
:104598008484848484841010101010101081818108
:1045A8008181810101010101010101010101010173
:1045B8000101010101010110101010101082828206
:1045C8008282820202020202020202020202020243
:1045D800020202020202021010101020000703203B
:1045E80004170201085710408000000058450000D9
:1045F8005C4600007047000053756E004D6F6E00FA
:104608005475650057656400546875004672690002
:1046180053617400000000004A616E004665620044
:104628004D617200417072004D6179004A756E00EB
:104638004A756C0041756700536570004F637400DC
:104648004E6F76004465630000000000414D005045
:104658004D0000009447000090470000904700007C
:1046680090470000904700009047000090470000E6
:10467800904700009047000090470000FFFFFFFFB1
:10468800FFFFFFFFFFFFFFFFFFFF0000D046000016
:10469800004600000C470000204600005446000079
:1046A800B446000064470000C0460000256D2F2571
:1046B800642F2579000000002561202562202565EA
:1046C800202554202559000053756E646179004DEA
:1046D8006F6E64617900547565736461790057651C
:1046E800646E657364617900546875727364617986
:1046F8000046726964617900536174757264617906
:10470800000000004A616E75617279004665627248
:1047180075617279004D6172636800417072696CED
:10472800004D6179004A756E65004A756C790041E3
:1047380075677573740053657074656D6265720092
:104748004F63746F626572004E6F76656D62657255
:1047580000446563656D62657200000025483A256E
:104768004D3A255300000000193000003530000094
:10477800413000004D300000693000007530000005
:10478800813000008F300000000000002E00000083
:1047980030313233343536373839616263646566AF
:1047A800303132333435363738394142434445465F
:1047B80021000000000020410000C84200401C46C3
:1047C80020BCBE4CCA1B0E5AAEC59D74286E756CB3
:1047D8006C2900002D494E46000000002D696E66C8
:1047E800000000002B494E46000000002B696E6651
:1047F800000000004E414E006E616E000000000097
:1048080001000000000000000A0000000000000095
:104818006400000000000000E80300000000000041
:104828001027000000000000A08601000000000022
:1048380040420F0000000000809698000000000031
:1048480000E1F5050000000000CA9A3B00000000E6
:1048580000E40B540200000000E87648170000004E
:104868000010A5D4E800000000A0724E180900004E
:1048780000407A10F35A00000080C6A47E8D030021
:104888000000C16FF286230000008A5D784563014D
:10489800000064A7B3B6E00D0000E8890423C78AC6
:1048A8000000000000200040000000000020004040
:1048B8000000000000000000FF0000000090D0038E
:1048C800F4450000F4450000F4450000F4450000FC
:0448D800F4450000A3
:040000030000037581
:00000001FF
